:100000000C942A000C9447000C9447000C94470071
:100010000C9447000C9447000C9447000C94A612D3
:100020000C9447000C9447000C9447000C94470034
:100030000C9447000C9447000C9447000C94470024
:100040000C9447000C9447000C9447000C94470014
:100050000C94470011241FBECFE5D8E0DEBFCDBF12
:1000600010E0A0E6B0E0E6EFF5E602C005900D92E4
:10007000AE39B107D9F715E0AEE9B0E001C01D9285
:10008000AA3BB107E1F70E940B2F0C94F9320C94B4
:100090000000EF92FF920F931F937B018C0120E0F1
:1000A00030E040E05FE40E94F50388238CF0C80153
:1000B000B70120E030E040E05FE40E94C1010E940F
:1000C00055049B01AC01205030404040504806C0D0
:1000D000C801B7010E9455049B01AC01B901CA01D6
:1000E0001F910F91FF90EF900895A0E0B0E0EBE733
:1000F000F0E00C941830DC012B01FA019C91923055
:1001000008F439C1EB018881823008F433C194309E
:1001100069F4843009F02FC111969C91119789815F
:10012000981709F428C1ABE8B0E025C1843009F480
:1001300021C18230A9F4923009F01DC19A01AD01AC
:1001400088E0EA010990AE01E90109929E0181501F
:10015000C1F7E201898111969C918923818308C1AD
:10016000923009F407C112962D903C901397EB0141
:100170008A819B811496AD90BD90CD90DC901797AD
:10018000EC80FD800E811F819101281B390BB90184
:1001900037FF04C066277727621B730B6032710537
:1001A0000CF061C0121613066CF537014801062EDB
:1001B00004C096948794779467940A94D2F721E0C8
:1001C00030E040E050E004C0220F331F441F551FB1
:1001D0006A95D2F721503040404050402E213F21B7
:1001E00040235123211531054105510521F021E01E
:1001F00030E040E050E079018A01E628F72808293C
:1002000019293CC0232BD1F1260E371E350146019A
:10021000062E04C096948794779467940A94D2F734
:1002200021E030E040E050E004C0220F331F441FC3
:10023000551F6A95D2F721503040404050402A2146
:100240003B214C215D21211531054105510521F04E
:1002500021E030E040E050E059016A01A628B728CB
:10026000C828D9280BC0821593052CF01C01AA249C
:10027000BB24650103C0EE24FF24870111969C91E5
:10028000D20111968C91981709F445C0992339F041
:10029000A80197012A193B094C095D0906C0A6016E
:1002A00095012E193F09400B510B57FD08C01182D3
:1002B0003382228224833583468357831DC081E0A5
:1002C00081833382228288279927DC01821B930B4A
:1002D000A40BB50B84839583A683B7830DC0220F2F
:1002E000331F441F551F24833583468357838281E0
:1002F000938101979383828324813581468157813D
:10030000DA01C9010197A109B1098F5F9F4FAF4F72
:10031000BF4328F30BC0918333822282EA0CFB1C7B
:100320000C1D1D1DE482F5820683178383E0808304
:10033000248135814681578157FF1AC0C901AA27F8
:1003400097FDA095BA2F81709070A070B0705695EF
:10035000479537952795822B932BA42BB52B848318
:100360009583A683B7838281938101969383828349
:10037000DF0101C0D201CD01CDB7DEB7E2E10C94BF
:100380003430A0E2B0E0E7ECF1E00C942430698373
:100390007A838B839C832D833E834F835887E9E048
:1003A000EE2EF12CEC0EFD1ECE010196B7010E943F
:1003B0007E058E010F5E1F4FCE010596B8010E948B
:1003C0007E058A8991E089278A8BC701B801AE0131
:1003D000475E5F4F0E9475000E94A904A096E6E068
:1003E0000C944030A0E2B0E0E8EFF1E00C9424304F
:1003F00069837A838B839C832D833E834F835887C5
:10040000F9E0EF2EF12CEC0EFD1ECE010196B701A6
:100410000E947E058E010F5E1F4FCE010596B8012A
:100420000E947E05C701B801AE01475E5F4F0E9482
:1004300075000E94A904A096E6E00C944030A0E26A
:10044000B0E0E5E2F2E00C94183069837A838B83A4
:100450009C832D833E834F835887CE010196BE0136
:10046000675F7F4F0E947E05CE010596BE016F5EDD
:100470007F4F0E947E059985923088F0898982306D
:10048000C8F0943019F4823051F404C0843029F457
:10049000923081F48BE890E0C6C0923049F420E0BD
:1004A0009A858A89981321E02A87CE010996BBC0D4
:1004B000823049F420E09A858A89981321E02A8BBA
:1004C000CE014196B0C02D843E844F8458886D88FB
:1004D0007E888F88988CEE24FF248701AA24BB2471
:1004E000650140E050E060E070E0E0E0F0E0C10174
:1004F00081709070892BE9F0E60CF71C081D191D1E
:100500009A01AB012A0D3B1D4C1D5D1D80E090E062
:10051000A0E0B0E0E614F7040805190520F481E036
:1005200090E0A0E0B0E0BA01A901480F591F6A1F8E
:100530007B1FAA0CBB1CCC1CDD1C97FE08C081E0F5
:1005400090E0A0E0B0E0A82AB92ACA2ADB2A3196B6
:10055000E032F10549F0660C771C881C991C569412
:10056000479437942794C3CFFA85EA892B893C892D
:100570008B859C85280F391F2E5F3F4F17C0CA01FE
:1005800081709070892B61F016950795F794E79428
:1005900080E090E0A0E0B0E8E82AF92A0A2B1B2BC3
:1005A00076956795579547952F5F3F4F77FDE7CF36
:1005B0000CC0440F551F661F771F17FD4160EE0CDE
:1005C000FF1C001F111F21503040403090E05907A0
:1005D00090E0690790E4790760F32B8F3C8FDB0193
:1005E000CA018F779070A070B07080349105A1051A
:1005F000B10561F447FD0AC0E114F10401051105DC
:1006000029F0405C5F4F6F4F7F4F40781A8EFE1786
:1006100011F081E08A8F4D8F5E8F6F8F78A383E01A
:10062000898FCE0149960E94A904A096E2E10C941C
:100630003430A8E1B0E0EFE1F3E00C9420306983BE
:100640007A838B839C832D833E834F835887B9E0C5
:10065000EB2EF12CEC0EFD1ECE010196B7010E948F
:100660007E058E010F5E1F4FCE010596B8010E94D8
:100670007E052985223008F47EC03989323010F495
:10068000B8017CC08A859A8989278A87243011F02D
:10069000223031F4231709F06EC06BE870E06EC0B1
:1006A000343039F41D861E861F86188A1C861B86E8
:1006B00004C0323021F484E08987B7015FC02B8504
:1006C0003C858B899C89281B390B3C872B87ED84C3
:1006D000FE840F851889AD88BE88CF88D88CEA142F
:1006E000FB040C051D0540F4EE0CFF1C001F111F40
:1006F000215030403C872B8720E030E040E050E044
:1007000080E090E0A0E0B0E460E070E0EA14FB0478
:100710000C051D0540F0282B392B4A2B5B2BEA18C2
:10072000FB080C091D09B695A79597958795EE0CC2
:10073000FF1C001F111F6F5F7F4F6F31710531F775
:10074000DA01C9018F779070A070B0708034910584
:10075000A105B10561F427FD0AC0E114F10401050A
:10076000110529F0205C3F4F4F4F5F4F20782D87B8
:100770003E874F87588BBE01675F7F4FCB010E943A
:10078000A9046896EAE00C943C30A8E1B0E0EBECF8
:10079000F3E00C94243069837A838B839C832D83CC
:1007A0003E834F83588789E0E82EF12CEC0EFD1E26
:1007B000CE010196B7010E947E058E010F5E1F4F8C
:1007C000CE010596B8010E947E058985823040F0F1
:1007D0008989823028F0C701B8010E94F60501C05E
:1007E0008FEF6896E6E00C944030A8E1B0E0EBEFC4
:1007F000F3E00C94243069837A838B839C832D836C
:100800003E834F83588789E0E82EF12CEC0EFD1EC5
:10081000CE010196B7010E947E058E010F5E1F4F2B
:10082000CE010596B8010E947E058985823040F090
:100830008989823028F0C701B8010E94F60501C0FD
:100840008FEF6896E6E00C944030A8E1B0E0EBE270
:10085000F4E00C94243069837A838B839C832D830A
:100860003E834F83588789E0E82EF12CEC0EFD1E65
:10087000CE010196B7010E947E058E010F5E1F4FCB
:10088000CE010596B8010E947E058985823040F030
:100890008989823028F0C701B8010E94F60501C09D
:1008A00081E06896E6E00C944030ACE0B0E0EBE527
:1008B000F4E00C94283069837A838B839C83CE0187
:1008C0000196BE016B5F7F4F0E947E058D81823055
:1008D00061F1823050F1843021F48E81882351F10E
:1008E0002EC02F81388537FD20C06E812F31310514
:1008F0001CF06623F9F023C08EE190E0821B930B7D
:1009000029853A854B855C8504C056954795379572
:1009100027958A95D2F76623B1F05095409530958A
:1009200021953F4F4F4F5F4F0EC020E030E040E039
:1009300050E009C02FEF3FEF4FEF5FE704C020E02A
:1009400030E040E050E8B901CA012C96E2E00C9496
:100950004430DF92EF92FF920F931F93FC01E480EB
:10096000F58006811781D1808081823048F480E053
:1009700090E0A0E1B0E0E82AF92A0A2B1B2BA5C0E1
:10098000843009F49FC0823021F4EE24FF248701D3
:1009900005C0E114F1040105110519F4E0E0F0E0EF
:1009A00096C0628173819FEF623879070CF05BC05B
:1009B00022E83FEF261B370B2A3131052CF020E0CF
:1009C00030E040E050E02AC0B801A701022E04C088
:1009D00076956795579547950A94D2F781E090E010
:1009E000A0E0B0E004C0880F991FAA1FBB1F2A9582
:1009F000D2F70197A109B1098E219F21A023B1232C
:100A00000097A105B10521F081E090E0A0E0B0E001
:100A10009A01AB01282B392B4A2B5B2BDA01C90138
:100A20008F779070A070B07080349105A105B105EA
:100A300039F427FF09C0205C3F4F4F4F5F4F04C080
:100A4000215C3F4F4F4F5F4FE0E0F0E02030A0E0EF
:100A50003A07A0E04A07A0E45A0710F0E1E0F0E00E
:100A600079018A0127C06038710564F5FB01E158FE
:100A7000FF4FD801C7018F779070A070B07080349D
:100A80009105A105B10539F4E7FE0DC080E490E0C1
:100A9000A0E0B0E004C08FE390E0A0E0B0E0E80E9A
:100AA000F91E0A1F1B1F17FF05C016950795F7941F
:100AB000E794319687E016950795F794E7948A9521
:100AC000D1F705C0EE24FF248701EFEFF0E06E2F91
:100AD000679566276795902F9F77D794DD24D794E5
:100AE0008E2F8695492F462B582F5D29B701CA01B5
:100AF0001F910F91FF90EF90DF900895FC01DB01B3
:100B0000408151812281622F6F7770E0221F22275E
:100B1000221F9381892F880F822B282F30E0991F65
:100B20009927991F11969C93119721153105A9F5C5
:100B3000411551056105710511F482E037C082E865
:100B40009FEF13969C938E9312979A01AB0167E0E7
:100B5000220F331F441F551F6A95D1F783E08C93F2
:100B60000DC0220F331F441F551F12968D919C916B
:100B70001397019713969C938E931297203080E0E1
:100B8000380780E0480780E4580758F314962D93FF
:100B90003D934D935C93179708952F3F310579F45A
:100BA000411551056105710519F484E08C93089590
:100BB00064FF03C081E08C9312C01C9210C02F57B9
:100BC000304013963C932E93129783E08C9387E0EA
:100BD000440F551F661F771F8A95D1F770641496CE
:100BE0004D935D936D937C93179708951F93DC014C
:100BF000FB019C91923008F447C08081823008F458
:100C000043C0943051F411961C91843099F5818140
:100C1000682F70E0611B71093FC0843021F0923071
:100C200031F48230B9F18181882389F12DC0119688
:100C30001C9111978230F1F081811817D9F4129626
:100C40002D913C911397828193818217930794F0A1
:100C500028173907BCF014968D919D910D90BC9189
:100C6000A02D2481358146815781281739074A07ED
:100C70005B0718F4112341F00AC082179307A407F9
:100C8000B50740F4112319F061E070E005C06FEF83
:100C90007FEF02C060E070E0CB011F910895AF923A
:100CA000BF92CF92DF92EF92FF920F93DF93CF9399
:100CB0000F92CDB7DEB789838AE062E040E00E9400
:100CC0002F139093A1008093A00083ED96E020E67F
:100CD00030E0E0EAF0E0B90145E550E09F0109812C
:100CE000EE24FF24CC24DD24AA24BB240E94551A20
:100CF00086E996E028E630E0E0EAF0E0B90145E573
:100D000050E09F010981EE24FF24CC24DD24AA2495
:100D1000BB240E94551A0F90CF91DF910F91FF9045
:100D2000EF90DF90CF90BF90AF900895DF93CF9377
:100D300000D000D000D0CDB7DEB79E838D831C825B
:100D40001B821A82198227C0ED81FE8180819181E8
:100D50009E012D5F3F4FB90140E050E020E00E942E
:100D6000FA13813019F081E08A8312C08A818823C6
:100D700051F40FB6F8940F9280919F008F5F80938B
:100D80009F000F900FBE8B819C8101969C838B836B
:100D900089818F5F898389818330B4F288EC90E008
:100DA0000E940F1CCFCFDF93CF93CDB7DEB727972D
:100DB0000FB6F894DEBF0FBECDBF9F838E831B821C
:100DC0001A8219822FC0EE81FF81808191819E015C
:100DD0002C5F3F4FB90140E050E020E00E94081531
:100DE000813001F52C813D818A819B81281739074B
:100DF00039F081E089838C819D819B838A830DC03A
:100E00008981882351F40FB6F8940F9280919E0047
:100E10008F5F80939E000F900FBE8A819B81019609
:100E20009B838A83EE81FF81808191810E94791664
:100E3000882349F684EB90E00E940F1CF3CFDF93E8
:100E4000CF930F92CDB7DEB780919E00882321F01B
:100E500080919F00882311F4198202C081E0898368
:100E600010929E0010929F0089810F90CF91DF9188
:100E70000895DF93CF93CDB7DEB727970FB6F894D9
:100E8000DEBF0FBECDBF9D838C836E834F838AE10F
:100E900090E00E94510D9A83898389819A810097FD
:100EA00009F46FC08091A2009091A300009741F4D3
:100EB00089819A819093A3008093A2000E94A00947
:100EC0008E81823010F081E08E83E981FA81118E6B
:100ED000108EE981FA818E81868BE981FA818F817A
:100EE000878BE981FA818C819D81918380838981BF
:100EF0009A8102960E94C90E89819A810C960E945D
:100F0000C90EE981FA8189819A8191878087E98177
:100F1000FA8189819A81938B828B8E81282F30E090
:100F200082E090E0821B930BE981FA8195878487A8
:100F3000E981FA8196898091A400891728F4E981D2
:100F4000FA8186898093A400E981FA818689282F15
:100F500030E0C901880F991F880F991F880F991FCA
:100F6000820F931FAC0145555F4F89819A819C0187
:100F70002E5F3F4FCA01B9010E94D90E81E08B83D9
:100F800002C08FEF8B838B8127960FB6F894DEBF5C
:100F90000FBECDBFCF91DF910895DF93CF9300D0E7
:100FA00000D000D0CDB7DEB79C838B837E836D836A
:100FB0002091A5003091A6008B819C81820F931F08
:100FC0009A8389838091A2009091A30002960E9447
:100FD000890FE091A200F091A30089819A81938307
:100FE00082832091A5003091A60089819A81821781
:100FF000930770F48091D1009091D2002091A200CB
:101000003091A3002E5F3F4FB9010E941D0F0DC00C
:101010008091CF009091D0002091A2003091A30048
:101020002E5F3F4FB9010E941D0F8D819E81009759
:1010300061F08091A2009091A3009C01245F3F4F3A
:101040008D819E81B9010E941D0F26960FB6F894DE
:10105000DEBF0FBECDBFCF91DF910895DF93CF9359
:1010600000D0CDB7DEB73AC0F894E091D800F09147
:10107000D900868197819A83898389819A810C9688
:101080000E94890F789489819A8102960E94890F23
:10109000E981FA8196898091A400891728F4E98171
:1010A000FA8186898093A400E981FA818689282FB4
:1010B00030E0C901880F991F880F991F880F991F69
:1010C000820F931FAC0145555F4F89819A819C0126
:1010D0002E5F3F4FCA01B9010E94D90E8091D30003
:1010E000882309F0C1CF0F900F90CF91DF91089521
:1010F000DF93CF9300D000D0CDB7DEB70E94191E8A
:101100002091A7003091A800821B930B9093AA0016
:101110008093A90085C08091A5009091A6000196BA
:101120009093A6008093A5008091A9009091AA00B9
:1011300001979093AA008093A9008091A5009091B7
:10114000A600009709F064C08091CF009091D00074
:101150009A8389838091D1009091D2009093D0009E
:101160008093CF0089819A819093D2008093D1009F
:101170004FC0E091CF00F091D0000580F681E02DC6
:10118000868197819C838B83EB81FC8122813381D3
:101190008091A5009091A6008217930708F440C0A3
:1011A000F8948B819C8102960E94890FEB81FC81CF
:1011B00084899589009729F08B819C810C960E94E7
:1011C000890F7894EB81FC8196898091A40089171E
:1011D00028F4EB81FC8186898093A400EB81FC815B
:1011E0008689282F30E0C901880F991F880F991F21
:1011F000880F991F820F931FAC0145555F4F8B815C
:101200009C819C012E5F3F4FCA01B9010E94D90EFB
:10121000E091CF00F091D0008081882309F0A9CF20
:101220008091A9009091AA00009709F074CF809155
:10123000A5009091A6009093A8008093A7000F901E
:101240000F900F900F90CF91DF910895DF93CF9380
:1012500000D0CDB7DEB70E942E080E9478080AC0E1
:101260008091A400882309F466C08091A400815075
:101270008093A4008091A400282F30E0C901880F3A
:10128000991F880F991F880F991F820F931FFC01C8
:10129000E555FF4F8081882319F38091A400282F02
:1012A00030E0C901880F991F880F991F880F991F77
:1012B000820F931F85559F4F9A838983E981FA8115
:1012C0000180F281E02D82819381E981FA8192830C
:1012D0008183E981FA812181328189819A81039612
:1012E0002817390759F4E981FA810180F281E02D4C
:1012F00082819381E981FA8192838183E981FA81F4
:101300000180F281E02D868197819093A3008093E4
:10131000A200E091A200F091A30040815181809150
:10132000A2009091A300E091A200F091A300278970
:10133000622FFA0109950F900F90CF91DF910895D8
:10134000DF93CF930F92CDB7DEB7198213C0898197
:10135000282F30E0C901880F991F880F991F880F27
:10136000991F820F931F85559F4F0E949F0E898161
:101370008F5F89838981823050F38DEB90E00E94EA
:101380009F0E86EC90E00E949F0E83ED90E00E94FD
:101390009F0E8DEB90E09093D0008093CF0086EC71
:1013A00090E09093D2008093D1000F90CF91DF9185
:1013B0000895DF93CF9300D000D00F92CDB7DEB762
:1013C0009D838C83EC81FD810580F681E02D8681F3
:1013D00097819B838A838A819B810C960E94890FC7
:1013E0008A819B819C01245F3F4F83ED90E0B9018E
:1013F0000E94D90EEA81FB819689E091A200F091CA
:10140000A3008689981718F081E0898301C01982AA
:1014100089810F900F900F900F900F90CF91DF91D7
:101420000895DF93CF9300D0CDB7DEB78BE090E087
:101430000E94510D9A83898389819A81009749F08E
:10144000E981FA811182108289819A8102960E9433
:101450009F0E89819A810F900F90CF91DF9108950F
:10146000DF93CF93CDB7DEB760970FB6F894DEBFAA
:101470000FBECDBF9A8789877C876B875E874D8734
:10148000388B2F8789859A859C838B8319820E944C
:10149000831DEB81FC818081918198878F83898571
:1014A0009A852B853C85B9010E94020C2F813885D5
:1014B0008B859C85282B392B8D859E852823392368
:1014C0008D859E8528173907C9F42F8138858B852E
:1014D0009C85822B932B9E838D83EB81FC812081C5
:1014E00031818D859E858095909582239323EB8114
:1014F000FC8191838083188A1F861CC08F85988900
:10150000009791F08B819C81BC016E5F7F4F8D8530
:101510009E859C0135604F855889CB01B9010E9499
:10152000D31F1E821D8206C0EB81FC8180819181C8
:101530009E838D830E948F1D8A838F859889009753
:1015400009F43AC08A81882311F40E9494110E9400
:101550004F249E838D838D819E8180709270009731
:1015600031F50FB6F8940F92EB81FC818081918167
:101570009E838D832D813E818D859E8528233923F1
:101580008D859E852817390771F4EB81FC812081B8
:1015900031818D859E858095909582239323EB8163
:1015A000FC81918380830F900FBE81E089838D81C0
:1015B0009E8190709E838D838D819E8160960FB6F3
:1015C000F894DEBF0FBECDBFCF91DF9108950F938A
:1015D0001F93DF93CF93CDB7DEB763970FB6F89421
:1015E000DEBF0FBECDBF9D878C877F876E87488B00
:1015F000298B1B8B0A8B8C859D859B878A871F82F5
:101600001E821B820E94831DEA85FB858081918159
:101610009A83898389819A812E853F85B901498979
:101620000E941F0D8D838D818823C1F089819A814D
:10163000998788871B8A1A8A88898823D9F1EA853D
:10164000FB85208131818E859F85809590958223B1
:101650009323EA85FB85918380832CC08A899B89AB
:10166000009729F489819A819987888723C088897E
:10167000882329F08E819F8191609F838E83898941
:10168000882329F08E819F8194609F838E838A8531
:101690009B85BC016E5F7F4F2E853F858E819F812C
:1016A000282B392B4A895B89CB01B9010E94D31FB2
:1016B000198618860E948F1D8C838A899B890097C2
:1016C00009F43BC08C81882311F40E9494110E947C
:1016D0004F249987888788859985807092700097B4
:1016E00039F50FB6F8940F92EA85FB8580819181D8
:1016F00099878887888599852E853F85B90149898D
:101700000E941F0D882389F08889882371F0EA855B
:10171000FB85208131818E859F85809590958223E0
:101720009323EA85FB85918380830F900FBE1B82F4
:10173000888599859070998788878885998563962B
:101740000FB6F894DEBF0FBECDBFCF91DF911F91D2
:101750000F910895DF93CF93CDB7DEB728970FB6DB
:10176000F894DEBF0FBECDBF9E838D8378876F83D5
:101770008D819E819C838B830FB6F8940F92EB81B1
:10178000FC81808191819A838983EB81FC81208116
:1017900031818F8198858095909582239323EB8169
:1017A000FC81918380830F900FBE89819A81289656
:1017B0000FB6F894DEBF0FBECDBFCF91DF91089575
:1017C000DF93CF93CDB7DEB727970FB6F894DEBF80
:1017D0000FBECDBF9F838E838E819F819C838B8321
:1017E0001D82EB81FC81808191819A83898389812B
:1017F0009A8127960FB6F894DEBF0FBECDBFCF916A
:10180000DF910895DF93CF93CDB7DEB765970FB61D
:10181000F894DEBF0FBECDBF9B8B8A8B7D8B6C8B0C
:10182000198618868A899B899B838A8319828A8173
:101830009B8102969B878A878A859B8503969D87D5
:101840008C870E94831DEA85FB8585819681998B13
:10185000888BEA81FB81208131818C899D89822B53
:10186000932BEA81FB819183808359C0E889F989B0
:10187000828193819F878E87E889F9898081918110
:101880009F838E8319828E819F8180709D838C833C
:101890008E819F8190709F838E838C819D818070CB
:1018A0009470009769F4EA81FB81208131818E81F7
:1018B0009F8182239323009791F081E089830FC059
:1018C000EA81FB81208131818E819F812823392308
:1018D0008E819F812817390711F481E089838981DE
:1018E0008823C9F08C819D8180709170009741F0B0
:1018F000888599852E813F81822B932B99878887B4
:10190000EA81FB81808191819C013260888999897B
:10191000B9010E9481208E859F85998B888B2889AB
:1019200039898C859D852817390709F09FCFEA8171
:10193000FB812081318188859985809590958223CE
:101940009323EA81FB81918380830E948F1DEA812A
:10195000FB818081918165960FB6F894DEBF0FBE42
:10196000CDBFCF91DF910895DF93CF9300D000D00A
:1019700000D0CDB7DEB79E838D838D819E819C8301
:101980008B838B819C8102969A8389830E94831D1D
:1019900008C0E981FA818581968160E072E00E9449
:1019A0008120E981FA818081882399F78B819C814C
:1019B0000E94A70D0E948F1D26960FB6F894DEBFD9
:1019C0000FBECDBFCF91DF910895DF93CF9300D0AD
:1019D00000D000D0CDB7DEB79A8389834B835C8378
:1019E0006D837E832B813C8189819A81B9010E941C
:1019F000020C26960FB6F894DEBF0FBECDBFCF9176
:101A0000DF910895DF93CF9300D000D000D0CDB701
:101A1000DEB79A8389834B835C836D837E832B81BE
:101A20003C8189819A81B9010E94AA0B26960FB642
:101A3000F894DEBF0FBECDBFCF91DF910895DF9345
:101A4000CF9300D000D000D0CDB7DEB79B838A8380
:101A50007D836C834E8319828E81882359F48A8119
:101A60009B812C813D8182239323009781F081E02B
:101A700089830DC02A813B818C819D812823392354
:101A80008C819D812817390711F481E08983898130
:101A900026960FB6F894DEBF0FBECDBFCF91DF9173
:101AA0000895DF93CF9300D000D0CDB7DEB79C83ED
:101AB0008B831A8219820E94831D8091DE0090918F
:101AC000DF00009731F481EE90E09093DF00809387
:101AD000DE008091DC009091DD002B813C81820F43
:101AE000931F24E08D37920738F52091DC00309168
:101AF000DD008B819C81280F391F8091DC00909143
:101B0000DD0082179307C0F42091DE003091DF00E2
:101B10008091DC009091DD00820F931F9A8389836E
:101B20002091DC003091DD008B819C81820F931F1E
:101B30009093DD008093DC000E948F1D89819A8143
:101B40000F900F900F900F90CF91DF910895DF933A
:101B5000CF9300D0CDB7DEB79A8389830F900F90D3
:101B6000CF91DF910895DF93CF93CDB7DEB7109279
:101B7000DD001092DC00CF91DF910895DF93CF93C9
:101B8000CDB7DEB72091DC003091DD008DE794E029
:101B9000821B930BCF91DF910895AF92BF92CF92AA
:101BA000DF92EF92FF920F93DF93CF9300D00F92CB
:101BB000CDB7DEB78B831A8219821BC089819A81C7
:101BC000FC01E25AFA4F8BE09EE020E730E0B901D9
:101BD00045E550E09F010B81EE24FF24CC24DD2459
:101BE000AA24BB240E94551A89819A8101969A835E
:101BF000898389819A811816190604F70F900F902E
:101C00000F90CF91DF910F91FF90EF90DF90CF90E9
:101C1000BF90AF900895DF93CF93CDB7DEB72A97EB
:101C20000FB6F894DEBF0FBECDBF9A8789871C829E
:101C30001B8289859A859A8389838BE790E0A0E04F
:101C4000B0E08D839E83AF83B8878D819E81AF8105
:101C5000B885895B9B46AC4FBF4F8D839E83AF8316
:101C6000B8878D819E81AF81B8852DEF3FEF4FEF13
:101C70005FEFBC01CD010E94BC2FDC01CB018D8345
:101C80009E83AF83B8878D819E81AF81B88527E021
:101C900030E040E050E0BC01CD010E94FD2FDA01B0
:101CA000C9018D839E83AF83B8878D819E81AF816B
:101CB000B8858B3127E792072EEFA2072FEFB207E7
:101CC00021F081E090E09C838B838B819C81009745
:101CD00009F0B3CF0FB6F8940F92E981FA8181E051
:101CE00080830F900FBEA9CFDF93CF9300D00F92C8
:101CF000CDB7DEB781E08B831A82198214C0898147
:101D00009A81FC01E25AFA4F8081882309F41B82F0
:101D100089819A81FC01E25AFA4F108289819A8165
:101D200001969A83898389819A81181619063CF74E
:101D30008B810F900F900F90CF91DF910895DF93DB
:101D4000CF9300D0CDB7DEB79A83898389819A81FA
:101D50000396E981FA8192838183E981FA818FEF89
:101D60009FEF9483838389819A810396E981FA8125
:101D70009683858389819A810396E981FA81908788
:101D80008783E981FA8110820F900F90CF91DF91C4
:101D90000895DF93CF9300D0CDB7DEB79A838983C0
:101DA000E981FA81118610860F900F90CF91DF9113
:101DB0000895DF93CF9300D000D000D0CDB7DEB729
:101DC0009C838B837E836D83EB81FC8181819281F7
:101DD0009A838983ED81FE8189819A8193838283AD
:101DE000E981FA8184819581ED81FE8195838483E7
:101DF000E981FA810480F581E02D8D819E819383B4
:101E00008283E981FA818D819E8195838483ED812E
:101E1000FE818B819C8191878087EB81FC81808111
:101E20008F5FEB81FC81808326960FB6F894DEBF2E
:101E30000FBECDBFCF91DF910895DF93CF93CDB784
:101E4000DEB728970FB6F894DEBF0FBECDBF9E83D6
:101E50008D8378876F83EF81F885808191819A8364
:101E6000898389819A812FEF8F3F920739F4ED8121
:101E7000FE81878190859C838B8318C08D819E8194
:101E800003969C838B8306C0EB81FC8182819381C6
:101E90009C838B83EB81FC810280F381E02D208188
:101EA000318189819A818217930770F7EB81FC81D8
:101EB00082819381EF81F88593838283EF81F88516
:101EC0000280F381E02D8F81988595838483EF8153
:101ED000F8858B819C8195838483EB81FC818F8144
:101EE000988593838283EF81F8858D819E81918788
:101EF0008087ED81FE8180818F5FED81FE8180830F
:101F000028960FB6F894DEBF0FBECDBFCF91DF91FC
:101F10000895DF93CF9300D000D0CDB7DEB79C8378
:101F20008B83EB81FC81808591859A838983EB810A
:101F3000FC81A281B381EB81FC818481958115961E
:101F40009C938E931497EB81FC81A481B581EB81E6
:101F5000FC818281938113969C938E931297E981E1
:101F6000FA81218132818B819C812817390741F4C4
:101F7000EB81FC8184819581E981FA81928381835F
:101F8000EB81FC8111861086E981FA818081815084
:101F9000E981FA818083E981FA8180810F900F9035
:101FA0000F900F90CF91DF910895DF93CF93CDB72E
:101FB000DEB728970FB6F894DEBF0FBECDBF9C8367
:101FC0008B837E836D8358874F83EB81FC8181E116
:101FD00080838B819C8101979C838B83EB81FC8127
:101FE00082E280838B819C8101979C838B83EB8130
:101FF000FC8183E380838B819C8101979C838B830D
:102000008D819E819A8389838981EB81FC81808384
:102010008B819C8101979C838B8389819A81892FF5
:1020200099279A8389838981EB81FC8180838B81C5
:102030009C8101979C838B83EB81FC8110828B8137
:102040009C8101979C838B83EB81FC8180E880835A
:102050008B819C8101979C838B83EB81FC81108217
:102060008B819C8101979C838B83EB81FC8182E037
:1020700080838B819C8101979C838B83EB81FC8186
:1020800083E080838B819C8101979C838B83EB8190
:10209000FC8184E080838B819C8101979C838B836E
:1020A000EB81FC8185E080838B819C8101979C83FF
:1020B0008B83EB81FC8186E080838B819C810197FF
:1020C0009C838B83EB81FC8187E080838B819C8167
:1020D00001979C838B83EB81FC8188E080838B81DB
:1020E0009C8101979C838B83EB81FC8189E08083B9
:1020F0008B819C8101979C838B83EB81FC8180E1A8
:1021000080838B819C8101979C838B83EB81FC81F5
:1021100081E180838B819C8101979C838B83EB8100
:10212000FC8182E180838B819C8101979C838B83DE
:10213000EB81FC8183E180838B819C8101979C836F
:102140008B83EB81FC8184E180838B819C8101976F
:102150009C838B83EB81FC8185E180838B819C81D7
:1021600001979C838B83EB81FC8186E180838B814B
:102170009C8101979C838B83EB81FC8187E1808329
:102180008B819C8101979C838B83EB81FC8188E10F
:1021900080838B819C8101979C838B83EB81FC8165
:1021A00089E180838B819C8101979C838B83EB8168
:1021B000FC8180E280838B819C8101979C838B834F
:1021C000EB81FC8181E280838B819C8101979C83E0
:1021D0008B83EB81FC8182E280838B819C810197E0
:1021E0009C838B83EB81FC8183E280838B819C8148
:1021F00001979C838B838F8198859A8389838981BA
:10220000EB81FC8180838B819C8101979C838B83F4
:1022100089819A81892F99279A8389838981EB8182
:10222000FC8180838B819C8101979C838B83EB81D4
:10223000FC8186E280838B819C8101979C838B83C8
:10224000EB81FC8187E280838B819C8101979C8359
:102250008B83EB81FC8188E280838B819C81019759
:102260009C838B83EB81FC8189E280838B819C81C1
:1022700001979C838B83EB81FC8180E380838B813E
:102280009C8101979C838B83EB81FC8181E380831C
:102290008B819C8101979C838B838B819C81289669
:1022A0000FB6F894DEBF0FBECDBFCF91DF9108957A
:1022B000DF93CF93CDB7DEB70E944A12A0915F059E
:1022C000B0916005CD91CDBFDD91DEBFFF91EF9163
:1022D000DF91CF91BF91AF919F918F917F916F913E
:1022E0005F914F913F912F911F910F91FF90EF9030
:1022F000DF90CF90BF90AF909F908F907F906F9026
:102300005F904F903F902F901F900F900FBE0F90B7
:10231000089581E0CF91DF910895DF93CF93CDB7FA
:10232000DEB7CF91DF9108950F920FB6F8940F9218
:102330001F9211242F923F924F925F926F927F9241
:102340008F929F92AF92BF92CF92DF92EF92FF92C5
:102350000F931F932F933F934F935F936F937F93AD
:102360008F939F93AF93BF93CF93DF93EF93FF939D
:10237000A0915F05B09160050DB60D920EB60D925D
:102380000E94351FA0915F05B0916005CD91CDBF32
:10239000DD91DEBFFF91EF91DF91CF91BF91AF91C2
:1023A0009F918F917F916F915F914F913F912F916D
:1023B0001F910F91FF90EF90DF90CF90BF90AF9063
:1023C0009F908F907F906F905F904F903F902F9055
:1023D0001F900F900FBE0F9008950F920FB6F894B4
:1023E0000F921F9211242F923F924F925F926F9201
:1023F0007F928F929F92AF92BF92CF92DF92EF9295
:10240000FF920F931F932F933F934F935F936F937D
:102410007F938F939F93AF93BF93CF93DF93EF936C
:10242000FF93A0915F05B09160050DB60D920EB6B9
:102430000D920E944E1E882311F00E94351FA0911C
:102440005F05B0916005CD91CDBFDD91DEBFFF91FD
:10245000EF91DF91CF91BF91AF919F918F917F913C
:102460006F915F914F913F912F911F910F91FF902D
:10247000EF90DF90CF90BF90AF909F908F907F9024
:102480006F905F904F903F902F901F900F900FBED6
:102490000F900895DF93CF9300D000D000D0CDB738
:1024A000DEB780E89EE3A0E0B0E08B839C83AD8341
:1024B000BE838B819C81AD81BE81689415F8B695F1
:1024C000A795979587951694D1F78B839C83AD83B9
:1024D000BE838B819C81AD81BE810197A109B10929
:1024E0008B839C83AD83BE838B8189838B819C810D
:1024F000AD81BE81892F9A2FAB2FBB278B839C8305
:10250000AD83BE838B818A83EBE4F0E08A81808394
:10251000EAE4F0E0898180838BE08983EEE4F0E0F7
:1025200089818083E9E5F0E0808189838981806108
:102530008983E9E5F0E08981808326960FB6F894D7
:10254000DEBF0FBECDBFCF91DF9108950E94ED1188
:102550001895DF93CF9300D000D00F92CDB7DEB7A0
:102560009C838B836D838B819C819A8389830FB637
:10257000F8940F92E981FA8140815181E981FA81D1
:10258000838D282F30E0E981FA81848D882F90E0B7
:10259000BC01269FC001279F900D369F900D1124EE
:1025A000840F951FE981FA8193838283E981FA81FF
:1025B000128EE981FA8180819181E981FA81958386
:1025C0008483E981FA8140815181E981FA81838D97
:1025D000882F90E09C0121503040E981FA81848D60
:1025E000882F90E0BC01269FC001279F900D369F49
:1025F000900D1124840F951FE981FA8197838683BA
:10260000E981FA818FEF858FE981FA818FEF868FDB
:102610008D81882379F4E981FA8180858823A1F06E
:1026200089819A8108960E941620813069F40E945F
:1026300094110AC089819A8108960E949F0E89810F
:102640009A8141960E949F0E0F900FBE81E00F90DD
:102650000F900F900F900F90CF91DF910895DF931F
:10266000CF93CDB7DEB729970FB6F894DEBF0FBE74
:10267000CDBF8F83688749871A8219828F8188230B
:1026800009F43FC08FE190E00E94510D9E838D833D
:102690008D819E810097A9F18F81282F30E0888558
:1026A000882F90E0AC01249FC001259F900D349F9E
:1026B000900D112401969C838B838B819C810E94B9
:1026C000510DED81FE8191838083ED81FE818081BA
:1026D0009181009791F0ED81FE818F81838FED8153
:1026E000FE818885848F8D819E8161E00E94A91280
:1026F0008D819E819A83898304C08D819E810E94F1
:10270000A70D89819A8129960FB6F894DEBF0FBE76
:10271000CDBFCF91DF910895DF93CF9300D00F927B
:10272000CDB7DEB78B838FE190E00E94510D9A8385
:10273000898389819A810097A9F1E981FA811382BD
:102740001282E981FA8111821082E981FA8115826F
:102750001482E981FA8117821682E981FA81128E48
:10276000E981FA8181E0838FE981FA81148EE98120
:10277000FA818FEF858FE981FA818FEF868F8981CA
:102780009A8108960E949F0E89819A8141960E94A3
:102790009F0E89819A8160E070E040E050E020E087
:1027A0000E94FA1389819A810F900F900F90CF9118
:1027B000DF910895DF93CF9300D000D0CDB7DEB77F
:1027C0008B836C838B8160E042E00E942F139A839D
:1027D000898389819A81009721F0E981FA818C812E
:1027E000828F89819A810F900F900F900F90CF91D7
:1027F000DF910895DF93CF93CDB7DEB72F970FB654
:10280000F894DEBF0FBECDBF998788877B876A8724
:102810005D874C872E871C82888599859A8389835A
:102820000FB6F8940F92E981FA81928DE981FA81CD
:10283000838D981718F08E85823011F589819A81E1
:102840002A853B85B9014E850E94EC168B83E98170
:10285000FA818189882351F089819A8141960E9469
:102860001620813041F40E94941105C08B81882389
:1028700011F00E9494110F900FBE81E08F875CC011
:102880008C859D85009721F40F900FBE1F8654C044
:102890008C81882331F4CE0105960E94E62081E0E8
:1028A0008C830F900FBE0E94831D0FB6F8940F9279
:1028B000E981FA81858D8F3F19F4E981FA81158EBE
:1028C000E981FA81868D8F3F19F4E981FA81168EAC
:1028D0000F900FBECE0105969E01245F3F4FB901B8
:1028E0000E94FF20882309F589819A810E9475182A
:1028F0008823A1F089819A8108962C853D85B901AC
:102900000E949E1F89819A810E94EC170E948F1D50
:10291000882309F085CF0E94941182CF89819A8102
:102920000E94EC170E948F1D7BCF89819A810E94A3
:10293000EC170E948F1D1F868F852F960FB6F89477
:10294000DEBF0FBECDBFCF91DF910895DF93CF9350
:10295000CDB7DEB72B970FB6F894DEBF0FBECDBF55
:102960009E838D8378876F835A8749872B878D81D4
:102970009E819A8389831B82E981FA81928DE98104
:10298000FA81838D981718F08B858230B1F5898193
:102990009A812F813885B9014B850E94EC168823D6
:1029A00041F089859A85009721F0E985FA8581E0D3
:1029B0008083E981FA81868D8F3FA9F4E981FA81CC
:1029C00081898823B9F089819A8141960E941620D5
:1029D000882381F089859A85009761F0E985FA85D9
:1029E00081E0808307C0E981FA81868D8F5FE9816C
:1029F000FA81868F81E08C8301C01C828C812B96AA
:102A00000FB6F894DEBF0FBECDBFCF91DF91089512
:102A1000DF93CF93CDB7DEB760970FB6F894DEBFE4
:102A20000FBECDBF9A8789877C876B875E874D876E
:102A30002F871D8289859A859A8389830FB6F8949A
:102A40000F92E981FA81828D882309F44BC0E981D4
:102A5000FA81868197819C838B8389819A812B85DA
:102A60003C85B9010E94A5178F85882311F5E9815E
:102A7000FA81828D8150E981FA81828FE981FA8120
:102A800080819181009731F40E947624E981FA8156
:102A900093838283E981FA8180858823F1F089819B
:102AA0009A8108960E9416208130B9F40E949411F0
:102AB00014C0E981FA818B819C8197838683E981A7
:102AC000FA818189882349F089819A8141960E94FF
:102AD0001620882311F00E9494110F900FBE81E000
:102AE000888B6DC08D859E85009721F40F900FBE59
:102AF000188A65C08D81882331F4CE0106960E9424
:102B0000E62081E08D830F900FBE0E94831D0FB6DB
:102B1000F8940F92E981FA81858D8F3F19F4E9814C
:102B2000FA81158EE981FA81868D8F3F19F4E9814A
:102B3000FA81168E0F900FBECE0106969E01235F7E
:102B40003F4FB9010E94FF20882391F589819A8126
:102B50000E944018882329F1E981FA8180819181BE
:102B6000009759F40FB6F8940F92E981FA818281A7
:102B700093810E9452230F900FBE89819A814196C2
:102B80002D853E85B9010E949E1F89819A810E94F0
:102B9000EC170E948F1D882309F050CF0E949411DA
:102BA0004DCF89819A810E94EC170E948F1D46CFDC
:102BB00089819A810E94EC170E948F1D188A88894A
:102BC00060960FB6F894DEBF0FBECDBFCF91DF91F8
:102BD0000895DF93CF93CDB7DEB72A970FB6F89459
:102BE000DEBF0FBECDBF9E838D8378876F835A87EC
:102BF00049878D819E819A8389831B82E981FA812D
:102C0000828D882391F189819A812F813885B9013C
:102C10000E94A517E981FA81828D8150E981FA81AC
:102C2000828FE981FA81858D8F3FA9F4E981FA814C
:102C300080858823B9F089819A8108960E941620A0
:102C4000882381F089859A85009761F0E985FA8566
:102C500081E0808307C0E981FA81858D8F5FE981FA
:102C6000FA81858F81E08C8301C01C828C812A9639
:102C70000FB6F894DEBF0FBECDBFCF91DF910895A0
:102C8000DF93CF93CDB7DEB72A970FB6F894DEBFA8
:102C90000FBECDBF98878F837A8769878F8198858C
:102CA0009A8389831D82E981FA81828D8823B1F01C
:102CB000E981FA81868197819C838B8389819A81BE
:102CC00029853A85B9010E94A517E981FA818B818E
:102CD0009C819783868381E08E8301C01E828E81D2
:102CE0002A960FB6F894DEBF0FBECDBFCF91DF910D
:102CF0000895DF93CF9300D00F92CDB7DEB79B83BB
:102D00008A830FB6F8940F92EA81FB81828D8983C2
:102D10000F900FBE89810F900F900F90CF91DF9190
:102D20000895DF93CF9300D000D00F92CDB7DEB7D8
:102D30009D838C838C819D819A8389830FB6F894BF
:102D40000F92E981FA81938DE981FA81828D292F91
:102D5000281B822F8B830F900FBE8B810F900F90BB
:102D60000F900F900F90CF91DF910895DF93CF9345
:102D700000D00F92CDB7DEB79B838A83EA81FB81B7
:102D8000828D898389810F900F900F90CF91DF9171
:102D90000895DF93CF9300D000D0CDB7DEB79C83EA
:102DA0008B838B819C819A838983E981FA818081DD
:102DB0009181009731F0E981FA81808191810E94AF
:102DC000A70D89819A810E94A70D0F900F900F90F7
:102DD0000F90CF91DF910895DF93CF9300D000D073
:102DE00000D0CDB7DEB79B838A837D836C834E830F
:102DF0001982EA81FB81848D882399F4EA81FB8121
:102E000080819181009709F08FC0EA81FB818281E6
:102E100093810E94DD238983EA81FB8113821282E0
:102E200083C08E81882399F5EA81FB816481758155
:102E3000EA81FB81848D482F50E02C813D81CB01BC
:102E4000B9010E944F30EA81FB8124813581EA81FA
:102E5000FB81848D882F90E0820F931FEA81FB8194
:102E600095838483EA81FB8124813581EA81FB811A
:102E7000828193812817390708F456C0EA81FB81C3
:102E800080819181EA81FB81958384834DC0EA81B1
:102E9000FB8166817781EA81FB81848D482F50E038
:102EA0002C813D81CB01B9010E944F30EA81FB8129
:102EB00026813781EA81FB81848D882F90E090956F
:102EC00081959F4F820F931FEA81FB8197838683B1
:102ED000EA81FB8126813781EA81FB8180819181B2
:102EE0002817390790F4EA81FB8122813381EA8136
:102EF000FB81848D882F90E0909581959F4F820F64
:102F0000931FEA81FB81978386838E81823061F4EF
:102F1000EA81FB81828D882339F0EA81FB81828DF1
:102F20008150EA81FB81828FEA81FB81828D8F5FF4
:102F3000EA81FB81828F898126960FB6F894DEBFE5
:102F40000FBECDBFCF91DF910895DF93CF9300D017
:102F500000D0CDB7DEB79A8389837C836B83E98108
:102F6000FA81848D882389F1E981FA81268137816C
:102F7000E981FA81848D882F90E0820F931FE98187
:102F8000FA8197838683E981FA8126813781E981F5
:102F9000FA81828193812817390740F0E981FA810B
:102FA00080819181E981FA8197838683E981FA8121
:102FB00046815781E981FA81848D282F30E08B8109
:102FC0009C81BA01A9010E944F300F900F900F9081
:102FD0000F90CF91DF910895DF93CF9300D0CDB7BD
:102FE000DEB79A8389830FB6F8940F9215C0E981F2
:102FF000FA8181898823A9F089819A8141960E946A
:103000001620882311F00E946221E981FA81868DC1
:103010008150E981FA81868FE981FA81868D1816BF
:1030200034F3E981FA818FEF868F0F900FBE0FB6D0
:10303000F8940F9215C0E981FA8180858823A9F060
:1030400089819A8108960E941620882311F00E9497
:103050006221E981FA81858D8150E981FA81858F2C
:10306000E981FA81858D181634F3E981FA818FEFB1
:10307000858F0F900FBE0F900F90CF91DF91089525
:10308000DF93CF9300D00F92CDB7DEB79B838A83B7
:103090000FB6F8940F92EA81FB81828D882319F490
:1030A00081E0898301C019820F900FBE89810F9042
:1030B0000F900F90CF91DF910895DF93CF9300D0C1
:1030C0000F92CDB7DEB79B838A83EA81FB81828D25
:1030D000882319F481E0898301C0198289810F90C6
:1030E0000F900F90CF91DF910895DF93CF9300D091
:1030F0000F92CDB7DEB79B838A830FB6F8940F92F9
:10310000EA81FB81928DEA81FB81838D981719F406
:1031100081E0898301C019820F900FBE89810F90D1
:103120000F900F90CF91DF910895DF93CF9300D050
:103130000F92CDB7DEB79B838A83EA81FB81928DA4
:10314000EA81FB81838D981719F481E0898301C09E
:10315000198289810F900F900F90CF91DF91089580
:10316000DF93CF93CDB7DEB72A970FB6F894DEBFC3
:103170000FBECDBF9D838C837F836E835987488725
:103180008C819D819A838983F89489819A810E9498
:1031900075188823A9F088859985009771F0898131
:1031A0009A819C01285F3F4F88859985B9010E94CB
:1031B000CD0778948CEF8A872AC078941A8627C026
:1031C0007894F894E981FA81928DE981FA81838D6E
:1031D0009817C8F489819A812E813F81B90140E016
:1031E0000E94EC1681E08B83E981FA818189882332
:1031F00059F089819A8141960E94D909882321F04A
:103200008BEF8B8301C01B8278948B818A878A85A0
:103210002A960FB6F894DEBF0FBECDBFCF91DF91D7
:103220000895DF93CF93CDB7DEB72A970FB6F89402
:10323000DEBF0FBECDBF9D838C837F836E83598796
:1032400048878C819D819A838983F894E981FA81EA
:10325000828D8823A9F488859985009771F08981EA
:103260009A819C012F5E3F4F88859985B9010E9404
:10327000CD0778948CEF8A8758C078941A8655C009
:103280007894F894E981FA81828D882309F449C001
:10329000E981FA8126813781E981FA81848D882F3D
:1032A00090E0820F931FE981FA8197838683E981F9
:1032B000FA8126813781E981FA81828193812817F9
:1032C000390740F0E981FA8180819181E981FA81B1
:1032D00097838683E981FA81828D8150E981FA8121
:1032E000828FE981FA8146815781E981FA81848D53
:1032F000282F30E08E819F81BA01A9010E944F30B2
:1033000081E08B83E981FA818085882359F0898166
:103310009A8108960E94D909882321F08BEF8B832C
:1033200001C01B8278948B818A878A852A960FB682
:10333000F894DEBF0FBECDBFCF91DF910895DF932C
:10334000CF93CDB7DEB728970FB6F894DEBF0FBE88
:10335000CDBF9C838B837E836D834F838B819C81C8
:103360009A838983E981FA81928DE981FA81838D3B
:103370009817D0F489819A812D813E81B90140E06E
:103380000E94EC168F81882379F4E981FA81818982
:10339000882351F089819A8141960E94D909882316
:1033A00019F081E0888702C08F81888788852896F8
:1033B0000FB6F894DEBF0FBECDBFCF91DF91089559
:1033C000DF93CF93CDB7DEB729970FB6F894DEBF62
:1033D0000FBECDBF9D838C837F836E8359874887C3
:1033E0008C819D819A838983E981FA81828D8823EA
:1033F00009F450C0E981FA8126813781E981FA8197
:10340000848D882F90E0820F931FE981FA81978342
:103410008683E981FA8126813781E981FA81828177
:1034200093812817390740F0E981FA8180819181E1
:10343000E981FA8197838683E981FA81828D8150BF
:10344000E981FA81828FE981FA8146815781E98198
:10345000FA81848D282F30E08E819F81BA01A901E5
:103460000E944F30E885F9858081882381F4E981C5
:10347000FA818085882359F089819A8108960E9473
:10348000D909882321F0E885F98581E0808381E0EE
:103490008B8301C01B828B8129960FB6F894DEBF07
:1034A0000FBECDBFCF91DF910895AF92BF92CF9263
:1034B000DF92EF92FF920F931F93DF93CF93CDB7DD
:1034C000DEB764970FB6F894DEBF0FBECDBF9F8303
:1034D0008E83798768875B874A873D872C870E872D
:1034E000F88AEF86DA8AC98ABC8AAB8A8A859B8584
:1034F00029893A89B9010E94BB229C838B838B81E5
:103500009C81009709F48DC0EB81FC812789308D67
:103510008A859B850197820F931F9A8389838B816C
:103520009C8128853985EB89FC89AA85BB85B901F1
:103530004E859F018D010E947C2189819A812E8177
:103540003F814C855D85B9010E94D50FEB81FC81DF
:10355000918380838F859889009731F0EF85F88972
:103560008B819C81918380830FB6F8940F92809118
:1035700062058F5F8093620580915F059091600581
:10358000009769F48B819C819093600580935F051F
:10359000809162058130A9F40E94F62112C08091C9
:1035A0006605882371F4E0915F05F09160059689C6
:1035B0008E85891730F08B819C8190936005809374
:1035C0005F0580916A058F5F80936A05EB81FC81BE
:1035D000968980916505891728F4EB81FC8186899D
:1035E00080936505EB81FC818689282F30E0C90135
:1035F000880F991F880F991F880F991F820F931F9B
:10360000AC0144595A4F8B819C819C012E5F3F4FE6
:10361000CA01B9010E94D90E81E08D830F900FBEBF
:1036200002C08FEF8D838D81813071F480916605AA
:10363000882351F0E0915F05F091600596898E85B1
:10364000981710F40E9494118D8164960FB6F89427
:10365000DEBF0FBECDBFCF91DF911F910F91FF90C5
:10366000EF90DF90CF90BF90AF900895DF93CF930E
:1036700000D000D000D0CDB7DEB79C838B830FB6CF
:10368000F8940F928B819C81009739F480915F05AB
:10369000909160059E838D8304C08B819C819E8365
:1036A0008D838D819E819A83898389819A810296F7
:1036B0000E94890FE981FA8184899589009729F010
:1036C00089819A810C960E94890F89819A819C0137
:1036D0002E5F3F4F8FEA95E0B9010E94D90E80918D
:1036E00061058F5F8093610580916A058F5F80938C
:1036F0006A050F900FBE80916605882399F020918E
:103700005F053091600589819A818217930719F4CA
:103710000E94941107C00FB6F8940F920E941523CF
:103720000F900FBE26960FB6F894DEBF0FBECDBF2A
:10373000CF91DF910895DF93CF93CDB7DEB72A976E
:103740000FB6F894DEBF0FBECDBF98878F837A8700
:1037500069871B820E94831D809163059091640597
:103760009A838983EF81F8852081318189859A85C3
:10377000820F931F9E838D83EF81F8852081318195
:1037800089819A818217930798F4EF81F8852081C7
:1037900031818D819E8182179307E0F42D813E81D6
:1037A00089819A8182179307A8F481E08B8312C0E4
:1037B000EF81F885208131818D819E818217930769
:1037C00038F02D813E8189819A818217930710F408
:1037D00081E08B83EF81F8858D819E819183808349
:1037E0008B81882359F080915F0590916005029646
:1037F0000E94890F8D819E810E9472220E948F1DDE
:103800008C838C81882311F40E9494112A960FB620
:10381000F894DEBF0FBECDBFCF91DF910895DF9347
:10382000CF9300D000D00F92CDB7DEB79D838C83AD
:1038300019828C819D810097D1F00E94831D209177
:103840006305309164058C819D81820F931F9B835A
:103850008A8380915F059091600502960E94890F8E
:103860008A819B810E9472220E948F1D8983898197
:10387000882311F40E9494110F900F900F900F90D5
:103880000F90CF91DF910895DF93CF93CDB7DEB73F
:1038900027970FB6F894DEBF0FBECDBF9D838C83F4
:1038A0000FB6F8940F928C819D81009739F4809126
:1038B0005F05909160059F838E8304C08C819D81FC
:1038C0009F838E838E819F819B838A83EA81FB8184
:1038D000868989830F900FBE898127960FB6F89449
:1038E000DEBF0FBECDBFCF91DF910895DF93CF93A1
:1038F000CDB7DEB72A970FB6F894DEBF0FBECDBFA7
:103900009F838E83688719828885843010F083E0D6
:1039100088870FB6F8940F928E819F81009739F4B3
:1039200080915F05909160059A87898704C08E8198
:103930009F819A87898789859A859D838C83EC816D
:10394000FD8185A58B839B818885981709F48DC09F
:1039500098858B818917A0F420915F0530916005CF
:103960008C819D8182179307B1F0E0915F05F09102
:10397000600596898885891770F081E089830BC07E
:1039800020915F05309160058C819D81821793079E
:1039900011F481E08983EC81FD8186898A83EC8141
:1039A000FD8195A5EC81FD818689981721F4EC8134
:1039B000FD818885868BEC81FD81888585A7EC81DA
:1039C000FD818485958599235CF08885282F30E0DA
:1039D00084E090E0821B930BEC81FD8195878487C6
:1039E000EC81FD81428553858A81282F30E0C90111
:1039F000880F991F880F991F880F991F820F931F97
:103A000084599A4F4817590759F58C819D81029620
:103A10000E94890FEC81FD81968980916505891747
:103A200028F4EC81FD81868980936505EC81FD8118
:103A30008689282F30E0C901880F991F880F991FA8
:103A4000880F991F820F931FAC0144595A4F8C81E4
:103A50009D819C012E5F3F4FCA01B9010E94D90E82
:103A60008981813011F40E9494110F900FBE2A9623
:103A70000FB6F894DEBF0FBECDBFCF91DF91089592
:103A8000AF92BF92CF92DF92EF92FF920F93DF93AC
:103A9000CF930F92CDB7DEB78CE691E228E730E006
:103AA000B90145E550E020E030E000E0EE24FF24DD
:103AB000CC24DD24AA24BB240E94551A8983898141
:103AC000813051F4F89481E080936605109264058A
:103AD000109263050E9458110F90CF91DF910F91C2
:103AE000FF90EF90DF90CF90BF90AF900895DF935D
:103AF000CF93CDB7DEB7F894109266050E948D1172
:103B0000CF91DF910895DF93CF93CDB7DEB780914A
:103B10006B058F5F80936B05CF91DF910895DF93E5
:103B2000CF9300D00F92CDB7DEB719820FB6F894BD
:103B30000F9280916B05815080936B0580916B058E
:103B4000882309F06DC080916205882309F468C05C
:103B500045C0E091AB05F091AC05868197819B83D0
:103B60008A838A819B810C960E94890F8A819B811E
:103B700002960E94890FEA81FB81968980916505F2
:103B8000891728F4EA81FB81868980936505EA819B
:103B9000FB818689282F30E0C901880F991F880F83
:103BA000991F880F991F820F931FAC0144595A4FD8
:103BB0008A819B819C012E5F3F4FCA01B9010E94FF
:103BC000D90EEA81FB819689E0915F05F09160054D
:103BD0008689981718F081E0809368058091A60582
:103BE000882309F0B6CF80916705882389F00CC03F
:103BF0000E944E1E882319F081E080936805809111
:103C0000670581508093670580916705882381F758
:103C100080916805813021F481E089830E949411AC
:103C20000F900FBE89810F900F900F90CF91DF9171
:103C30000895DF93CF9300D0CDB7DEB70FB6F894D9
:103C40000F9280916305909164059A8389830F9008
:103C50000FBE89819A810F900F90CF91DF910895C7
:103C6000DF93CF9300D00F92CDB7DEB7198280914A
:103C70006305909164059B838A838A819B810F9061
:103C80000F900F90CF91DF910895DF93CF93CDB731
:103C9000DEB780916205CF91DF910895DF93CF93D6
:103CA000CDB7DEB729970FB6F894DEBF0FBECDBFF4
:103CB0001D8280916B05882309F0C2C08091630545
:103CC00090916405019690936405809363058091BB
:103CD0006305909164059C838B838B819C81009705
:103CE000D9F48091A2059091A3059A83898380914C
:103CF000A4059091A5059093A3058093A2058981C1
:103D00009A819093A5058093A405809169058F5FA2
:103D1000809369050E9415232091930030919400AF
:103D20008B819C818217930708F471C0E091A205F2
:103D3000F091A3058081882339F48FEF9FEF909352
:103D400094008093930063C0E091A205F091A305D5
:103D50000580F681E02D8681978199878887E8859F
:103D6000F985828193819F838E832B813C818E8113
:103D70009F812817390738F48E819F819093940092
:103D80008093930044C08885998502960E94890F8C
:103D9000E885F98584899589009729F08885998532
:103DA0000C960E94890FE885F985968980916505B2
:103DB000891728F4E885F985868980936505E88563
:103DC000F9858689282F30E0C901880F991F880F4F
:103DD000991F880F991F820F931FAC0144595A4FA6
:103DE000888599859C012E5F3F4FCA01B9010E94C9
:103DF000D90EE885F9859689E0915F05F091600517
:103E00008689981708F492CF81E08D838FCFE09157
:103E10005F05F09160058689282F30E0C901880F81
:103E2000991F880F991F880F991F820F931FFC01FC
:103E3000E459FA4F8081823040F081E08D8305C0E3
:103E4000809167058F5F809367058091680588235F
:103E500011F081E08D838D8129960FB6F894DEBF35
:103E60000FBECDBFCF91DF910895DF93CF9300D0E8
:103E7000CDB7DEB780916B05882321F081E0809378
:103E8000680557C01092680505C08091650581508E
:103E90008093650580916505282F30E0C901880F62
:103EA000991F880F991F880F991F820F931FFC017C
:103EB000E459FA4F8081882341F380916505282FCA
:103EC00030E0C901880F991F880F991F880F991F2B
:103ED000820F931F84599A4F9A838983E981FA81CB
:103EE0000180F281E02D82819381E981FA819283C0
:103EF0008183E981FA812181328189819A810396C6
:103F00002817390759F4E981FA810180F281E02DFF
:103F100082819381E981FA8192838183E981FA81A7
:103F20000180F281E02D86819781909360058093D6
:103F30005F050F900F90CF91DF910895DF93CF939E
:103F400000D000D000D0CDB7DEB79C838B837E83BA
:103F50006D8380915F05909160059C01245F3F4FC8
:103F60008B819C81B9010E941D0F80915F0590910A
:103F7000600502960E94890F2091630530916405C7
:103F80008D819E81820F931F9A83898389819A8173
:103F90000E94722226960FB6F894DEBF0FBECDBFE8
:103FA000CF91DF910895DF93CF93CDB7DEB72897F8
:103FB0000FB6F894DEBF0FBECDBF9C838B837E838C
:103FC0006D8358874F83E0915F05F09160058D8187
:103FD0009E8190689587848780915F0590916005A8
:103FE0009C01245F3F4F8B819C81B9010E94D90EB7
:103FF00080915F059091600502960E94890F209143
:104000006305309164058F819885820F931F9A8391
:10401000898389819A810E94722228960FB6F8942A
:10402000DEBF0FBECDBFCF91DF910895DF93CF9359
:1040300000D000D00F92CDB7DEB79D838C83EC818A
:10404000FD810580F681E02D868197819B838A839F
:104050008A819B810C960E94890F80916B05882331
:1040600061F58A819B8102960E94890FEA81FB811A
:10407000968980916505891728F4EA81FB818689F4
:1040800080936505EA81FB818689282F30E0C9018C
:10409000880F991F880F991F880F991F820F931FF0
:1040A000AC0144595A4F8A819B819C012E5F3F4F3E
:1040B000CA01B9010E94D90E0AC08A819B819C0164
:1040C000245F3F4F86EA95E0B9010E94D90EEA814C
:1040D000FB819689E0915F05F091600586898917DB
:1040E00030F481E0898381E08093680501C0198202
:1040F00089810F900F900F900F900F90CF91DF91CB
:104100000895DF93CF93CDB7DEB727970FB6F89416
:10411000DEBF0FBECDBF9D838C837F836E838E8178
:104120009F819068EC81FD8191838083EC81FD818A
:10413000868197819B838A838C819D810E94890FD0
:104140008A819B8102960E94890FEA81FB81968970
:1041500080916505891728F4EA81FB81868980931F
:104160006505EA81FB818689282F30E0C901880F27
:10417000991F880F991F880F991F820F931FAC01F9
:1041800044595A4F8A819B819C012E5F3F4FCA013F
:10419000B9010E94D90EEA81FB819689E0915F0501
:1041A000F09160058689891730F481E0898381E088
:1041B0008093680501C01982898127960FB6F8940B
:1041C000DEBF0FBECDBFCF91DF910895DF93CF93B8
:1041D00000D0CDB7DEB79A83898380916905E981E4
:1041E000FA8180838091630590916405E981FA8169
:1041F000928381830F900F90CF91DF910895DF9389
:10420000CF93CDB7DEB727970FB6F894DEBF0FBEBA
:10421000CDBF9D838C837F836E830FB6F8940F92FE
:1042200080916305909164059A838983EC81FD8177
:10423000908180916905981761F0EC81FD81218161
:10424000328189819A818217930718F081E08B83EC
:104250002DC0EC81FD812181328189819A81AC015F
:10426000421B530B9A01EE81FF81808191812817B7
:104270003907D0F4EE81FF8140815181EC81FD81CD
:104280002181328189819A81B901681B790BCB0127
:10429000840F951FEE81FF81918380838C819D81A6
:1042A0000E94E6201B8202C081E08B830F900FBE2C
:1042B0008B8127960FB6F894DEBF0FBECDBFCF918E
:1042C000DF910895DF93CF93CDB7DEB781E0809380
:1042D0006805CF91DF910895DF93CF9300D0CDB7DC
:1042E000DEB79A8389830E94332280916C058230E5
:1042F000D0F30E949411F7CF0F931F93DF93CF93C6
:10430000CDB7DEB72A970FB6F894DEBF0FBECDBF8C
:104310009B838A837D836C834E8338872F831A87A0
:104320000987198221C08981482F50E08981282F6F
:1043300030E08C819D81FC01E20FF31F20818A8196
:104340009B81840F951FFC01799620838981282FFA
:1043500030E08C819D81FC01E20FF31F8081882376
:1043600031F089818F5F898389818431E0F2EA812C
:10437000FB8114A68E81843010F083E08E83EA8165
:10438000FB818E81868BEA81FB818E8185A7EA8104
:10439000FB8116A68A819B8102960E94C90E8A81A2
:1043A0009B810C960E94C90EEA81FB818A819B81C8
:1043B000918780878E81282F30E084E090E0821BF7
:1043C000930BEA81FB8195878487EA81FB818A814F
:1043D0009B81938B828B2A960FB6F894DEBF0FBE1B
:1043E000CDBFCF91DF911F910F910895DF93CF93B0
:1043F0000F92CDB7DEB7198213C08981282F30E024
:10440000C901880F991F880F991F880F991F820F64
:10441000931F84599A4F0E949F0E89818F5F8983D1
:104420008981843050F380E995E00E949F0E89E9EC
:1044300095E00E949F0E86EA95E00E949F0E8FEA0B
:1044400095E00E949F0E80E995E09093A3058093EC
:10445000A20589E995E09093A5058093A4050F90A6
:10446000CF91DF910895DF93CF9300D00F92CDB716
:10447000DEB72EC00E94831D8091AF051B8288236A
:1044800011F481E08B830E948F1D8B81882301F5BD
:104490000FB6F8940F92E091B405F091B5058681BE
:1044A00097819A83898389819A8102960E94890FD4
:1044B00080916205815080936205809161058150F1
:1044C000809361050F900FBE89819A810E94FF221F
:1044D00080916105882371F60F900F900F90CF9116
:1044E000DF910895DF93CF9300D0CDB7DEB79A83E5
:1044F0008983E0915F05F091600589819A819383BA
:104500008283209163053091640589819A818217A5
:10451000930770F48091A4059091A50520915F0503
:10452000309160052E5F3F4FB9010E941D0F1EC0E4
:104530004091A2055091A30580915F05909160057F
:104540009C012E5F3F4FCA01B9010E941D0F2091AF
:1045500093003091940089819A818217930730F4F7
:1045600089819A8190939400809393000F900F908B
:10457000CF91DF910895DF93CF93CDB7DEB7289722
:104580000FB6F894DEBF0FBECDBF9C838B837E83B6
:104590006D838FE290E00E94510D9A838983898117
:1045A0009A81009709F18D819E81009739F48B8162
:1045B0009C810E94510D98878F8304C08D819E81BC
:1045C00098878F83E981FA818F819885908F878B77
:1045D000E981FA818789908D009731F489819A81E8
:1045E0000E94A70D1A82198289819A8128960FB696
:1045F000F894DEBF0FBECDBFCF91DF910895DF935A
:10460000CF9300D0CDB7DEB79A838983E981FA8151
:104610008789908D0E94A70D89819A810E94A70D9C
:104620000F900F90CF91DF910895DF93CF9300D03B
:10463000CDB7DEB7E091A205F091A3058081882374
:1046400039F48FEF9FEF909394008093930013C001
:10465000E091A205F091A3050580F681E02D868109
:1046600097819A838983E981FA81828193819093EA
:104670009400809393000F900F90CF91DF91089555
:10468000DF93CF9300D0CDB7DEB780915F059091D7
:1046900060059A83898389819A810F900F90CF91C9
:1046A000DF910895DF93CF9300D000D0CDB7DEB770
:1046B0009C838B838B819C819A8389838B819C8152
:1046C000009709F473C0E981FA819689E0915F054A
:1046D000F09160058689981708F068C0E981FA8131
:1046E0008485958599237CF0E0915F05F0916005C4
:1046F0008689282F30E084E090E0821B930BE981CB
:10470000FA8195878487E981FA8142855385E98119
:10471000FA818689282F30E0C901880F991F880FF8
:10472000991F880F991F820F931F84599A4F48171A
:104730005907A1F589819A8102960E94890FE0911B
:104740005F05F09160058689E981FA81868BE981B0
:10475000FA81968980916505891728F4E981FA81A3
:10476000868980936505E981FA818689282F30E062
:10477000C901880F991F880F991F880F991F820FF1
:10478000931FAC0144595A4F89819A819C012E5F35
:104790003F4FCA01B9010E94D90E08C0E0915F05E0
:1047A000F09160058689E981FA81868B0F900F90E0
:1047B0000F900F90CF91DF910895DF93CF9300D0AA
:1047C00000D00F92CDB7DEB79D838C838C819D8105
:1047D0009B838A8319828C819D81009709F456C03E
:1047E000EA81FB8186A58150EA81FB8186A7EA8167
:1047F000FB819689EA81FB8185A5981709F446C05B
:10480000EA81FB8186A5882309F040C08A819B81CB
:1048100002960E94890FEA81FB8185A5EA81FB81CE
:10482000868BEA81FB818689282F30E084E090E046
:10483000821B930BEA81FB8195878487EA81FB8148
:10484000968980916505891728F4EA81FB8186891C
:1048500080936505EA81FB818689282F30E0C901B4
:10486000880F991F880F991F880F991F820F931F18
:10487000AC0144595A4F8A819B819C012E5F3F4F66
:10488000CA01B9010E94D90E81E0898389810F9004
:104890000F900F900F900F90CF91DF910895DF93BD
:1048A000CF9300D0CDB7DEB7E0915F05F091600502
:1048B000848595859A838983A0915F05B091600571
:1048C000E0915F05F09160058689282F30E084E053
:1048D00090E0821B930B1D969C938E931C9789816D
:1048E0009A810F900F90CF91DF910895DF93CF932E
:1048F000CDB7DEB780915F0590916005009739F0E4
:10490000E0915F05F091600586A58F5F86A7809195
:104910005F0590916005CF91DF910895DF93CF936C
:10492000CDB7DEB7A6E2B0E0E6E2F0E080818160DC
:104930008C93A6E2B0E0E6E2F0E0808182608C93A6
:10494000A6E2B0E0E6E2F0E0808184608C93A7E22A
:10495000B0E0E7E2F0E0808180648C93A7E2B0E011
:10496000E7E2F0E080818F778C93A6E2B0E0E6E2A8
:10497000F0E0808180688C93CF91DF910895DF9380
:10498000CF930F92CDB7DEB78983A7E2B0E0E7E21D
:10499000F0E08081807E8C93A7E2B0E0E7E2F0E077
:1049A00090818981892B8C93A6E2B0E0E6E2F0E069
:1049B000808180648C93E6E2F0E0808182958F7044
:1049C000882F90E0817090708823A9F7A6E2B0E06C
:1049D000E6E2F0E0808180618C93E4E2F0E08081A7
:1049E00091810F90CF91DF910895DF93CF93CDB751
:1049F000DEB7A4E3B0E0E4E3F0E080818C618C9367
:104A0000A5E3B0E0E5E3F0E080818C618C93A1E365
:104A1000B0E0E1E3F0E080818F718C93A2E3B0E03D
:104A2000E2E3F0E08081806E8C93CF91DF91089576
:104A3000DF93CF9300D00F92CDB7DEB71A821982E1
:104A4000A5E3B0E0E5E3F0E080818C618C931A820D
:104A500079C0A5E3B0E0E5E3F0E08081482F8A81EA
:104A6000882F90E09C012E5F3F4F81E090E0022E66
:104A700002C0880F991F0A94E2F7809584238C93D3
:104A8000198243C0E0E3F0E08081282F30E0898183
:104A9000882F90E00596A90102C0559547958A9503
:104AA000E2F7CA0181709070009761F504C082E35B
:104AB00090E00E940F1CE0E3F0E08081282F30E0BE
:104AC0008981882F90E00596A90102C055954795E8
:104AD0008A95E2F7CA0181709070009741F38A814C
:104AE000282F30E08981482F50E0C901880F991F95
:104AF000820F931F840F951FFC01EB56FF4F5081CF
:104B00005B8325C089818F5F89838981833008F425
:104B1000B9CFA5E3B0E0E5E3F0E08081482F8A81DA
:104B2000882F90E09C012E5F3F4F81E090E0022EA5
:104B300002C0880F991F0A94E2F7842B8C938A8114
:104B40008F5F8A838A81833008F483CF1B828B81B5
:104B50000F900F900F90CF91DF910895DF93CF9337
:104B600000D000D0CDB7DEB71C821B821A8219821A
:104B70001A8260C0A5E3B0E0E5E3F0E08081482F51
:104B80008A81282F30E081E090E0022E02C0880F59
:104B9000991F0A94E2F7809584238C93198231C07F
:104BA000E0E3F0E08081282F30E08981882F90E0D9
:104BB0000396A90102C0559547958A95E2F7CA0167
:104BC000817090700097D1F48981282F30E08A811C
:104BD000882F90E0880F991F880F991F280F391F81
:104BE00081E090E002C0880F991F2A95E2F79C01AE
:104BF0008B819C81822B932B9C838B8389818F5FFC
:104C000089838981833060F2A5E3B0E0E5E3F0E0D9
:104C10008081482F8A81282F30E081E090E0022EA9
:104C200002C0880F991F0A94E2F7842B8C938A8123
:104C30008F5F8A838A81833008F49CCF8B819C812B
:104C40000F900F900F900F90CF91DF910895DF9309
:104C5000CF93CDB7DEB768970FB6F894DEBF0FBE1F
:104C6000CDBFABE3B0E0EBE3F0E0808184608C93F8
:104C700080E090E0A0E8BFE38D8B9E8BAF8BB88F78
:104C80006D897E898F89988D2BEA3AEA4AEA50E449
:104C90000E941F02DC01CB01898B9A8BAB8BBC8BF2
:104CA00069897A898B899C8920E030E040E85FE35C
:104CB0000E94250488231CF481E0888B91C06989B7
:104CC0007A898B899C8920E030E04FE753E40E9489
:104CD000C50318160CF07BC06D897E898F89988D6D
:104CE00020E030E04AE754E40E941903DC01CB01E4
:104CF0008C879D87AE87BF876C857D858E859F85D8
:104D000020E030E04AE755E40E941F02DC01CB01BD
:104D100088879987AA87BB87688579858A859B85D7
:104D200020E030E040E85FE30E94250488232CF473
:104D300081E090E09F838E833FC0688579858A8576
:104D40009B8520E03FEF4FE757E40E94C50318160C
:104D50004CF56C857D858E859F8520E030E040E2B6
:104D600051E40E941F02DC01CB01BC01CD010E9475
:104D70004900DC01CB019F838E830FC080E991E065
:104D80009D838C838C819D810197F1F79D838C831A
:104D90008E819F8101979F838E838E819F81009753
:104DA00069F724C0688579858A859B850E944900BA
:104DB000DC01CB019F838E838E819F819B838A83BD
:104DC0008A819B810197F1F79B838A830FC0698950
:104DD0007A898B899C890E944900DC01CB01888BF0
:104DE0008889898389818A95F1F78983ABE3B0E06B
:104DF000EBE3F0E080818B7F8C9368960FB6F8949C
:104E0000DEBF0FBECDBFCF91DF910895DF93CF936B
:104E1000CDB7DEB769970FB6F894DEBF0FBECDBF32
:104E2000898FABE3B0E0EBE3F0E08081877F8C9388
:104E3000A8E3B0E0E8E3F0E08081887F8C93A8E30A
:104E4000B0E0E8E3F0E08081982F898D82958F7043
:104E50008770892B8C93A8E3B0E0E8E3F0E08081D1
:104E60008F7E8C93A8E3B0E0E8E3F0E08081282F08
:104E7000898D82958F70882F90E0880F991F80719F
:104E8000822B8C930E942726A8E3B0E0E8E3F0E0B1
:104E90008081887F8C93A8E3B0E0E8E3F0E0808134
:104EA000982F898D8770892B8C93A8E3B0E0E8E375
:104EB000F0E080818F7E8C93A8E3B0E0E8E3F0E03F
:104EC0008081282F898D882F90E0880F991F80710D
:104ED000822B8C930E94272680E090E0A0E2B2E42F
:104EE0008D8B9E8BAF8BB88F6D897E898F89988DC6
:104EF0002BEA3AEA4AEA50E40E941F02DC01CB01A5
:104F0000898B9A8BAB8BBC8B69897A898B899C89BD
:104F100020E030E040E85FE30E94250488231CF491
:104F200081E0888B91C069897A898B899C8920E08E
:104F300030E04FE753E40E94C50318160CF07BC025
:104F40006D897E898F89988D20E030E04AE754E4AE
:104F50000E941903DC01CB018C879D87AE87BF8738
:104F60006C857D858E859F8520E030E04AE755E49D
:104F70000E941F02DC01CB0188879987AA87BB8723
:104F8000688579858A859B8520E030E040E85FE38D
:104F90000E94250488232CF481E090E09F838E8377
:104FA0003FC0688579858A859B8520E03FEF4FE784
:104FB00057E40E94C50318164CF56C857D858E85D7
:104FC0009F8520E030E040E251E40E941F02DC01B6
:104FD000CB01BC01CD010E944900DC01CB019F83C4
:104FE0008E830FC080E991E09D838C838C819D81AD
:104FF0000197F1F79D838C838E819F8101979F8319
:105000008E838E819F81009769F724C0688579859A
:105010008A859B850E944900DC01CB019F838E839A
:105020008E819F819B838A838A819B810197F1F77F
:105030009B838A830FC069897A898B899C890E94A6
:105040004900DC01CB01888B8889898389818A9515
:10505000F1F7898369960FB6F894DEBF0FBECDBF16
:10506000CF91DF910895DF93CF93CDB7DEB76997E6
:105070000FB6F894DEBF0FBECDBF898FABE3B0E0B3
:10508000EBE3F0E0808188608C93A8E3B0E0E8E394
:10509000F0E08081887F8C93A8E3B0E0E8E3F0E063
:1050A0008081982F898D82958F708770892B8C9342
:1050B000A8E3B0E0E8E3F0E080818F7E8C93A8E382
:1050C000B0E0E8E3F0E08081282F898D82958F7031
:1050D000882F90E0880F991F8071822B8C930E94FB
:1050E0002726A8E3B0E0E8E3F0E08081887F8C9396
:1050F000A8E3B0E0E8E3F0E08081982F898D877025
:10510000892B8C93A8E3B0E0E8E3F0E080818F7E08
:105110008C93A8E3B0E0E8E3F0E08081282F898D4C
:10512000882F90E0880F991F8071822B8C930E94AA
:10513000272680E090E0A0E2B2E48D8B9E8BAF8BBF
:10514000B88F6D897E898F89988D2BEA3AEA4AEA71
:1051500050E40E941F02DC01CB01898B9A8BAB8B40
:10516000BC8B69897A898B899C8920E030E040E892
:105170005FE30E94250488231CF481E0888B91C0A2
:1051800069897A898B899C8920E030E04FE753E474
:105190000E94C50318160CF07BC06D897E898F892B
:1051A000988D20E030E04AE754E40E941903DC01C6
:1051B000CB018C879D87AE87BF876C857D858E856B
:1051C0009F8520E030E04AE755E40E941F02DC01A1
:1051D000CB0188879987AA87BB87688579858A8567
:1051E0009B8520E030E040E85FE30E9425048823AF
:1051F0002CF481E090E09F838E833FC068857985A1
:105200008A859B8520E03FEF4FE757E40E94C50366
:1052100018164CF56C857D858E859F8520E030E0E5
:1052200040E251E40E941F02DC01CB01BC01CD0130
:105230000E944900DC01CB019F838E830FC080E96F
:1052400091E09D838C838C819D810197F1F79D83F3
:105250008C838E819F8101979F838E838E819F8116
:10526000009769F724C0688579858A859B850E94A7
:105270004900DC01CB019F838E838E819F819B83BC
:105280008A838A819B810197F1F79B838A830FC070
:1052900069897A898B899C890E944900DC01CB014C
:1052A000888B8889898389818A95F1F789836996B2
:1052B0000FB6F894DEBF0FBECDBFCF91DF9108953A
:1052C000DF93CF9300D0CDB7DEB789836A8389811E
:1052D000882F90E0019600249695879507949695DF
:1052E00087950794982F802D982F8A81890F815058
:1052F0000E9406270F900F90CF91DF910895DF93C2
:10530000CF93CDB7DEB72E970FB6F894DEBF0FBEA2
:10531000CDBF82E00E94062780E090E0A0EAB0E4E2
:105320008B879C87AD87BE876B857C858D859E85A9
:1053300020E030E04AE755E40E941F02DC01CB0187
:105340008F839887A987BA876F81788589859A85A1
:1053500020E030E040E85FE30E94250488232CF43D
:1053600081E090E09E838D833FC06F817885898541
:105370009A8520E03FEF4FE757E40E94C5031816D7
:105380004CF56B857C858D859E8520E030E040E284
:1053900051E40E941F02DC01CB01BC01CD010E943F
:1053A0004900DC01CB019E838D830FC080E991E031
:1053B0009C838B838B819C810197F1F79C838B83EA
:1053C0008D819E8101979E838D838D819E81009723
:1053D00069F714C06F81788589859A850E94490094
:1053E000DC01CB019E838D838D819E819A8389838D
:1053F00089819A810197F1F79A8389832E960FB656
:10540000F894DEBF0FBECDBFCF91DF910895DF933B
:10541000CF93CDB7DEB72E970FB6F894DEBF0FBE91
:10542000CDBF81E00E94062780E090E0A0EAB0E4D2
:105430008B879C87AD87BE876B857C858D859E8598
:1054400020E030E04AE755E40E941F02DC01CB0176
:105450008F839887A987BA876F81788589859A8590
:1054600020E030E040E85FE30E94250488232CF42C
:1054700081E090E09E838D833FC06F817885898530
:105480009A8520E03FEF4FE757E40E94C5031816C6
:105490004CF56B857C858D859E8520E030E040E273
:1054A00051E40E941F02DC01CB01BC01CD010E942E
:1054B0004900DC01CB019E838D830FC080E991E020
:1054C0009C838B838B819C810197F1F79C838B83D9
:1054D0008D819E8101979E838D838D819E81009712
:1054E00069F714C06F81788589859A850E94490083
:1054F000DC01CB019E838D838D819E819A8389837C
:1055000089819A810197F1F79A8389832E960FB644
:10551000F894DEBF0FBECDBFCF91DF910895DF932A
:10552000CF93CDB7DEB72E970FB6F894DEBF0FBE80
:10553000CDBFA7E3B0E0E7E3F0E0808187608C9324
:10554000A7E3B0E0E7E3F0E0808180618C93AAE319
:10555000B0E0EAE3F0E0808188608C93AAE3B0E0F9
:10556000EAE3F0E0808184608C9380E090E0A0EA40
:10557000B1E48B879C87AD87BE876B857C858D85E5
:105580009E8520E030E04AE755E40E941F02DC01DE
:10559000CB018F839887A987BA876F8178858985A2
:1055A0009A8520E030E040E85FE30E9425048823EC
:1055B0002CF481E090E09E838D833FC06F817885DD
:1055C00089859A8520E03FEF4FE757E40E94C503A5
:1055D00018164CF56B857C858D859E8520E030E026
:1055E00040E251E40E941F02DC01CB01BC01CD016D
:1055F0000E944900DC01CB019E838D830FC080E9AE
:1056000091E09C838B838B819C810197F1F79C8334
:105610008B838D819E8101979E838D838D819E8159
:10562000009769F714C06F81788589859A850E94F3
:105630004900DC01CB019E838D838D819E819A83FD
:10564000898389819A810197F1F79A8389830E94DE
:105650007F2988E20E9406278CE00E94062786E0C8
:105660000E9406270E94072A2E960FB6F894DEBFE6
:105670000FBECDBFCF91DF910895DF93CF930F92EF
:10568000CDB7DEB7898389810E9433280F90CF91EF
:10569000DF910895DF93CF9300D00F92CDB7DEB79F
:1056A00089836A834B8389816A810E9460298B8107
:1056B0000E943D2B0F900F900F90CF91DF91089596
:1056C000DF93CF9300D00F92CDB7DEB79B838A8351
:1056D00019820EC08981282F30E08A819B81FC01CC
:1056E000E20FF31F80810E943D2B89818F5F8983A8
:1056F0008981282F30E08A819B81FC01E20FF31F12
:105700008081882339F70F900F900F90CF91DF9110
:105710000895DF93CF9300D000D0CDB7DEB7898353
:105720006A835C834B8389816A810E9460298B81B3
:105730009C810E94602B0F900F900F900F90CF9143
:10574000DF910895DF93CF93CDB7DEB72F970FB6D4
:10575000F894DEBF0FBECDBF6C877D878E879F8795
:105760008BE0FE013196DF01982F1D929A95E9F7A3
:10577000ADB7BEB718970FB6F894BEBF0FBEADBF9A
:10578000EDB7FEB73196CE010196918380838DE708
:1057900090E0938382838C859D85AE85BF858483CD
:1057A0009583A683B7830E9458308DB79EB708961D
:1057B0000FB6F8949EBF0FBE8DBFCE0101960E941A
:1057C000602B2F960FB6F894DEBF0FBECDBFCF91E2
:1057D000DF910895DF93CF93CDB7DEB72F970FB644
:1057E000F894DEBF0FBECDBF6C877D878E879F8705
:1057F0008BE0FE013196DF01982F1D929A95E9F713
:10580000ADB7BEB718970FB6F894BEBF0FBEADBF09
:10581000EDB7FEB73196CE0101969183808380E883
:1058200090E0938382838C859D85AE85BF8584833C
:105830009583A683B7830E9458308DB79EB708968C
:105840000FB6F8949EBF0FBE8DBFCE0101960E9489
:10585000602B2F960FB6F894DEBF0FBECDBFCF9151
:10586000DF910895DF93CF9300D000D000D0CDB763
:10587000DEB789836A832B833C834D835E83898172
:105880006A810E9460298B819C81AD81BE81BC01AF
:10589000CD010E94EA2B26960FB6F894DEBF0FBE0C
:1058A000CDBFCF91DF910895DF93CF9300D000D08B
:1058B00000D0CDB7DEB789836A832B833C834D83C9
:1058C0005E8389816A810E9460298B819C81AD8180
:1058D000BE81BC01CD010E94A22B26960FB6F89482
:1058E000DEBF0FBECDBFCF91DF910895DF93CF9381
:1058F000CDB7DEB72E970FB6F894DEBF0FBECDBF83
:1059000088E70E9406278FE10E9433288FE10E94DA
:1059100033288FE10E94332880E00E9433288FE1F2
:105920000E9433288FE10E9433288FE10E943328A0
:1059300080E00E94332880E090E0A0E2B1E48B8711
:105940009C87AD87BE876B857C858D859E8520E095
:1059500030E04AE755E40E941F02DC01CB018F834F
:105960009887A987BA876F81788589859A8520E08D
:1059700030E040E85FE30E94250488232CF481E0B6
:1059800090E09E838D833FC06F81788589859A855D
:1059900020E03FEF4FE757E40E94C50318164CF58F
:1059A0006B857C858D859E8520E030E040E251E46A
:1059B0000E941F02DC01CB01BC01CD010E94490005
:1059C000DC01CB019E838D830FC080E991E09C8335
:1059D0008B838B819C810197F1F79C838B838D81D5
:1059E0009E8101979E838D838D819E81009769F7AB
:1059F00014C06F81788589859A850E944900DC01F1
:105A0000CB019E838D838D819E819A838983898139
:105A10009A810197F1F79A83898381E061E00E947E
:105A200060292E960FB6F894DEBF0FBECDBFCF9182
:105A3000DF910895DF93CF930F92CDB7DEB78983BF
:105A4000AAE3B0E0EAE3F0E08081482F8981282FC3
:105A500030E081E090E002C0880F991F2A95E2F7BC
:105A6000842B8C9389810E94562D0F90CF91DF91CA
:105A70000895DF93CF930F92CDB7DEB78983ABE361
:105A8000B0E0EBE3F0E08081482F8981282F30E0FF
:105A900081E090E0022E02C0880F991F0A94E2F77D
:105AA000842B8C930F90CF91DF910895DF93CF9348
:105AB0000F92CDB7DEB78983ABE3B0E0EBE3F0E064
:105AC0008081482F8981282F30E081E090E0022EEC
:105AD00002C0880F991F0A94E2F7809584238C9363
