:100000000C9434000C9453040C9486040C94460015
:100010000C9446000C9446000C9446000C94460048
:100020000C9446000C9446000C9446000C94460038
:100030000C9446000C9446000C9446000C94460028
:100040000C9446000C9446000C9446000C94460018
:100050000C9446000C9446000C9446000C94460008
:100060000C9446000C94460011241FBECFEFD8E03C
:10007000DEBFCDBF11E0A0E0B1E001C01D92A43011
:10008000B107E1F70E94FB050C9418060C940000E0
:10009000DF93CF93CDB7DEB7E4E2F0E080E2808378
:1000A000E7E2F0E01082EAE2F0E01082E5E2F0E060
:1000B00080E28083E8E2F0E01082EBE2F0E084E0AE
:1000C0008083CF91DF910895DF93CF93CDB7DEB7D3
:1000D0002C970FB6F894DEBF0FBECDBF8A836B831B
:1000E0004C8381E089838A81833008F0C8C08B818A
:1000F000883008F0C4C08C81882321F08C81813045
:1001000009F0BDC08A81282F30E03C872B878B8582
:100110009C858130910509F443C02B853C852230B4
:10012000310509F475C08B859C85009709F0A8C03E
:100130008C81282F30E03A87298789859A85009716
:10014000D1F029853A852130310509F099C0A4E222
:10015000B0E0E4E2F0E08081482F8B81282F30E08E
:1001600081E090E0022E02C0880F991F0A94E2F706
:10017000842B8C9385C0A4E2B0E0E4E2F0E08081BF
:10018000482F8B81282F30E081E090E0022E02C0C2
:10019000880F991F0A94E2F7809584238C9370C08E
:1001A0008C81282F30E038872F838F8198850097A6
:1001B000D1F02F8138852130310509F061C0A7E2E7
:1001C000B0E0E7E2F0E08081482F8B81282F30E01B
:1001D00081E090E0022E02C0880F991F0A94E2F796
:1001E000842B8C934DC0A7E2B0E0E7E2F0E0808181
:1001F000482F8B81282F30E081E090E0022E02C052
:10020000880F991F0A94E2F7809584238C9338C055
:100210008C81282F30E03E832D838D819E81009735
:10022000C9F02D813E812130310551F5AAE2B0E0BF
:10023000EAE2F0E08081482F8B81282F30E081E0D6
:1002400090E0022E02C0880F991F0A94E2F7842BD7
:100250008C9316C0AAE2B0E0EAE2F0E08081482F79
:100260008B81282F30E081E090E0022E02C0880FC1
:10027000991F0A94E2F7809584238C9301C0198218
:1002800089812C960FB6F894DEBF0FBECDBFCF91FB
:10029000DF910895DF93CF93CDB7DEB72C970FB6DC
:1002A000F894DEBF0FBECDBF8A836B834C8381E0A1
:1002B00089838A81833008F0C8C08B81883008F038
:1002C000C4C08C81813021F08C81882309F0BDC0AD
:1002D0008A81282F30E03C872B878B859C85813055
:1002E000910509F443C02B853C852230310509F482
:1002F00075C08B859C85009709F0A8C08C81282F3C
:1003000030E03A87298789859A850097D1F0298539
:100310003A852130310509F099C0A5E2B0E0E5E267
:10032000F0E08081482F8B81282F30E081E090E041
:10033000022E02C0880F991F0A94E2F7842B8C9337
:1003400085C0A5E2B0E0E5E2F0E08081482F8B8136
:10035000282F30E081E090E0022E02C0880F991F24
:100360000A94E2F7809584238C9370C08C81282FA7
:1003700030E038872F838F8198850097D1F02F81C7
:1003800038852130310509F061C0A8E2B0E0E8E22B
:10039000F0E08081482F8B81282F30E081E090E0D1
:1003A000022E02C0880F991F0A94E2F7842B8C93C7
:1003B0004DC0A8E2B0E0E8E2F0E08081482F8B81F8
:1003C000282F30E081E090E0022E02C0880F991FB4
:1003D0000A94E2F7809584238C9338C08C81282F6F
:1003E00030E03E832D838D819E810097C9F02D8161
:1003F0003E812130310551F5ABE2B0E0EBE2F0E0B7
:100400008081482F8B81282F30E081E090E0022E00
:1004100002C0880F991F0A94E2F7842B8C9316C0B0
:10042000ABE2B0E0EBE2F0E08081482F8B81282F37
:1004300030E081E090E0022E02C0880F991F0A94FC
:10044000E2F7809584238C9301C0198289812C96D0
:100450000FB6F894DEBF0FBECDBFCF91DF910895E8
:10046000DF93CF9300D000D00F92CDB7DEB78A8351
:100470006B8381E089838A81833008F053C08B814C
:10048000883008F04FC08A81282F30E03D832C83CC
:100490008C819D8181309105E9F02C813D81223054
:1004A000310561F18C819D810097E9F5A5E2B0E00D
:1004B000E5E2F0E08081482F8B81282F30E081E059
:1004C00090E0022E02C0880F991F0A94E2F7842759
:1004D0008C9329C0A8E2B0E0E8E2F0E08081482FE8
:1004E0008B81282F30E081E090E0022E02C0880F3F
:1004F000991F0A94E2F784278C9315C0ABE2B0E011
:10050000EBE2F0E08081482F8B81282F30E081E002
:1005100090E0022E02C0880F991F0A94E2F7842708
:100520008C9301C0198289810F900F900F900F90CA
:100530000F90CF91DF910895DF93CF93CDB7DEB7C2
:1005400028970FB6F894DEBF0FBECDBF8B836C83A8
:100550005E834D8381E08A838B81833008F076C08F
:100560008C81883008F072C08D819E81009709F4DB
:100570006DC08B81282F30E038872F834F815885BD
:100580004130510549F18F8198858230910509F4F8
:1005900040C02F8138852115310509F058C0E3E2AC
:1005A000F0E08081282F30E08C81882F90E0A90135
:1005B00002C0559547958A95E2F7CA0181708983F3
:1005C0008981813029F4ED81FE8181E080833FC003
:1005D000ED81FE8110823BC0E6E2F0E08081282FB1
:1005E00030E08C81882F90E0A90102C05595479595
:1005F0008A95E2F7CA01817089838981813029F463
:10060000ED81FE8181E0808322C0ED81FE81108238
:100610001EC0E9E2F0E08081282F30E08C81882F35
:1006200090E0A90102C0559547958A95E2F7CA0165
:10063000817089838981813029F4ED81FE8181E097
:10064000808305C0ED81FE81108201C01A828A81FB
:1006500028960FB6F894DEBF0FBECDBFCF91DF91C5
:100660000895DF93CF93CDB7DEB72B970FB6F894ED
:10067000DEBF0FBECDBF8A836B8381E089838A8111
:10068000833008F060C08B81882321F08B8181301A
:1006900009F059C08A81282F30E03B872A878A8554
:1006A0009B858130910509F12A853B8522303105F2
:1006B00099F18A859B85009709F046C08B81282F88
:1006C00030E03987288788859985009751F02885FB
:1006D000398521303105C1F5E4E2F0E08FEF808308
:1006E00033C0E4E2F0E010822FC08B81282F30E08D
:1006F0003F832E838E819F81009751F02E813F8111
:100700002130310509F5E7E2F0E08FEF80831CC06E
:10071000E7E2F0E0108218C08B81282F30E03D83A3
:100720002C838C819D81009751F02C813D8121305B
:10073000310551F4EAE2F0E08FEF808305C0EAE290
:10074000F0E0108201C0198289812B960FB6F894CF
:10075000DEBF0FBECDBFCF91DF910895DF93CF9362
:1007600000D000D00F92CDB7DEB78A836B8381E0D3
:1007700089838A81282F30E03D832C838C819D8161
:100780008130910571F02C813D812230310571F06D
:100790008C819D81009779F4E5E2F0E08B81808384
:1007A0000BC0E8E2F0E08B81808306C0EBE2F0E072
:1007B0008B81808301C0198289810F900F900F90E7
:1007C0000F900F90CF91DF910895DF93CF9300D0DA
:1007D00000D000D0CDB7DEB78A837C836B8381E005
:1007E00089838A81823060F18B819C81009741F1FD
:1007F0008A81282F30E03E832D838D819E81813038
:10080000910581F02D813E812230310591F08D815D
:100810009E810097B1F4E3E2F0E08081EB81FC81FE
:1008200080830FC0E6E2F0E08081EB81FC81808371
:1008300008C0E9E2F0E08081EB81FC81808301C0A7
:100840001982898126960FB6F894DEBF0FBECDBF00
:10085000CF91DF910895DF93CF9300D000D0CDB733
:10086000DEB79B838A836C8381E089838A819B8145
:10087000009781F08C81823068F48C81882F90E021
:10088000880F991FFC01E050FF4F8A819B81918363
:10089000808301C0198289810F900F900F900F9073
:1008A000CF91DF9108951F920F920FB60F921124EE
:1008B0002F933F934F935F936F937F938F939F9368
:1008C000AF93BF93EF93FF93DF93CF93CDB7DEB793
:1008D0008091000190910101009729F0E0910001C1
:1008E000F09101010995CF91DF91FF91EF91BF91B7
:1008F000AF919F918F917F916F915F914F913F91B8
:100900002F910F900FBE0F901F9018951F920F926E
:100910000FB60F9211242F933F934F935F936F93D2
:100920007F938F939F93AF93BF93EF93FF93DF9347
:10093000CF93CDB7DEB7809102019091030100976C
:1009400029F0E0910201F09103010995CF91DF9127
:10095000FF91EF91BF91AF919F918F917F916F9197
:100960005F914F913F912F910F900FBE0F901F906D
:100970001895DF93CF93CDB7DEB729970FB6F894CC
:10098000DEBF0FBECDBF8A836B8381E089838A81FE
:10099000823008F0D8C08B81843008F0D4C08A81BE
:1009A000282F30E03987288788859985009739F086
:1009B000288539852130310509F463C0C5C08B8194
:1009C000282F30E03F832E838E819F8181309105D7
:1009D00021F12E813F81223031052CF48E819F81BF
:1009E000009761F046C02E813F812230310521F110
:1009F0008E819F818330910571F13BC0A9E6B0E003
:100A0000E9E6F0E0808181608C93A9E6B0E0E9E658
:100A1000F0E0808182608C932CC0A9E6B0E0E9E62A
:100A2000F0E080818E7F8C93A9E6B0E0E9E6F0E00B
:100A3000808182608C931DC0A9E6B0E0E9E6F0E019
:100A400080818E7F8C93A9E6B0E0E9E6F0E08081BA
:100A50008D7F8C930EC0A9E6B0E0E9E6F0E08081DE
:100A600081608C93A9E6B0E0E9E6F0E080818D7FBB
:100A70008C93ADE3B0E0EDE3F0E0808181608C9396
:100A800063C08B81282F30E03D832C838C819D8136
:100A90008130910521F12C813D81223031052CF4EA
:100AA0008C819D81009761F046C02C813D81223070
:100AB000310521F18C819D818330910571F13BC01D
:100AC000A9E6B0E0E9E6F0E0808184608C93A9E6D5
:100AD000B0E0E9E6F0E0808188608C932CC0A9E664
:100AE000B0E0E9E6F0E080818B7F8C93A9E6B0E08E
:100AF000E9E6F0E0808188608C931DC0A9E6B0E053
:100B0000E9E6F0E080818B7F8C93A9E6B0E0E9E62E
:100B1000F0E08081877F8C930EC0A9E6B0E0E9E623
:100B2000F0E0808184608C93A9E6B0E0E9E6F0E033
:100B30008081877F8C93ADE3B0E0EDE3F0E08081CE
:100B400082608C9301C01982898129960FB6F8942E
:100B5000DEBF0FBECDBFCF91DF910895DF93CF935E
:100B600000D000D0CDB7DEB78A8381E089838A8147
:100B7000282F30E03C832B838B819C81009731F0C0
:100B80002B813C812130310549F010C0ADE3B0E04C
:100B9000EDE3F0E080818E7F8C9309C0ADE3B0E09F
:100BA000EDE3F0E080818D7F8C9301C01982898113
:100BB0000F900F900F900F90CF91DF910895DF93DA
:100BC000CF93CDB7DEB7AFE5B0E0EFE5F0E08081E1
:100BD00080688C93CF91DF910895DF93CF93CDB749
:100BE000DEB7AFE5B0E0EFE5F0E080818F778C9382
:100BF000CF91DF910895DF93CF93CDB7DEB70E94F9
:100C000048000E94DF058DE096E061E00E942B0421
:100C100081E060E00E94B904FFCFDF93CF93CDB7AE
:100C2000DEB780E065E00E943002CF91DF91089549
:040C3000F894FFCF66
:00000001FF
