:100000000C9434000C9451000C9451000C94510049
:100010000C9451000C9451000C9451000C9451001C
:100020000C9451000C9451000C9451000C9451000C
:100030000C9451000C9451000C9451000C945100FC
:100040000C9451000C9451000C9451000C945100EC
:100050000C9451000C9451000C9451000C945100DC
:100060000C9451000C94510011241FBECFEFD8E026
:10007000DEBFCDBF11E0A8E0B1E001C01D92AC3001
:10008000B107E1F711E0A0E0B1E0E8E2F6E102C07B
:1000900005900D92A830B107D9F70E944C0A0C9434
:1000A000120B0C940000EF92FF920F931F937B01B1
:1000B0008C0120E030E040E05FE40E94530388239D
:1000C0008CF0C801B70120E030E040E05FE40E941E
:1000D000CB010E94B3039B01AC0120503040404053
:1000E000504806C0C801B7010E94B3039B01AC0190
:1000F000B901CA011F910F91FF90EF900895A0E000
:10010000B0E0E5E8F0E00C94DB0ADC012B01FA0139
:100110009C91923008F439C1EB018881823008F457
:1001200033C1943069F4843009F02FC111969C9149
:1001300011978981981709F428C1A0E0B1E025C181
:10014000843009F421C18230A9F4923009F01DC134
:100150009A01AD0188E0EA010990AE01E901099236
:100160009E018150C1F7E201898111969C918923FA
:10017000818308C1923009F407C112962D903C90FA
:100180001397EB018A819B811496AD90BD90CD9021
:10019000DC901797EC80FD800E811F819101281B58
:1001A000390BB90137FF04C066277727621B730B31
:1001B000603271050CF061C0121613066CF5370140
:1001C0004801062E04C096948794779467940A9405
:1001D000D2F721E030E040E050E004C0220F331FAE
:1001E000441F551F6A95D2F721503040404050407F
:1001F0002E213F2140235123211531054105510571
:1002000021F021E030E040E050E079018A01E62869
:10021000F728082919293CC0232BD1F1260E371EB7
:1002200035014601062E04C096948794779467940E
:100230000A94D2F721E030E040E050E004C0220F01
:10024000331F441F551F6A95D2F72150304040405C
:1002500050402A213B214C215D21211531054105CA
:10026000510521F021E030E040E050E059016A0101
:10027000A628B728C828D9280BC0821593052CF0CA
:100280001C01AA24BB24650103C0EE24FF248701BE
:1002900011969C91D20111968C91981709F445C042
:1002A000992339F0A80197012A193B094C095D09E6
:1002B00006C0A60195012E193F09400B510B57FDB1
:1002C00008C0118233822282248335834683578378
:1002D0001DC081E081833382228288279927DC0137
:1002E000821B930BA40BB50B84839583A683B783E2
:1002F0000DC0220F331F441F551F248335834683AF
:1003000057838281938101979383828324813581EE
:1003100046815781DA01C9010197A109B1098F5FAF
:100320009F4FAF4FBF4328F30BC09183338222828C
:10033000EA0CFB1C0C1D1D1DE482F582068317834D
:1003400083E08083248135814681578157FF1AC01D
:10035000C901AA2797FDA095BA2F81709070A0704F
:10036000B0705695479537952795822B932BA42BE4
:10037000B52B84839583A683B7838281938101966D
:1003800093838283DF0101C0D201CD01CDB7DEB7F7
:10039000E2E10C94F70AA0E2B0E0E1EDF1E00C94A8
:1003A000E70A69837A838B839C832D833E834F8303
:1003B0005887E9E0EE2EF12CEC0EFD1ECE010196E1
:1003C000B7010E94DC048E010F5E1F4FCE0105961F
:1003D000B8010E94DC048A8991E089278A8BC701D1
:1003E000B801AE01475E5F4F0E947F000E94070484
:1003F000A096E6E00C94030BA0E2B0E0E2E0F2E0AD
:100400000C94E70A69837A838B839C832D833E83D4
:100410004F835887F9E0EF2EF12CEC0EFD1ECE0134
:100420000196B7010E94DC048E010F5E1F4FCE01C2
:100430000596B8010E94DC04C701B801AE01475E11
:100440005F4F0E947F000E940704A096E6E00C9494
:10045000030BA0E2B0E0EFE2F2E00C94DB0A698368
:100460007A838B839C832D833E834F835887CE0171
:100470000196BE01675F7F4F0E94DC04CE010596A6
:10048000BE016F5E7F4F0E94DC049985923088F038
:1004900089898230C8F0943019F4823051F404C054
:1004A000843029F4923081F480E091E0C6C092302B
:1004B00049F420E09A858A89981321E02A87CE01A1
:1004C0000996BBC0823049F420E09A858A89981346
:1004D00021E02A8BCE014196B0C02D843E844F840A
:1004E00058886D887E888F88988CEE24FF24870139
:1004F000AA24BB24650140E050E060E070E0E0E049
:10050000F0E0C10181709070892BE9F0E60CF71CD6
:10051000081D191D9A01AB012A0D3B1D4C1D5D1DC7
:1005200080E090E0A0E0B0E0E614F70408051905CB
:1005300020F481E090E0A0E0B0E0BA01A901480F0A
:10054000591F6A1F7B1FAA0CBB1CCC1CDD1C97FE0D
:1005500008C081E090E0A0E0B0E0A82AB92ACA2A49
:10056000DB2A3196E032F10549F0660C771C881CD5
:10057000991C5694479437942794C3CFFA85EA89F7
:100580002B893C898B859C85280F391F2E5F3F4F17
:1005900017C0CA0181709070892B61F0169507957C
:1005A000F794E79480E090E0A0E0B0E8E82AF92A28
:1005B0000A2B1B2B76956795579547952F5F3F4FD5
:1005C00077FDE7CF0CC0440F551F661F771F17FD3F
:1005D0004160EE0CFF1C001F111F215030404030C5
:1005E00090E0590790E0690790E4790760F32B8F5A
:1005F0003C8FDB01CA018F779070A070B07080349F
:100600009105A105B10561F447FD0AC0E114F104AB
:100610000105110529F0405C5F4F6F4F7F4F407817
:100620001A8EFE1711F081E08A8F4D8F5E8F6F8FCB
:1006300078A383E0898FCE0149960E940704A09693
:10064000E2E10C94F70AA8E1B0E0E9E2F3E00C94EF
:10065000E70A69837A838B839C832D833E834F8350
:10066000588789E0E82EF12CEC0EFD1ECE01019694
:10067000B7010E94DC048E010F5E1F4FCE0105966C
:10068000B8010E94DC048985823040F0898982307B
:1006900028F0C701B8010E94540501C08FEF689689
:1006A000E6E00C94030BA8E1B0E0E9E5F3E00C947C
:1006B000E70A69837A838B839C832D833E834F83F0
:1006C000588789E0E82EF12CEC0EFD1ECE01019634
:1006D000B7010E94DC048E010F5E1F4FCE0105960C
:1006E000B8010E94DC048985823040F0898982301B
:1006F00028F0C701B8010E94540501C08FEF689629
:10070000E6E00C94030BA8E1B0E0E9E8F3E00C9418
:10071000E70A69837A838B839C832D833E834F838F
:10072000588789E0E82EF12CEC0EFD1ECE010196D3
:10073000B7010E94DC048E010F5E1F4FCE010596AB
:10074000B8010E94DC048985823040F089898230BA
:1007500028F0C701B8010E94540501C081E06896E5
:10076000E6E00C94030BACE0B0E0E9EBF3E00C94B2
:10077000EB0A69837A838B839C83CE010196BE0149
:100780006B5F7F4F0E94DC048D81823061F182308B
:1007900050F1843021F48E81882351F12EC02F81B5
:1007A000388537FD20C06E812F3131051CF066235E
:1007B000F9F023C08EE190E0821B930B29853A85E6
:1007C0004B855C8504C056954795379527958A9546
:1007D000D2F76623B1F050954095309521953F4F63
:1007E0004F4F5F4F0EC020E030E040E050E009C0C6
:1007F0002FEF3FEF4FEF5FE704C020E030E040E035
:1008000050E8B901CA012C96E2E00C94070BDF9284
:10081000EF92FF920F931F93FC01E480F580068115
:100820001781D1808081823048F480E090E0A0E19F
:10083000B0E0E82AF92A0A2B1B2BA5C0843009F462
:100840009FC0823021F4EE24FF24870105C0E1140B
:10085000F1040105110519F4E0E0F0E096C06281B1
:1008600073819FEF623879070CF05BC022E83FEF9D
:10087000261B370B2A3131052CF020E030E040E018
:1008800050E02AC0B801A701022E04C076956795F2
:10089000579547950A94D2F781E090E0A0E0B0E048
:1008A00004C0880F991FAA1FBB1F2A95D2F7019772
:1008B000A109B1098E219F21A023B1230097A10591
:1008C000B10521F081E090E0A0E0B0E09A01AB0139
:1008D000282B392B4A2B5B2BDA01C9018F779070BB
:1008E000A070B07080349105A105B10539F427FFDF
:1008F00009C0205C3F4F4F4F5F4F04C0215C3F4F0A
:100900004F4F5F4FE0E0F0E02030A0E03A07A0E07A
:100910004A07A0E45A0710F0E1E0F0E079018A010B
:1009200027C06038710564F5FB01E158FF4FD8011D
:10093000C7018F779070A070B07080349105A105C9
:10094000B10539F4E7FE0DC080E490E0A0E0B0E02E
:1009500004C08FE390E0A0E0B0E0E80EF91E0A1FAB
:100960001B1F17FF05C016950795F794E79431965E
:1009700087E016950795F794E7948A95D1F705C017
:10098000EE24FF248701EFEFF0E06E2F67956627D6
:100990006795902F9F77D794DD24D7948E2F8695D7
:1009A000492F462B582F5D29B701CA011F910F917E
:1009B000FF90EF90DF900895FC01DB0140815181B1
:1009C0002281622F6F7770E0221F2227221F9381DE
:1009D000892F880F822B282F30E0991F9927991F84
:1009E00011969C93119721153105A9F541155105D3
:1009F0006105710511F482E037C082E89FEF13961C
:100A00009C938E9312979A01AB0167E0220F331FDC
:100A1000441F551F6A95D1F783E08C930DC0220FB8
:100A2000331F441F551F12968D919C911397019768
:100A300013969C938E931297203080E0380780E0C5
:100A4000480780E4580758F314962D933D934D932F
:100A50005C93179708952F3F310579F4411551059F
:100A60006105710519F484E08C93089564FF03C057
:100A700081E08C9312C01C9210C02F573040139607
:100A80003C932E93129783E08C9387E0440F551F7D
:100A9000661F771F8A95D1F7706414964D935D9306
:100AA0006D937C93179708951F93DC01FB019C9134
:100AB000923008F447C08081823008F443C09430FB
:100AC00051F411961C91843099F58181682F70E062
:100AD000611B71093FC0843021F0923031F48230C3
:100AE000B9F18181882389F12DC011961C9111974C
:100AF0008230F1F081811817D9F412962D913C9132
:100B00001397828193818217930794F028173907EE
:100B1000BCF014968D919D910D90BC91A02D2481D7
:100B2000358146815781281739074A075B0718F432
:100B3000112341F00AC082179307A407B50740F4B8
:100B4000112319F061E070E005C06FEF7FEF02C084
:100B500060E070E0CB011F910895DF93CF93CDB794
:100B6000DEB7E4E2F0E01082E7E2F0E01082EAE2D1
:100B7000F0E080E68083E5E2F0E01082E8E2F0E079
:100B80001082EBE2F0E01082CF91DF910895DF93C5
:100B9000CF93CDB7DEB72C970FB6F894DEBF0FBE5C
:100BA000CDBF8A836B834C8381E089838A818330C4
:100BB00008F0C8C08B81883008F0C4C08C818823BD
:100BC00021F08C81813009F0BDC08A81282F30E06E
:100BD0003C872B878B859C858130910509F443C028
:100BE0002B853C852230310509F475C08B859C85A9
:100BF000009709F0A8C08C81282F30E03A87298718
:100C000089859A850097D1F029853A85213031056B
:100C100009F099C0A4E2B0E0E4E2F0E08081482F5E
:100C20008B81282F30E081E090E0022E02C0880FF7
:100C3000991F0A94E2F7842B8C9385C0A4E2B0E05C
:100C4000E4E2F0E08081482F8B81282F30E081E0C2
:100C500090E0022E02C0880F991F0A94E2F7809557
:100C600084238C9370C08C81282F30E038872F83A9
:100C70008F8198850097D1F02F81388521303105FB
:100C800009F061C0A7E2B0E0E7E2F0E08081482F20
:100C90008B81282F30E081E090E0022E02C0880F87
:100CA000991F0A94E2F7842B8C934DC0A7E2B0E021
:100CB000E7E2F0E08081482F8B81282F30E081E04F
:100CC00090E0022E02C0880F991F0A94E2F78095E7
:100CD00084238C9338C08C81282F30E03E832D8371
:100CE0008D819E810097C9F02D813E812130310593
:100CF00051F5AAE2B0E0EAE2F0E08081482F8B8172
:100D0000282F30E081E090E0022E02C0880F991F6A
:100D10000A94E2F7842B8C9316C0AAE2B0E0EAE2D0
:100D2000F0E08081482F8B81282F30E081E090E037
:100D3000022E02C0880F991F0A94E2F7809584233F
:100D40008C9301C0198289812C960FB6F894DEBF6E
:100D50000FBECDBFCF91DF910895DF93CF93CDB775
:100D6000DEB72C970FB6F894DEBF0FBECDBF8A83D7
:100D70006B834C8381E089838A81833008F0C8C00B
:100D80008B81883008F0C4C08C81813021F08C8147
:100D9000882309F0BDC08A81282F30E03C872B874B
:100DA0008B859C858130910509F443C02B853C855A
:100DB0002230310509F475C08B859C85009709F0B8
:100DC000A8C08C81282F30E03A87298789859A85A9
:100DD0000097D1F029853A852130310509F099C075
:100DE000A5E2B0E0E5E2F0E08081482F8B81282F7A
:100DF00030E081E090E0022E02C0880F991F0A9433
:100E0000E2F7842B8C9385C0A5E2B0E0E5E2F0E048
:100E10008081482F8B81282F30E081E090E0022EE6
:100E200002C0880F991F0A94E2F7809584238C935F
:100E300070C08C81282F30E038872F838F81988570
:100E40000097D1F02F8138852130310509F061C03C
:100E5000A8E2B0E0E8E2F0E08081482F8B81282F03
:100E600030E081E090E0022E02C0880F991F0A94C2
:100E7000E2F7842B8C934DC0A8E2B0E0E8E2F0E00A
:100E80008081482F8B81282F30E081E090E0022E76
:100E900002C0880F991F0A94E2F7809584238C93EF
:100EA00038C08C81282F30E03E832D838D819E8138
:100EB0000097C9F02D813E812130310551F5ABE21B
:100EC000B0E0EBE2F0E08081482F8B81282F30E00A
:100ED00081E090E0022E02C0880F991F0A94E2F789
:100EE000842B8C9316C0ABE2B0E0EBE2F0E08081A3
:100EF000482F8B81282F30E081E090E0022E02C045
:100F0000880F991F0A94E2F7809584238C9301C07F
:100F1000198289812C960FB6F894DEBF0FBECDBF23
:100F2000CF91DF910895DF93CF9300D000D00F923F
:100F3000CDB7DEB78A836B8381E089838A81833072
:100F400008F053C08B81883008F04FC08A81282F69
:100F500030E03D832C838C819D8181309105E9F0C7
:100F60002C813D812230310561F18C819D8100977A
:100F7000E9F5A5E2B0E0E5E2F0E08081482F8B8161
:100F8000282F30E081E090E0022E02C0880F991FE8
:100F90000A94E2F784278C9329C0A8E2B0E0E8E243
:100FA000F0E08081482F8B81282F30E081E090E0B5
:100FB000022E02C0880F991F0A94E2F784278C93AF
:100FC00015C0ABE2B0E0EBE2F0E08081482F8B810E
:100FD000282F30E081E090E0022E02C0880F991F98
:100FE0000A94E2F784278C9301C0198289810F90BB
:100FF0000F900F900F900F90CF91DF910895DF9396
:10100000CF93CDB7DEB728970FB6F894DEBF0FBEEB
:10101000CDBF8B836C835E834D8381E08A838B811C
:10102000833008F076C08C81883008F072C08D81E2
:101030009E81009709F46DC08B81282F30E038879E
:101040002F834F8158854130510549F18F81988513
:101050008230910509F440C02F8138852115310572
:1010600009F058C0E3E2F0E08081282F30E08C8165
:10107000882F90E0A90102C0559547958A95E2F71F
:10108000CA01817089838981813029F4ED81FE81D3
:1010900081E080833FC0ED81FE8110823BC0E6E2AB
:1010A000F0E08081282F30E08C81882F90E0A9012A
:1010B00002C0559547958A95E2F7CA0181708983E8
:1010C0008981813029F4ED81FE8181E0808322C015
:1010D000ED81FE8110821EC0E9E2F0E08081282FC0
:1010E00030E08C81882F90E0A90102C0559547958A
:1010F0008A95E2F7CA01817089838981813029F458
:10110000ED81FE8181E0808305C0ED81FE8110824A
:1011100001C01A828A8128960FB6F894DEBF0FBEEE
:10112000CDBFCF91DF910895DF93CF93CDB7DEB7D9
:101130002B970FB6F894DEBF0FBECDBF8A836B83AB
:1011400081E089838A81833008F060C08B818823A5
:1011500021F08B81813009F059C08A81282F30E03D
:101160003B872A878A859B858130910509F12A85ED
:101170003B852230310599F18A859B85009709F0DE
:1011800046C08B81282F30E039872887888599854C
:10119000009751F02885398521303105C1F5E4E209
:1011A000F0E08FEF808333C0E4E2F0E010822FC0E4
:1011B0008B81282F30E03F832E838E819F81009783
:1011C00051F02E813F812130310509F5E7E2F0E051
:1011D0008FEF80831CC0E7E2F0E0108218C08B81A3
:1011E000282F30E03D832C838C819D81009751F026
:1011F0002C813D812130310551F4EAE2F0E08FEF9E
:10120000808305C0EAE2F0E0108201C01982898182
:101210002B960FB6F894DEBF0FBECDBFCF91DF91F6
:101220000895DF93CF9300D000D00F92CDB7DEB7F3
:101230008A836B8381E089838A81282F30E03D8314
:101240002C838C819D818130910571F02C813D81B1
:101250002230310571F08C819D81009779F4E5E2AF
:10126000F0E08B8180830BC0E8E2F0E08B8180832B
:1012700006C0EBE2F0E08B81808301C01982898196
:101280000F900F900F900F900F90CF91DF910895D6
:10129000DF93CF9300D000D000D0CDB7DEB78A83E4
:1012A0007C836B8381E089838A81823060F18B81CA
:1012B0009C81009741F18A81282F30E03E832D8365
:1012C0008D819E818130910581F02D813E8122307A
:1012D000310591F08D819E810097B1F4E3E2F0E059
:1012E0008081EB81FC8180830FC0E6E2F0E08081A9
:1012F000EB81FC81808308C0E9E2F0E08081EB8132
:10130000FC81808301C01982898126960FB6F894EA
:10131000DEBF0FBECDBFCF91DF910895DF93CF9396
:10132000CDB7DEB7AFE5B0E0EFE5F0E080818068F3
:101330008C93CF91DF910895DF93CF93CDB7DEB734
:10134000AFE5B0E0EFE5F0E080818F778C93CF914F
:10135000DF910895DF93CF9300D00F92CDB7DEB722
:101360009B838A8381E089838A819B81009739F0FE
:101370008A819B81909309018093080101C01982A1
:1013800089810F900F900F90CF91DF910895DF9397
:10139000CF9300D00F92CDB7DEB79B838A8381E0D5
:1013A00089838A819B81009739F08A819B81909300
:1013B0000B0180930A0101C0198289810F900F905F
:1013C0000F90CF91DF910895DF93CF93CDB7DEB724
:1013D000A5E4B0E0E5E4F0E08081877F8C93A4E4AD
:1013E000B0E0E4E4F0E0808182608C93A4E4B0E0BB
:1013F000E4E4F0E0808181608C93A4E4B0E0E4E474
:10140000F0E080818F7B8C93A4E4B0E0E4E4F0E032
:10141000808180688C93E7E4F0E082E38083A4E439
:10142000B0E0E4E4F0E080818F7E8C93A4E4B0E04F
:10143000E4E4F0E0808180628C93E8E4F0E086E907
:101440008083A5E4B0E0E5E4F0E080818B7F8C93BD
:10145000A5E4B0E0E5E4F0E0808182608C93A5E44F
:10146000B0E0E5E4F0E0808181608C93CF91DF9182
:101470000895DF93CF930F92CDB7DEB78983E7E46A
:10148000F0E089818083E8E4F0E0898180958083C1
:101490000F90CF91DF910895DF93CF93CDB7DEB753
:1014A0002E970FB6F894DEBF0FBECDBF0E94AD05DC
:1014B0000E94E40980E090E0A0E2B1E48B879C8781
:1014C000AD87BE876B857C858D859E8520E030E06D
:1014D0004AE755E40E942902DC01CB018F839887FB
:1014E000A987BA876F81788589859A8520E030E061
:1014F00040E85FE30E94830388232CF481E090E0BE
:101500009E838D833FC06F81788589859A8520E091
:101510003FEF4FE757E40E94230318164CF56B8505
:101520007C858D859E8520E030E040E251E40E947C
:101530002902DC01CB01BC01CD010E945300DC017A
:10154000CB019E838D830FC080E991E09C838B83C8
:101550008B819C810197F1F79C838B838D819E8188
:1015600001979E838D838D819E81009769F714C0BA
:101570006F81788589859A850E945300DC01CB01B3
:101580009E838D838D819E819A83898389819A81AF
:101590000197F1F79A83898380E00E94390A8ACF04
:1015A000DF93CF93CDB7DEB780E065E00E9493076D
:1015B000CF91DF9108952F923F924F925F926F9259
:1015C0007F928F929F92AF92BF92CF92DF92EF92D3
:1015D000FF920F931F93CF93DF93CDB7DEB7CA1B54
:1015E000DB0B0FB6F894DEBF0FBECDBF09942A887F
:1015F000398848885F846E847D848C849B84AA8427
:10160000B984C884DF80EE80FD800C811B81AA81B3
:10161000B981CE0FD11D0FB6F894DEBF0FBECDBF7E
:08162000ED010895F894FFCFDD
:081628000000000000000000BA
:00000001FF
