:100000000C942A000C943F000C943F000C943F0089
:100010000C943F000C943F000C943F000C943F0064
:100020000C943F000C943F000C943F000C943F0054
:100030000C943F000C943F000C943F000C943F0044
:100040000C943F000C943F000C943F000C943F0034
:100050000C943F0011241FBECFE5D4E0DEBFCDBF1E
:1000600010E0A0E6B0E0E0EBFCE202C005900D92EB
:10007000A837B107D9F70E9435130C9456160C9483
:100080000000EF92FF920F931F937B018C0120E001
:1000900030E040E05FE40E94ED0388238CF0C8016B
:1000A000B70120E030E040E05FE40E94B9010E9427
:1000B0004D049B01AC01205030404040504806C0E8
:1000C000C801B7010E944D049B01AC01B901CA01EE
:1000D0001F910F91FF90EF900895A0E0B0E0E3E74B
:1000E000F0E00C947E13DC012B01FA019C9192301C
:1000F00008F439C1EB018881823008F433C19430AF
:1001000069F4843009F02FC111969C91119789816F
:10011000981709F428C1A0E7B0E025C1843009F49C
:1001200021C18230A9F4923009F01DC19A01AD01BC
:1001300088E0EA010990AE01E90109929E0181502F
:10014000C1F7E201898111969C918923818308C1BD
:10015000923009F407C112962D903C901397EB0151
:100160008A819B811496AD90BD90CD90DC901797BD
:10017000EC80FD800E811F819101281B390BB90194
:1001800037FF04C066277727621B730B6032710547
:100190000CF061C0121613066CF537014801062EEB
:1001A00004C096948794779467940A94D2F721E0D8
:1001B00030E040E050E004C0220F331F441F551FC1
:1001C0006A95D2F721503040404050402E213F21C7
:1001D00040235123211531054105510521F021E02E
:1001E00030E040E050E079018A01E628F72808294C
:1001F00019293CC0232BD1F1260E371E35014601AB
:10020000062E04C096948794779467940A94D2F744
:1002100021E030E040E050E004C0220F331F441FD3
:10022000551F6A95D2F721503040404050402A2156
:100230003B214C215D21211531054105510521F05E
:1002400021E030E040E050E059016A01A628B728DB
:10025000C828D9280BC0821593052CF01C01AA24AC
:10026000BB24650103C0EE24FF24870111969C91F5
:10027000D20111968C91981709F445C0992339F051
:10028000A80197012A193B094C095D0906C0A6017E
:1002900095012E193F09400B510B57FD08C01182E3
:1002A0003382228224833583468357831DC081E0B5
:1002B00081833382228288279927DC01821B930B5A
:1002C000A40BB50B84839583A683B7830DC0220F3F
:1002D000331F441F551F24833583468357838281F0
:1002E000938101979383828324813581468157814D
:1002F000DA01C9010197A109B1098F5F9F4FAF4F83
:10030000BF4328F30BC0918333822282EA0CFB1C8B
:100310000C1D1D1DE482F5820683178383E0808314
:10032000248135814681578157FF1AC0C901AA2708
:1003300097FDA095BA2F81709070A070B0705695FF
:10034000479537952795822B932BA42BB52B848328
:100350009583A683B7838281938101969383828359
:10036000DF0101C0D201CD01CDB7DEB7E2E10C94CF
:100370009A13A0E2B0E0EFEBF1E00C948A136983EA
:100380007A838B839C832D833E834F835887E9E058
:10039000EE2EF12CEC0EFD1ECE010196B7010E944F
:1003A00076058E010F5E1F4FCE010596B8010E94A3
:1003B00076058A8991E089278A8BC701B801AE0149
:1003C000475E5F4F0E946D000E94A104A096E6E088
:1003D0000C94A613A0E2B0E0E0EFF1E00C948A13D5
:1003E00069837A838B839C832D833E834F835887D5
:1003F000F9E0EF2EF12CEC0EFD1ECE010196B701B7
:100400000E9476058E010F5E1F4FCE010596B80142
:100410000E947605C701B801AE01475E5F4F0E949A
:100420006D000E94A104A096E6E00C94A613A0E241
:10043000B0E0EDE1F2E00C947E1369837A838B8364
:100440009C832D833E834F835887CE010196BE0146
:10045000675F7F4F0E947605CE010596BE016F5EF5
:100460007F4F0E9476059985923088F08989823085
:10047000C8F0943019F4823051F404C0843029F467
:10048000923081F480E790E0C6C0923049F420E0D9
:100490009A858A89981321E02A87CE010996BBC0E4
:1004A000823049F420E09A858A89981321E02A8BCA
:1004B000CE014196B0C02D843E844F8458886D880B
:1004C0007E888F88988CEE24FF248701AA24BB2481
:1004D000650140E050E060E070E0E0E0F0E0C10184
:1004E00081709070892BE9F0E60CF71C081D191D2E
:1004F0009A01AB012A0D3B1D4C1D5D1D80E090E073
:10050000A0E0B0E0E614F7040805190520F481E046
:1005100090E0A0E0B0E0BA01A901480F591F6A1F9E
:100520007B1FAA0CBB1CCC1CDD1C97FE08C081E005
:1005300090E0A0E0B0E0A82AB92ACA2ADB2A3196C6
:10054000E032F10549F0660C771C881C991C569422
:10055000479437942794C3CFFA85EA892B893C893D
:100560008B859C85280F391F2E5F3F4F17C0CA010E
:1005700081709070892B61F016950795F794E79438
:1005800080E090E0A0E0B0E8E82AF92A0A2B1B2BD3
:1005900076956795579547952F5F3F4F77FDE7CF46
:1005A0000CC0440F551F661F771F17FD4160EE0CEE
:1005B000FF1C001F111F21503040403090E05907B0
:1005C00090E0690790E4790760F32B8F3C8FDB01A3
:1005D000CA018F779070A070B07080349105A1052A
:1005E000B10561F447FD0AC0E114F10401051105EC
:1005F00029F0405C5F4F6F4F7F4F40781A8EFE1797
:1006000011F081E08A8F4D8F5E8F6F8F78A383E02A
:10061000898FCE0149960E94A104A096E2E10C9434
:100620009A13A8E1B0E0E7E1F3E00C948613698344
:100630007A838B839C832D833E834F835887B9E0D5
:10064000EB2EF12CEC0EFD1ECE010196B7010E949F
:1006500076058E010F5E1F4FCE010596B8010E94F0
:1006600076052985223008F47EC03989323010F4AD
:10067000B8017CC08A859A8989278A87243011F03D
:10068000223031F4231709F06EC060E770E06EC0CD
:10069000343039F41D861E861F86188A1C861B86F8
:1006A00004C0323021F484E08987B7015FC02B8514
:1006B0003C858B899C89281B390B3C872B87ED84D3
:1006C000FE840F851889AD88BE88CF88D88CEA143F
:1006D000FB040C051D0540F4EE0CFF1C001F111F50
:1006E000215030403C872B8720E030E040E050E054
:1006F00080E090E0A0E0B0E460E070E0EA14FB0489
:100700000C051D0540F0282B392B4A2B5B2BEA18D2
:10071000FB080C091D09B695A79597958795EE0CD2
:10072000FF1C001F111F6F5F7F4F6F31710531F785
:10073000DA01C9018F779070A070B0708034910594
:10074000A105B10561F427FD0AC0E114F10401051A
:10075000110529F0205C3F4F4F4F5F4F20782D87C8
:100760003E874F87588BBE01675F7F4FCB010E944A
:10077000A1046896EAE00C94A213A8E1B0E0E3ECCF
:10078000F3E00C948A1369837A838B839C832D8393
:100790003E834F83588789E0E82EF12CEC0EFD1E36
:1007A000CE010196B7010E9476058E010F5E1F4FA4
:1007B000CE010596B8010E9476058985823040F009
:1007C0008989823028F0C701B8010E94EE0501C076
:1007D0008FEF6896E6E00C94A613A8E1B0E0E3EF93
:1007E000F3E00C948A1369837A838B839C832D8333
:1007F0003E834F83588789E0E82EF12CEC0EFD1ED6
:10080000CE010196B7010E9476058E010F5E1F4F43
:10081000CE010596B8010E9476058985823040F0A8
:100820008989823028F0C701B8010E94EE0501C015
:100830008FEF6896E6E00C94A613A8E1B0E0E3E23F
:10084000F4E00C948A1369837A838B839C832D83D1
:100850003E834F83588789E0E82EF12CEC0EFD1E75
:10086000CE010196B7010E9476058E010F5E1F4FE3
:10087000CE010596B8010E9476058985823040F048
:100880008989823028F0C701B8010E94EE0501C0B5
:1008900081E06896E6E00C94A613ACE0B0E0E3E5F6
:1008A000F4E00C948E1369837A838B839C83CE014E
:1008B0000196BE016B5F7F4F0E9476058D8182306D
:1008C00061F1823050F1843021F48E81882351F11E
:1008D0002EC02F81388537FD20C06E812F31310524
:1008E0001CF06623F9F023C08EE190E0821B930B8D
:1008F00029853A854B855C8504C056954795379583
:1009000027958A95D2F76623B1F05095409530959A
:1009100021953F4F4F4F5F4F0EC020E030E040E049
:1009200050E009C02FEF3FEF4FEF5FE704C020E03A
:1009300030E040E050E8B901CA012C96E2E00C94A6
:10094000AA13DF92EF92FF920F931F93FC01E480B2
:10095000F58006811781D1808081823048F480E063
:1009600090E0A0E1B0E0E82AF92A0A2B1B2BA5C0F1
:10097000843009F49FC0823021F4EE24FF248701E3
:1009800005C0E114F1040105110519F4E0E0F0E0FF
:1009900096C0628173819FEF623879070CF05BC06B
:1009A00022E83FEF261B370B2A3131052CF020E0DF
:1009B00030E040E050E02AC0B801A701022E04C098
:1009C00076956795579547950A94D2F781E090E020
:1009D000A0E0B0E004C0880F991FAA1FBB1F2A9592
:1009E000D2F70197A109B1098E219F21A023B1233C
:1009F0000097A105B10521F081E090E0A0E0B0E012
:100A00009A01AB01282B392B4A2B5B2BDA01C90148
:100A10008F779070A070B07080349105A105B105FA
:100A200039F427FF09C0205C3F4F4F4F5F4F04C090
:100A3000215C3F4F4F4F5F4FE0E0F0E02030A0E0FF
:100A40003A07A0E04A07A0E45A0710F0E1E0F0E01E
:100A500079018A0127C06038710564F5FB01E1580E
:100A6000FF4FD801C7018F779070A070B0708034AD
:100A70009105A105B10539F4E7FE0DC080E490E0D1
:100A8000A0E0B0E004C08FE390E0A0E0B0E0E80EAA
:100A9000F91E0A1F1B1F17FF05C016950795F7942F
:100AA000E794319687E016950795F794E7948A9531
:100AB000D1F705C0EE24FF248701EFEFF0E06E2FA1
:100AC000679566276795902F9F77D794DD24D794F5
:100AD0008E2F8695492F462B582F5D29B701CA01C5
:100AE0001F910F91FF90EF90DF900895FC01DB01C3
:100AF000408151812281622F6F7770E0221F22276F
:100B0000221F9381892F880F822B282F30E0991F75
:100B10009927991F11969C93119721153105A9F5D5
:100B2000411551056105710511F482E037C082E875
:100B30009FEF13969C938E9312979A01AB0167E0F7
:100B4000220F331F441F551F6A95D1F783E08C9302
:100B50000DC0220F331F441F551F12968D919C917B
:100B60001397019713969C938E931297203080E0F1
:100B7000380780E0480780E4580758F314962D930F
:100B80003D934D935C93179708952F3F310579F46A
:100B9000411551056105710519F484E08C930895A0
:100BA00064FF03C081E08C9312C01C9210C02F57C9
:100BB000304013963C932E93129783E08C9387E0FA
:100BC000440F551F661F771F8A95D1F770641496DE
:100BD0004D935D936D937C93179708951F93DC015C
:100BE000FB019C91923008F447C08081823008F468
:100BF00043C0943051F411961C91843099F5818151
:100C0000682F70E0611B71093FC0843021F0923081
:100C100031F48230B9F18181882389F12DC0119698
:100C20001C9111978230F1F081811817D9F4129636
:100C30002D913C911397828193818217930794F0B1
:100C400028173907BCF014968D919D910D90BC9199
:100C5000A02D2481358146815781281739074A07FD
:100C60005B0718F4112341F00AC082179307A40709
:100C7000B50740F4112319F061E070E005C06FEF93
:100C80007FEF02C060E070E0CB011F910895DF9319
:100C9000CF93CDB7DEB7EAE3F0E08FEF8083E7E3F1
:100CA000F0E08FEF8083E4E3F0E081E88083E1E32C
:100CB000F0E01082EBE3F0E01082E8E3F0E080E89F
:100CC0008083E5E3F0E01082E2E3F0E01082CF9170
:100CD000DF910895DF93CF93CDB7DEB72E970FB690
:100CE000F894DEBF0FBECDBF8A836B834C8381E057
:100CF00089838A81843008F00CC18B81883008F0A8
:100D000008C18C81882321F08C81813009F001C1D8
:100D10008A81282F30E03E872D878D859E85813002
:100D2000910509F44FC02D853E85223031052CF404
:100D30008D859E85009771F0EDC02D853E85223012
:100D4000310509F477C08D859E858330910509F4BE
:100D5000A9C0E0C08C81282F30E03C872B878B8591
:100D60009C850097D1F02B853C852130310509F019
:100D7000D1C0A4E3B0E0E4E3F0E08081482F8B81B0
:100D8000282F30E081E090E0022E02C0880F991FEA
:100D90000A94E2F7842B8C93BDC0A4E3B0E0E4E3B3
:100DA000F0E08081482F8B81282F30E081E090E0B7
:100DB000022E02C0880F991F0A94E2F780958423BF
:100DC0008C93A8C08C81282F30E03A8729878985A9
:100DD0009A850097D1F029853A852130310509F0AF
:100DE00099C0A7E3B0E0E7E3F0E08081482F8B8172
:100DF000282F30E081E090E0022E02C0880F991F7A
:100E00000A94E2F7842B8C9385C0A7E3B0E0E7E374
:100E1000F0E08081482F8B81282F30E081E090E046
:100E2000022E02C0880F991F0A94E2F7809584234E
:100E30008C9370C08C81282F30E038872F838F816E
:100E400098850097D1F02F8138852130310509F040
:100E500061C0A4E3B0E0E4E3F0E08081482F8B813F
:100E6000282F30E081E090E0022E02C0880F991F09
:100E70000A94E2F7842B8C934DC0A4E3B0E0E4E342
:100E8000F0E08081482F8B81282F30E081E090E0D6
:100E9000022E02C0880F991F0A94E2F780958423DE
:100EA0008C9338C08C81282F30E03E832D838D8138
:100EB0009E810097C9F02D813E812130310551F589
:100EC000A1E3B0E0E1E3F0E08081482F8B81282F9F
:100ED00030E081E090E0022E02C0880F991F0A9452
:100EE000E2F7842B8C9316C0A1E3B0E0E1E3F0E0DD
:100EF0008081482F8B81282F30E081E090E0022E06
:100F000002C0880F991F0A94E2F7809584238C937E
:100F100001C0198289812E960FB6F894DEBF0FBEEC
:100F2000CDBFCF91DF910895DF93CF93CDB7DEB7DB
:100F30002E970FB6F894DEBF0FBECDBF8A836B83AA
:100F40004C8381E089838A81843008F00CC18B81D5
:100F5000883008F008C18C81813021F08C81882391
:100F600009F001C18A81282F30E03E872D878D85C9
:100F70009E858130910509F44FC02D853E85223034
:100F800031052CF48D859E85009771F0EDC02D857F
:100F90003E852230310509F477C08D859E858330EA
:100FA000910509F4A9C0E0C08C81282F30E03C876E
:100FB0002B878B859C850097D1F02B853C85213034
:100FC000310509F0D1C0ABE3B0E0EBE3F0E08081A4
:100FD000482F8B81282F30E081E090E0022E02C064
:100FE000880F991F0A94E2F7842B8C93BDC0ABE362
:100FF000B0E0EBE3F0E08081482F8B81282F30E0D8
:1010000081E090E0022E02C0880F991F0A94E2F757
:10101000809584238C93A8C08C81282F30E03A8758
:10102000298789859A850097D1F029853A852130CD
:10103000310509F099C0A8E3B0E0E8E3F0E0808171
:10104000482F8B81282F30E081E090E0022E02C0F3
:10105000880F991F0A94E2F7842B8C9385C0A8E32C
:10106000B0E0E8E3F0E08081482F8B81282F30E06A
:1010700081E090E0022E02C0880F991F0A94E2F7E7
:10108000809584238C9370C08C81282F30E0388722
:101090002F838F8198850097D1F02F81388521305B
:1010A000310509F061C0A5E3B0E0E5E3F0E080813F
:1010B000482F8B81282F30E081E090E0022E02C083
:1010C000880F991F0A94E2F7842B8C934DC0A5E3F7
:1010D000B0E0E5E3F0E08081482F8B81282F30E0FD
:1010E00081E090E0022E02C0880F991F0A94E2F777
:1010F000809584238C9338C08C81282F30E03E83E8
:101100002D838D819E810097C9F02D813E812130F4
:10111000310551F5A2E3B0E0E2E3F0E08081482F31
:101120008B81282F30E081E090E0022E02C0880FF2
:10113000991F0A94E2F7842B8C9316C0A2E3B0E0C7
:10114000E2E3F0E08081482F8B81282F30E081E0BE
:1011500090E0022E02C0880F991F0A94E2F7809552
:1011600084238C9301C0198289812E960FB6F8943E
:10117000DEBF0FBECDBFCF91DF910895DF93CF9338
:1011800000D000D00F92CDB7DEB78A836B8381E0A9
:1011900089838A81843008F073C08B81883008F09D
:1011A0006FC08A81282F30E03D832C838C819D8104
:1011B0008130910549F12C813D81223031052CF49B
:1011C0008C819D81009761F05CC02C813D81223033
:1011D000310571F18C819D8183309105E9F151C018
:1011E000ABE3B0E0EBE3F0E08081482F8B81282F68
:1011F00030E081E090E0022E02C0880F991F0A942F
:10120000E2F784278C933DC0A8E3B0E0E8E3F0E088
:101210008081482F8B81282F30E081E090E0022EE2
:1012200002C0880F991F0A94E2F784278C9329C083
:10123000A5E3B0E0E5E3F0E08081482F8B81282F23
:1012400030E081E090E0022E02C0880F991F0A94DE
:10125000E2F784278C9315C0A2E3B0E0E2E3F0E06C
:101260008081482F8B81282F30E081E090E0022E92
:1012700002C0880F991F0A94E2F784278C9301C05B
:10128000198289810F900F900F900F900F90CF913E
:10129000DF910895DF93CF93CDB7DEB728970FB6D0
:1012A000F894DEBF0FBECDBF8B836C835E834D830E
:1012B00081E08A838B81843008F09FC08C818830E4
:1012C00008F09BC08D819E81009709F496C08B81A8
:1012D000282F30E038872F834F81588541305105C2
:1012E000A9F18F8198858230910534F42F8138855A
:1012F0002115310571F082C04F815885423051056A
:1013000009F441C08F8198858330910509F458C054
:1013100075C0E9E3F0E08081282F30E08C81882FD0
:1013200090E0A90102C0559547958A95E2F7CA0158
:10133000817089838981813029F4ED81FE8181E08A
:1013400080835CC0ED81FE81108258C0E6E3F0E04E
:101350008081282F30E08C81882F90E0A90102C085
:10136000559547958A95E2F7CA01817089838981ED
:10137000813029F4ED81FE8181E080833FC0ED81E1
:10138000FE8110823BC0E3E3F0E08081282F30E053
:101390008C81882F90E0A90102C0559547958A95C8
:1013A000E2F7CA01817089838981813029F4ED8156
:1013B000FE8181E0808322C0ED81FE8110821EC00B
:1013C000E0E3F0E08081282F30E08C81882F90E0EE
:1013D000A90102C0559547958A95E2F7CA01817027
:1013E00089838981813029F4ED81FE8181E08083C8
:1013F00005C0ED81FE81108201C01A828A81289683
:101400000FB6F894DEBF0FBECDBFCF91DF91089528
:10141000DF93CF93CDB7DEB72D970FB6F894DEBF2D
:101420000FBECDBF8A836B8381E089838A8184303C
:1014300008F084C08B81882321F08B81813009F0F2
:101440007DC08A81282F30E03D872C878C859D8543
:101450008130910571F12C853D85223031052CF4C8
:101460008C859D85009769F06AC02C853D8522306A
:101470003105B1F18C859D858330910509F447C014
:101480005EC08B81282F30E03B872A878A859B8529
:10149000009759F02A853B852130310509F04FC06E
:1014A000EAE3F0E08FEF80834AC0EAE3F0E01082E5
:1014B00046C08B81282F30E0398728878885998519
:1014C000009751F02885398521303105C1F5E7E3D2
:1014D000F0E08FEF808333C0E7E3F0E010822FC0AD
:1014E0008B81282F30E03F832E838E819F81009750
:1014F00051F02E813F812130310509F5E4E3F0E020
:101500008FEF80831CC0E4E3F0E0108218C08B8171
:10151000282F30E03D832C838C819D81009751F0F2
:101520002C813D812130310551F4E1E3F0E08FEF72
:10153000808305C0E1E3F0E0108201C01982898157
:101540002D960FB6F894DEBF0FBECDBFCF91DF91C1
:101550000895DF93CF9300D000D00F92CDB7DEB7C0
:101560008A836B8381E089838A81282F30E03D83E1
:101570002C838C819D8181309105D1F02C813D811E
:10158000223031052CF48C819D81009761F01FC0C1
:101590002C813D812230310581F08C819D81833009
:1015A000910581F014C0EBE3F0E08B81808310C0E3
:1015B000E8E3F0E08B8180830BC0E5E3F0E08B8112
:1015C000808306C0E2E3F0E08B81808301C0198252
:1015D00089810F900F900F900F900F90CF91DF9116
:1015E0000895DF93CF9300D000D000D0CDB7DEB701
:1015F0008A837C836B8381E089838A81833008F4CA
:101600003FC08B819C810097D9F18A81282F30E0DF
:101610003E832D838D819E8181309105E1F02D8166
:101620003E81223031052CF48D819E81009761F03E
:1016300028C02D813E8122303105A1F08D819E810F
:1016400083309105B1F01DC0E9E3F0E08081EB81CA
:10165000FC81808316C0E6E3F0E08081EB81FC81B1
:1016600080830FC0E3E3F0E08081EB81FC81808325
:1016700008C0E0E3F0E08081EB81FC81808301C061
:101680001982898126960FB6F894DEBF0FBECDBFB2
:10169000CF91DF910895DF93CF93CDB7DEB76897F1
:1016A0000FB6F894DEBF0FBECDBF80E062E041E030
:1016B0000E94940780E090E0A0E8BFE38D8B9E8BB2
:1016C000AF8BB88F6D897E898F89988D2BEA3AEA26
:1016D0004AEA5EE30E941702DC01CB01898B9A8BF8
:1016E000AB8BBC8B69897A898B899C8920E030E03F
:1016F00040E85FE30E941D0488231CF481E0888B8E
:1017000091C069897A898B899C8920E030E04FE714
:1017100053E40E94BD0318160CF07BC06D897E89CE
:101720008F89988D20E030E04AE754E40E9411034D
:10173000DC01CB018C879D87AE87BF876C857D855B
:101740008E859F8520E030E04AE753E40E9417022F
:10175000DC01CB0188879987AA87BB876885798553
:101760008A859B8520E030E040E85FE30E941D040D
:1017700088232CF481E090E09F838E833FC06885AE
:1017800079858A859B8520E03FEF4FE757E40E94EB
:10179000BD0318164CF56C857D858E859F8520E0F0
:1017A00030E040E251E40E941702DC01CB01BC01B1
:1017B000CD010E944100DC01CB019F838E830FC0CD
:1017C00089E190E09D838C838C819D810197F1F765
:1017D0009D838C838E819F8101979F838E838E81D1
:1017E0009F81009769F724C0688579858A859B85E4
:1017F0000E944100DC01CB019F838E838E819F81FB
:101800009B838A838A819B810197F1F79B838A83DB
:101810000FC069897A898B899C890E944100DC010B
:10182000CB01888B8889898389818A95F1F789839F
:1018300080E062E040E00E94940768960FB6F8945A
:10184000DEBF0FBECDBFCF91DF910895DF93CF9361
:10185000CDB7DEB76D970FB6F894DEBF0FBECDBF24
:101860008D8F8D8D0E942E0E80E090E0A0E8BFE36A
:10187000898F9A8FAB8FBC8F698D7A8D8B8D9C8D64
:1018800020E030E04AE753E40E941702DC01CB017C
:101890008D8B9E8BAF8BB88F6D897E898F89988D4C
:1018A00020E030E040E85FE30E941D0488232CF430
:1018B00081E090E09C8B8B8B3FC06D897E898F8906
:1018C000988D20E03FEF4FE757E40E94BD031816C4
:1018D0004CF5698D7A8D8B8D9C8D20E030E040E257
:1018E00051E40E941702DC01CB01BC01CD010E9432
:1018F0004100DC01CB019C8B8B8B0FC089E190E018
:101900009A8B898B89899A890197F1F79A8B898BB0
:101910008B899C8901979C8B8B8B8B899C890097E9
:1019200069F714C06D897E898F89988D0E94410066
:10193000DC01CB019C8B8B8B8B899C89988B8F874F
:101940008F8598890197F1F7988B8F878D8D829578
:10195000807F0E942E0E80E090E0A0E8BFE38B879E
:101960009C87AD87BE876B857C858D859E8520E0B5
:1019700030E04AE753E40E941702DC01CB018F8379
:101980009887A987BA876F81788589859A8520E0AD
:1019900030E040E85FE30E941D0488232CF481E0DE
:1019A00090E09E838D833FC06F81788589859A857D
:1019B00020E03FEF4FE757E40E94BD0318164CF5B7
:1019C0006B857C858D859E8520E030E040E251E48A
:1019D0000E941702DC01CB01BC01CD010E94410035
:1019E000DC01CB019E838D830FC089E190E09C8355
:1019F0008B838B819C810197F1F79C838B838D81F5
:101A00009E8101979E838D838D819E81009769F7CA
:101A100014C06F81788589859A850E944100DC0118
:101A2000CB019E838D838D819E819A838983898159
:101A30009A810197F1F79A8389836D960FB6F8948E
:101A4000DEBF0FBECDBFCF91DF910895DF93CF935F
:101A5000CDB7DEB76D970FB6F894DEBF0FBECDBF22
:101A60008D8F8D8D882F90E00E94E60E80E090E0B3
:101A7000A0E8BFE3898F9A8FAB8FBC8F698D7A8D79
:101A80008B8D9C8D20E030E04AE753E40E941702E2
:101A9000DC01CB018D8B9E8BAF8BB88F6D897E89DE
:101AA0008F89988D20E030E040E85FE30E941D04BC
:101AB00088232CF481E090E09C8B8B8B3FC06D8958
:101AC0007E898F89988D20E03FEF4FE757E40E9491
:101AD000BD0318164CF5698D7A8D8B8D9C8D20E099
:101AE00030E040E251E40E941702DC01CB01BC016E
:101AF000CD010E944100DC01CB019C8B8B8B0FC080
:101B000089E190E09A8B898B89899A890197F1F70D
:101B10009A8B898B8B899C8901979C8B8B8B8B896A
:101B20009C89009769F714C06D897E898F89988D8B
:101B30000E944100DC01CB019C8B8B8B8B899C89A3
:101B4000988B8F878F8598890197F1F7988B8F876E
:101B50008D8D882F90E082959295907F9827807F39
:101B600098270E94E60E80E090E0A0E8BFE38B8714
:101B70009C87AD87BE876B857C858D859E8520E0A3
:101B800030E04AE753E40E941702DC01CB018F8367
:101B90009887A987BA876F81788589859A8520E09B
:101BA00030E040E85FE30E941D0488232CF481E0CC
:101BB00090E09E838D833FC06F81788589859A856B
:101BC00020E03FEF4FE757E40E94BD0318164CF5A5
:101BD0006B857C858D859E8520E030E040E251E478
:101BE0000E941702DC01CB01BC01CD010E94410023
:101BF000DC01CB019E838D830FC089E190E09C8343
:101C00008B838B819C810197F1F79C838B838D81E2
:101C10009E8101979E838D838D819E81009769F7B8
:101C200014C06F81788589859A850E944100DC0106
:101C3000CB019E838D838D819E819A838983898147
:101C40009A810197F1F79A8389836D960FB6F8947C
:101C5000DEBF0FBECDBFCF91DF910895DF93CF934D
:101C6000CDB7DEB72F970FB6F894DEBF0FBECDBF4E
:101C70008F8780E063E040E00E9494078F85982F73
:101C8000991F9927991F81E064E0492F0E949407CA
:101C90008F858295869586958370982F917081E0C7
:101CA00062E0492F0E9494078F8582958695877000
:101CB000982F917081E061E0492F0E9494078F85F1
:101CC00082958F70982F917081E060E0492F0E947B
:101CD00094070E944B0B80E090E0A0E8BFE38B8765
:101CE0009C87AD87BE876B857C858D859E8520E032
:101CF00030E04AE753E40E941702DC01CB018F83F6
:101D00009887A987BA876F81788589859A8520E029
:101D100030E040E85FE30E941D0488232CF481E05A
:101D200090E09E838D833FC06F81788589859A85F9
:101D300020E03FEF4FE757E40E94BD0318164CF533
:101D40006B857C858D859E8520E030E040E251E406
:101D50000E941702DC01CB01BC01CD010E944100B1
:101D6000DC01CB019E838D830FC089E190E09C83D1
:101D70008B838B819C810197F1F79C838B838D8171
:101D80009E8101979E838D838D819E81009769F747
:101D900014C06F81788589859A850E944100DC0195
:101DA000CB019E838D838D819E819A8389838981D6
:101DB0009A810197F1F79A8389832F960FB6F89449
:101DC000DEBF0FBECDBFCF91DF910895DF93CF93DC
:101DD000CDB7DEB72F970FB6F894DEBF0FBECDBFDD
:101DE0008F8780E063E041E00E9494078F85982F01
:101DF000991F9927991F81E064E0492F0E94940759
:101E00008F858295869586958370982F917081E055
:101E100062E0492F0E9494078F858295869587708E
:101E2000982F917081E061E0492F0E9494078F857F
:101E300082958F70982F917081E060E0492F0E9409
:101E400094070E944B0B80E090E0A0E8BFE38B87F3
:101E50009C87AD87BE876B857C858D859E8520E0C0
:101E600030E04AE753E40E941702DC01CB018F8384
:101E70009887A987BA876F81788589859A8520E0B8
:101E800030E040E85FE30E941D0488232CF481E0E9
:101E900090E09E838D833FC06F81788589859A8588
:101EA00020E03FEF4FE757E40E94BD0318164CF5C2
:101EB0006B857C858D859E8520E030E040E251E495
:101EC0000E941702DC01CB01BC01CD010E94410040
:101ED000DC01CB019E838D830FC089E190E09C8360
:101EE0008B838B819C810197F1F79C838B838D8100
:101EF0009E8101979E838D838D819E81009769F7D6
:101F000014C06F81788589859A850E944100DC0123
:101F1000CB019E838D838D819E819A838983898164
:101F20009A810197F1F79A8389832F960FB6F894D7
:101F3000DEBF0FBECDBFCF91DF910895DF93CF936A
:101F40000F92CDB7DEB7898389810E94260C0F904E
:101F5000CF91DF910895DF93CF930F92CDB7DEB786
:101F6000898389810E94260D0F90CF91DF9108957A
:101F7000DF93CF93CDB7DEB7E8970FB6F894DEBF07
:101F80000FBECDBF80E090E0A0EAB1E48DAB9EAB88
:101F9000AFABB8AF6DA97EA98FA998AD20E030E0B6
:101FA0004AE753E40E941702DC01CB0189AB9AABEC
:101FB000ABABBCAB69A97AA98BA99CA920E030E0A6
:101FC00040E85FE30E941D0488232CF481E090E048
:101FD00098AB8FA73FC069A97AA98BA99CA920E0DB
:101FE0003FEF4FE757E40E94BD0318164CF56DA96B
:101FF0007EA98FA998AD20E030E040E251E40E9434
:102000001702DC01CB01BC01CD010E944100DC01C3
:10201000CB0198AB8FA70FC089E190E09EA78DA759
:102020008DA59EA50197F1F79EA78DA78FA598A9CD
:10203000019798AB8FA78FA598A9009769F714C04F
:1020400069A97AA98BA99CA90E944100DC01CB0156
:1020500098AB8FA78FA598A99CA78BA78BA59CA5AC
:102060000197F1F79CA78BA783E00E949E0F80E069
:1020700090E0A0EAB0E48FA398A7A9A7BAA76FA1A0
:1020800078A589A59AA520E030E04AE753E40E94AC
:102090001702DC01CB018BA39CA3ADA3BEA36BA154
:1020A0007CA18DA19EA120E030E040E85FE30E948A
:1020B0001D0488232CF481E090E09AA389A33FC0FB
:1020C0006BA17CA18DA19EA120E03FEF4FE757E4DB
:1020D0000E94BD0318164CF56FA178A589A59AA595
:1020E00020E030E040E251E40E941702DC01CB0125
:1020F000BC01CD010E944100DC01CB019AA389A360
:102100000FC089E190E098A38F8F8F8D98A10197E0
:10211000F1F798A38F8F89A19AA101979AA389A318
:1021200089A19AA1009769F714C06BA17CA18DA128
:102130009EA10E944100DC01CB019AA389A389A141
:102140009AA19E8F8D8F8D8D9E8D0197F1F79E8F19
:102150008D8F82E00E949E0F80E090E0A6E1B3E4C4
:10216000898F9A8FAB8FBC8F698D7A8D8B8D9C8D6B
:1021700020E030E04AE753E40E941702DC01CB0183
:102180008D8B9E8BAF8BB88F6D897E898F89988D53
:1021900020E030E040E85FE30E941D0488232CF437
:1021A00081E090E09C8B8B8B3FC06D897E898F890D
:1021B000988D20E03FEF4FE757E40E94BD031816CB
:1021C0004CF5698D7A8D8B8D9C8D20E030E040E25E
:1021D00051E40E941702DC01CB01BC01CD010E9439
:1021E0004100DC01CB019C8B8B8B0FC089E190E01F
:1021F0009A8B898B89899A890197F1F79A8B898BB8
:102200008B899C8901979C8B8B8B8B899C890097F0
:1022100069F714C06D897E898F89988D0E9441006D
:10222000DC01CB019C8B8B8B8B899C89988B8F8756
:102230008F8598890197F1F7988B8F8788E20E94A4
:102240009E0F80E090E0A0EAB0E48B879C87AD878A
:10225000BE876B857C858D859E8520E030E04AE7D2
:1022600053E40E941702DC01CB018F839887A98772
:10227000BA876F81788589859A8520E030E040E8CB
:102280005FE30E941D0488232CF481E090E09E838C
:102290008D833FC06F81788589859A8520E03FEFE7
:1022A0004FE757E40E94BD0318164CF56B857C85FB
:1022B0008D859E8520E030E040E251E40E941702C7
:1022C000DC01CB01BC01CD010E944100DC01CB014E
:1022D0009E838D830FC089E190E09C838B838B81EB
:1022E0009C810197F1F79C838B838D819E8101975F
:1022F0009E838D838D819E81009769F714C06F81C5
:10230000788589859A850E944100DC01CB019E83F6
:102310008D838D819E819A83898389819A8101979A
:10232000F1F79A8389838FE00E949E0F81E00E94DB
:102330009E0F86E00E949E0FE8960FB6F894DEBFCF
:102340000FBECDBFCF91DF910895DF93CF9300D023
:102350000F92CDB7DEB79B838A8319820EC0898125
:10236000282F30E08A819B81FC01E20FF31F8081DE
:102370000E94AB0F89818F5F89838981282F30E08C
:102380008A819B81FC01E20FF31F8081882339F74A
:102390000F900F900F90CF91DF910895DF93CF931F
:1023A00000D000D00F92CDB7DEB78A836B8381E077
:1023B00089838B818832B0F58A81282F30E03D8374
:1023C0002C838C819D8182309105D9F02C813D81B7
:1023D0002330310534F48C819D818130910561F089
:1023E0001FC02C813D812330310581F08C819D817E
:1023F0008430910581F014C08B8180580E949E0F1B
:1024000012C08B8180540E949E0F0DC08B818C5610
:102410000E949E0F08C08B818C520E949E0F03C0A9
:10242000198201C0198289810F900F900F900F902F
:102430000F90CF91DF910895DF93CF9300D000D01C
:102440000F92CDB7DEB78A836B831982198219C0C8
:102450008A81282F30E03D832C838C819D810097D9
:1024600031F02C813D812130310529F007C08CE10C
:102470000E949E0F03C088E10E949E0F8B818F5F98
:102480008B8399818B81981718F30F900F900F9081
:102490000F900F90CF91DF910895DF93CF9300D0ED
:1024A00000D0CDB7DEB789836A835C834B83898193
:1024B0006A810E94CE118B819C810E94A5110F9090
:1024C0000F900F900F90CF91DF910895DF93CF93EE
:1024D000CDB7DEB727970FB6F894DEBF0FBECDBFDE
:1024E0008B837D836C8381E08A8319828B81282F83
:1024F00030E03F832E838E819F8183309105A9F147
:102500002E813F81243031057CF48E819F81813082
:10251000910519F12E813F812230310514F58E810C
:102520009F810097B1F035C02E813F812530310564
:1025300021F18E819F8185309105DCF02E813F81D4
:1025400026303105F1F08E819F8187309105E9F0C9
:1025500020C080E40E949E0F1DC088E40E949E0F50
:1025600019C080E50E949E0F15C088E50E949E0F4D
:1025700011C080E60E949E0F0DC088E60E949E0F4B
:1025800009C080E70E949E0F05C088E70E949E0F49
:1025900001C01A8219820EC08981282F30E08C81F7
:1025A0009D81FC01E20FF31F80810E94AB0F8981A6
:1025B0008F5F89838981883078F38A8127960FB667
:1025C000F894DEBF0FBECDBFCF91DF910895DF93AA
:1025D000CF9300D000D0CDB7DEB79A8389837C83B8
:1025E0006B8300D000D000D0EDB7FEB731968B8161
:1025F0009C819183808380E690E0938382838981AC
:102600009A81958384830E94B5138DB79EB70696F1
:102610000FB6F8949EBF0FBE8DBF0F900F900F9016
:102620000F90CF91DF910895DF93CF93CDB7DEB7B1
:102630002C970FB6F894DEBF0FBECDBF9C878B875B
:102640008B859C859E012F5F3F4FB9010E94E71249
:10265000CE0101960E94A5112C960FB6F894DEBF0C
:102660000FBECDBFCF91DF910895DF93CF93CDB74C
:10267000DEB764970FB6F894DEBF0FBECDBF82E120
:102680009FE29A8389830E9447060E94B80FCE0179
:102690000396998B888BE3E6F0E0FB8BEA8BFDE0F9
:1026A000FC8BEA89FB8900808A899B8901969B8B38
:1026B0008A8BE889F9890082888999890196998BA2
:1026C000888B9C8991509C8BEC89EE2351F784E098
:1026D00060E00E94CE1189819A810E941413CE017C
:1026E00003960E94A51180E090E064960FB6F894DE
:1026F000DEBF0FBECDBFCF91DF9108952F923F92E5
:102700004F925F926F927F928F929F92AF92BF9201
:10271000CF92DF92EF92FF920F931F93CF93DF93AD
:10272000CDB7DEB7CA1BDB0B0FB6F894DEBF0FBE0A
:10273000CDBF09942A88398848885F846E847D8457
:102740008C849B84AA84B984C884DF80EE80FD8059
:102750000C811B81AA81B981CE0FD11D0FB6F894CF
:10276000DEBF0FBECDBFED010895AEE0B0E0EBEBF4
:10277000F3E10C948C130D891E8986E08C831A83F7
:1027800009838FEF9FE79E838D839E01275E3F4FD6
:10279000CE0101966F89788DA9010E94D9132F81EE
:1027A0003885020F131FF80110822E96E4E00C9476
:1027B000A813ABE0B0E0EFEDF3E10C947E133C0125
:1027C0002B015A01FC0117821682838181FD03C00F
:1027D0006FEF7FEFC6C19AE0892E1E010894211C7D
:1027E000311CF3012381F20123FD859123FF8191A7
:1027F0002F01882309F4B2C1853239F423FD859174
:1028000023FF81912F01853229F490E0B3010E94CA
:10281000CC15E7CF982FFF24EE249924FFE1FF1574
:10282000D0F09B3269F09C3228F4903259F0933208
:1028300091F40EC09D3249F0903369F441E024C018
:1028400052E0F52A84E0F82A28C098E0F92A25C049
:10285000E0E1FE2A22C0F7FC29C0892F80538A308C
:1028600070F4F6FE05C0989C902C1124980E15C0AB
:10287000E89CE02C1124E80EF0E2FF2A0EC09E3204
:1028800029F4F6FC6BC140E4F42A07C09C3619F425
:1028900050E8F52A02C0983649F4F20123FD9591DB
:1028A00023FF91912F01992309F0B8CF892F8554E7
:1028B000833018F08052833038F444E050E0A40EA6
:1028C000B51E5FE359830FC0933631F0933779F02B
:1028D000933509F056C020C0F5018081898342E01C
:1028E00050E0A40EB51E610101E010E012C0F50138
:1028F000C080D180F6FC03C06FEF7FEF02C0692D6E
:1029000070E042E050E0A40EB51EC6010E94C11561
:102910008C015FE7F52214C0F501C080D180F6FC80
:1029200003C06FEF7FEF02C0692D70E042E050E01E
:10293000A40EB51EC6010E94B6158C0150E8F52AFA
:10294000F3FE07C01AC080E290E0B3010E94CC15EC
:10295000EA948E2D90E008171907A8F30EC0F6012F
:10296000F7FC8591F7FE81916F0190E0B3010E9421
:10297000CC15E110EA94015010400115110579F7CA
:10298000EAC0943611F0993669F5F7FE08C0F501F2
:10299000208131814281538184E090E00AC0F501B9
:1029A000808191819C01442737FD4095542F82E01E
:1029B00090E0A80EB91E9FE6F92257FF09C0509576
:1029C0004095309521953F4F4F4F5F4FE0E8FE2AED
:1029D000CA01B901A1012AE030E00E94F815D82E01
:1029E000D21840C0953729F41F2D1F7E2AE030E011
:1029F0001DC01F2D197F9F3661F0903720F4983548
:102A000009F0ACC00FC0903739F0983709F0A6C074
:102A100004C028E030E00AC0106114FD146020E119
:102A200030E004C014FD166020E132E017FF08C05A
:102A3000F501608171818281938144E050E008C09A
:102A4000F50180819181BC0180E090E042E050E09E
:102A5000A40EB51EA1010E94F815D82ED2188FE73A
:102A6000F82EF122F6FE0BC05EEFF522D91438F4F1
:102A7000F4FE07C0F2FC05C08FEEF82202C01D2D47
:102A800001C0192DF4FE0DC0FE01ED0DF11D808178
:102A9000803319F499EEF92208C01F5FF2FE05C0D9
:102AA00003C08F2D867809F01F5F0F2DF3FC14C033
:102AB000F0FE0FC01E1510F09D2C0BC09D2C9E0C1F
:102AC000911A1E2D06C080E290E0B3010E94CC1541
:102AD0001F5F1E15C0F304C01E1510F4E11A01C0DB
:102AE000EE2404FF0FC080E390E0B3010E94CC15F8
:102AF00002FF1DC001FD03C088E790E00EC088E51D
:102B000090E00BC0802F867891F001FF02C08BE22D
:102B100001C080E2F7FC8DE290E0B3010E94CC1589
:102B200006C080E390E0B3010E94CC159A94D914BA
:102B3000C0F3DA94F101ED0DF11D808190E0B30155
:102B40000E94CC15DD20A9F706C080E290E0B30119
:102B50000E94CC15EA94EE20C1F743CEF3016681C2
:102B60007781CB012B96E2E10C949A13FC0105903E
:102B7000615070400110D8F7809590958E0F9F1F7F
:102B80000895FC016150704001900110D8F78095C4
:102B900090958E0F9F1F08950F931F93CF93DF93F0
:102BA0008C01EB018B8181FF1BC082FF0DC02E8148
:102BB0003F818C819D812817390764F4E881F98170
:102BC0000193F983E88306C0E885F985802F09958C
:102BD000892B31F48E819F8101969F838E8302C061
:102BE0000FEF1FEFC801DF91CF911F910F91089553
:102BF000FA01AA27283051F1203181F1E8946F932E
:102C00006E7F6E5F7F4F8F4F9F4FAF4FB1E03ED0D3
:102C1000B4E03CD0670F781F891F9A1FA11D680F71
:102C2000791F8A1F911DA11D6A0F711D811D911DA4
:102C3000A11D20D009F468943F912AE0269F112419
:102C40003019305D3193DEF6CF010895462F47707D
:102C5000405D4193B3E00FD0C9F7F6CF462F4F70D8
:102C6000405D4A3318F0495D31FD4052419302D036
:102C7000A9F7EACFB4E0A6959795879577956795DC
:102C8000BA95C9F700976105710508959B01AC01DC
:102C90000A2E06945795479537952795BA95C9F703
:102CA000620F731F841F951FA01D0895F894FFCF16
:102CB00025640048616E65656E20416D6565720032
:082CC00000000000000000000C
:00000001FF
