:100000000C9434000C9449000C9449000C94490061
:100010000C9449000C9449000C9449000C9449003C
:100020000C9449000C9449000C9449000C9449002C
:100030000C9449000C9449000C9449000C9449001C
:100040000C9449000C9449000C9449000C9449000C
:100050000C9449000C9449000C9449000C944900FC
:100060000C9449000C94490011241FBECFEFD8E036
:10007000DEBFCDBF11E0A0E0B1E0E6E0F6E202C0F5
:1000800005900D92A432B107D9F70E940C100C9480
:1000900001130C940000EF92FF920F931F937B01CA
:1000A0008C0120E030E040E05FE40E94F703882309
:1000B0008CF0C801B70120E030E040E05FE40E942E
:1000C000C3010E9457049B01AC01205030404040C6
:1000D000504806C0C801B7010E9457049B01AC01FB
:1000E000B901CA011F910F91FF90EF900895A0E010
:1000F000B0E0EDE7F0E00C942910DC012B01FA01EF
:100100009C91923008F439C1EB018881823008F467
:1001100033C1943069F4843009F02FC111969C9159
:1001200011978981981709F428C1A3E0B1E025C18E
:10013000843009F421C18230A9F4923009F01DC144
:100140009A01AD0188E0EA010990AE01E901099246
:100150009E018150C1F7E201898111969C9189230A
:10016000818308C1923009F407C112962D903C900A
:100170001397EB018A819B811496AD90BD90CD9031
:10018000DC901797EC80FD800E811F819101281B68
:10019000390BB90137FF04C066277727621B730B41
:1001A000603271050CF061C0121613066CF5370150
:1001B0004801062E04C096948794779467940A9415
:1001C000D2F721E030E040E050E004C0220F331FBE
:1001D000441F551F6A95D2F721503040404050408F
:1001E0002E213F2140235123211531054105510581
:1001F00021F021E030E040E050E079018A01E6287A
:10020000F728082919293CC0232BD1F1260E371EC7
:1002100035014601062E04C096948794779467941E
:100220000A94D2F721E030E040E050E004C0220F11
:10023000331F441F551F6A95D2F72150304040406C
:1002400050402A213B214C215D21211531054105DA
:10025000510521F021E030E040E050E059016A0111
:10026000A628B728C828D9280BC0821593052CF0DA
:100270001C01AA24BB24650103C0EE24FF248701CE
:1002800011969C91D20111968C91981709F445C052
:10029000992339F0A80197012A193B094C095D09F6
:1002A00006C0A60195012E193F09400B510B57FDC1
:1002B00008C0118233822282248335834683578388
:1002C0001DC081E081833382228288279927DC0147
:1002D000821B930BA40BB50B84839583A683B783F2
:1002E0000DC0220F331F441F551F248335834683BF
:1002F00057838281938101979383828324813581FF
:1003000046815781DA01C9010197A109B1098F5FBF
:100310009F4FAF4FBF4328F30BC09183338222829C
:10032000EA0CFB1C0C1D1D1DE482F582068317835D
:1003300083E08083248135814681578157FF1AC02D
:10034000C901AA2797FDA095BA2F81709070A0705F
:10035000B0705695479537952795822B932BA42BF4
:10036000B52B84839583A683B7838281938101967D
:1003700093838283DF0101C0D201CD01CDB7DEB707
:10038000E2E10C944510A0E2B0E0E9ECF1E00C945D
:10039000351069837A838B839C832D833E834F83BF
:1003A0005887E9E0EE2EF12CEC0EFD1ECE010196F1
:1003B000B7010E9480058E010F5E1F4FCE0105968A
:1003C000B8010E9480058A8991E089278A8BC7013C
:1003D000B801AE01475E5F4F0E9477000E94AB04F8
:1003E000A096E6E00C945110A0E2B0E0EAEFF1E054
:1003F0000C94351069837A838B839C832D833E8391
:100400004F835887F9E0EF2EF12CEC0EFD1ECE0144
:100410000196B7010E9480058E010F5E1F4FCE012D
:100420000596B8010E948005C701B801AE01475E7C
:100430005F4F0E9477000E94AB04A096E6E00C9408
:100440005110A0E2B0E0E7E2F2E00C9429106983D9
:100450007A838B839C832D833E834F835887CE0181
:100460000196BE01675F7F4F0E948005CE01059611
:10047000BE016F5E7F4F0E9480059985923088F0A3
:1004800089898230C8F0943019F4823051F404C064
:10049000843029F4923081F483E091E0C6C0923038
:1004A00049F420E09A858A89981321E02A87CE01B1
:1004B0000996BBC0823049F420E09A858A89981356
:1004C00021E02A8BCE014196B0C02D843E844F841A
:1004D00058886D887E888F88988CEE24FF24870149
:1004E000AA24BB24650140E050E060E070E0E0E059
:1004F000F0E0C10181709070892BE9F0E60CF71CE7
:10050000081D191D9A01AB012A0D3B1D4C1D5D1DD7
:1005100080E090E0A0E0B0E0E614F70408051905DB
:1005200020F481E090E0A0E0B0E0BA01A901480F1A
:10053000591F6A1F7B1FAA0CBB1CCC1CDD1C97FE1D
:1005400008C081E090E0A0E0B0E0A82AB92ACA2A59
:10055000DB2A3196E032F10549F0660C771C881CE5
:10056000991C5694479437942794C3CFFA85EA8907
:100570002B893C898B859C85280F391F2E5F3F4F27
:1005800017C0CA0181709070892B61F0169507958C
:10059000F794E79480E090E0A0E0B0E8E82AF92A38
:1005A0000A2B1B2B76956795579547952F5F3F4FE5
:1005B00077FDE7CF0CC0440F551F661F771F17FD4F
:1005C0004160EE0CFF1C001F111F215030404030D5
:1005D00090E0590790E0690790E4790760F32B8F6A
:1005E0003C8FDB01CA018F779070A070B0708034AF
:1005F0009105A105B10561F447FD0AC0E114F104BC
:100600000105110529F0405C5F4F6F4F7F4F407827
:100610001A8EFE1711F081E08A8F4D8F5E8F6F8FDB
:1006200078A383E0898FCE0149960E94AB04A096FF
:10063000E2E10C944510A8E1B0E0E1E2F3E00C94B3
:10064000311069837A838B839C832D833E834F8310
:100650005887B9E0EB2EF12CEC0EFD1ECE01019671
:10066000B7010E9480058E010F5E1F4FCE010596D7
:10067000B8010E9480052985223008F47EC039899E
:10068000323010F4B8017CC08A859A8989278A871C
:10069000243011F0223031F4231709F06EC063E0EA
:1006A00071E06EC0343039F41D861E861F86188AAC
:1006B0001C861B8604C0323021F484E08987B70190
:1006C0005FC02B853C858B899C89281B390B3C8717
:1006D0002B87ED84FE840F851889AD88BE88CF886E
:1006E000D88CEA14FB040C051D0540F4EE0CFF1C2D
:1006F000001F111F215030403C872B8720E030E045
:1007000040E050E080E090E0A0E0B0E460E070E025
:10071000EA14FB040C051D0540F0282B392B4A2B4D
:100720005B2BEA18FB080C091D09B695A795979550
:100730008795EE0CFF1C001F111F6F5F7F4F6F31FD
:10074000710531F7DA01C9018F779070A070B07030
:1007500080349105A105B10561F427FD0AC0E114BB
:10076000F1040105110529F0205C3F4F4F4F5F4F09
:1007700020782D873E874F87588BBE01675F7F4F5C
:10078000CB010E94AB046896EAE00C944D10A8E1FE
:10079000B0E0EDECF3E00C94351069837A838B8341
:1007A0009C832D833E834F83588789E0E82EF12C6C
:1007B000EC0EFD1ECE010196B7010E9480058E0150
:1007C0000F5E1F4FCE010596B8010E9480058985F6
:1007D000823040F08989823028F0C701B8010E9438
:1007E000F80501C08FEF6896E6E00C945110A8E17F
:1007F000B0E0EDEFF3E00C94351069837A838B83DE
:100800009C832D833E834F83588789E0E82EF12C0B
:10081000EC0EFD1ECE010196B7010E9480058E01EF
:100820000F5E1F4FCE010596B8010E948005898595
:10083000823040F08989823028F0C701B8010E94D7
:10084000F80501C08FEF6896E6E00C945110A8E11E
:10085000B0E0EDE2F4E00C94351069837A838B8389
:100860009C832D833E834F83588789E0E82EF12CAB
:10087000EC0EFD1ECE010196B7010E9480058E018F
:100880000F5E1F4FCE010596B8010E948005898535
:10089000823040F08989823028F0C701B8010E9477
:1008A000F80501C081E06896E6E00C945110ACE0D8
:1008B000B0E0EDE5F4E00C94391069837A838B8322
:1008C0009C83CE010196BE016B5F7F4F0E94800525
:1008D0008D81823061F1823050F1843021F48E813B
:1008E000882351F12EC02F81388537FD20C06E81BD
:1008F0002F3131051CF06623F9F023C08EE190E022
:10090000821B930B29853A854B855C8504C05695DF
:100910004795379527958A95D2F76623B1F050957C
:100920004095309521953F4F4F4F5F4F0EC020E0CF
:1009300030E040E050E009C02FEF3FEF4FEF5FE7BE
:1009400004C020E030E040E050E8B901CA012C9634
:10095000E2E00C945510DF92EF92FF920F931F93F9
:10096000FC01E480F58006811781D180808182308E
:1009700048F480E090E0A0E1B0E0E82AF92A0A2BF0
:100980001B2BA5C0843009F49FC0823021F4EE24D3
:10099000FF24870105C0E114F1040105110519F4D4
:1009A000E0E0F0E096C0628173819FEF62387907E2
:1009B0000CF05BC022E83FEF261B370B2A313105D4
:1009C0002CF020E030E040E050E02AC0B801A70160
:1009D000022E04C076956795579547950A94D2F7ED
:1009E00081E090E0A0E0B0E004C0880F991FAA1F4A
:1009F000BB1F2A95D2F70197A109B1098E219F212A
:100A0000A023B1230097A105B10521F081E090E07A
:100A1000A0E0B0E09A01AB01282B392B4A2B5B2BCD
:100A2000DA01C9018F779070A070B07080349105A1
:100A3000A105B10539F427FF09C0205C3F4F4F4F96
:100A40005F4F04C0215C3F4F4F4F5F4FE0E0F0E04D
:100A50002030A0E03A07A0E04A07A0E45A0710F0CF
:100A6000E1E0F0E079018A0127C06038710564F5A2
:100A7000FB01E158FF4FD801C7018F779070A0703C
:100A8000B07080349105A105B10539F4E7FE0DC0C1
:100A900080E490E0A0E0B0E004C08FE390E0A0E04C
:100AA000B0E0E80EF91E0A1F1B1F17FF05C01695C0
:100AB0000795F794E794319687E016950795F79494
:100AC000E7948A95D1F705C0EE24FF248701EFEF64
:100AD000F0E06E2F679566276795902F9F77D794E4
:100AE000DD24D7948E2F8695492F462B582F5D29CC
:100AF000B701CA011F910F91FF90EF90DF90089509
:100B0000FC01DB01408151812281622F6F7770E00F
:100B1000221F2227221F9381892F880F822B282FA3
:100B200030E0991F9927991F11969C9311972115D1
:100B30003105A9F5411551056105710511F482E0F2
:100B400037C082E89FEF13969C938E9312979A0179
:100B5000AB0167E0220F331F441F551F6A95D1F781
:100B600083E08C930DC0220F331F441F551F129634
:100B70008D919C911397019713969C938E93129746
:100B8000203080E0380780E0480780E4580758F3B9
:100B900014962D933D934D935C93179708952F3F93
:100BA000310579F4411551056105710519F484E0A9
:100BB0008C93089564FF03C081E08C9312C01C9253
:100BC00010C02F57304013963C932E93129783E01A
:100BD0008C9387E0440F551F661F771F8A95D1F7C6
:100BE000706414964D935D936D937C93179708955D
:100BF0001F93DC01FB019C91923008F447C0808177
:100C0000823008F443C0943051F411961C91843022
:100C100099F58181682F70E0611B71093FC08430B4
:100C200021F0923031F48230B9F18181882389F149
:100C30002DC011961C9111978230F1F08181181707
:100C4000D9F412962D913C9113978281938182174A
:100C5000930794F028173907BCF014968D919D9155
:100C60000D90BC91A02D2481358146815781281794
:100C700039074A075B0718F4112341F00AC08217AD
:100C80009307A407B50740F4112319F061E070E061
:100C900005C06FEF7FEF02C060E070E0CB011F91F5
:100CA0000895DF93CF93CDB7DEB7E4E2F0E083E0C1
:100CB0008083E7E2F0E08FE08083EAE2F0E08FEF0C
:100CC0008083E5E2F0E08CE38083E8E2F0E08FE00F
:100CD0008083EBE2F0E01082CF91DF910895DF9303
:100CE000CF93CDB7DEB72C970FB6F894DEBF0FBE0B
:100CF000CDBF8A836B834C8381E089838A81833073
:100D000008F0C8C08B81883008F0C4C08C8188236B
:100D100021F08C81813009F0BDC08A81282F30E01C
:100D20003C872B878B859C858130910509F443C0D6
:100D30002B853C852230310509F475C08B859C8557
:100D4000009709F0A8C08C81282F30E03A872987C6
:100D500089859A850097D1F029853A85213031051A
:100D600009F099C0A4E2B0E0E4E2F0E08081482F0D
:100D70008B81282F30E081E090E0022E02C0880FA6
:100D8000991F0A94E2F7842B8C9385C0A4E2B0E00B
:100D9000E4E2F0E08081482F8B81282F30E081E071
:100DA00090E0022E02C0880F991F0A94E2F7809506
:100DB00084238C9370C08C81282F30E038872F8358
:100DC0008F8198850097D1F02F81388521303105AA
:100DD00009F061C0A7E2B0E0E7E2F0E08081482FCF
:100DE0008B81282F30E081E090E0022E02C0880F36
:100DF000991F0A94E2F7842B8C934DC0A7E2B0E0D0
:100E0000E7E2F0E08081482F8B81282F30E081E0FD
:100E100090E0022E02C0880F991F0A94E2F7809595
:100E200084238C9338C08C81282F30E03E832D831F
:100E30008D819E810097C9F02D813E812130310541
:100E400051F5AAE2B0E0EAE2F0E08081482F8B8120
:100E5000282F30E081E090E0022E02C0880F991F19
:100E60000A94E2F7842B8C9316C0AAE2B0E0EAE27F
:100E7000F0E08081482F8B81282F30E081E090E0E6
:100E8000022E02C0880F991F0A94E2F780958423EE
:100E90008C9301C0198289812C960FB6F894DEBF1D
:100EA0000FBECDBFCF91DF910895DF93CF93CDB724
:100EB000DEB72C970FB6F894DEBF0FBECDBF8A8386
:100EC0006B834C8381E089838A81833008F0C8C0BA
:100ED0008B81883008F0C4C08C81813021F08C81F6
:100EE000882309F0BDC08A81282F30E03C872B87FA
:100EF0008B859C858130910509F443C02B853C8509
:100F00002230310509F475C08B859C85009709F066
:100F1000A8C08C81282F30E03A87298789859A8557
:100F20000097D1F029853A852130310509F099C023
:100F3000A5E2B0E0E5E2F0E08081482F8B81282F28
:100F400030E081E090E0022E02C0880F991F0A94E1
:100F5000E2F7842B8C9385C0A5E2B0E0E5E2F0E0F7
:100F60008081482F8B81282F30E081E090E0022E95
:100F700002C0880F991F0A94E2F7809584238C930E
:100F800070C08C81282F30E038872F838F8198851F
:100F90000097D1F02F8138852130310509F061C0EB
:100FA000A8E2B0E0E8E2F0E08081482F8B81282FB2
:100FB00030E081E090E0022E02C0880F991F0A9471
:100FC000E2F7842B8C934DC0A8E2B0E0E8E2F0E0B9
:100FD0008081482F8B81282F30E081E090E0022E25
:100FE00002C0880F991F0A94E2F7809584238C939E
:100FF00038C08C81282F30E03E832D838D819E81E7
:101000000097C9F02D813E812130310551F5ABE2C9
:10101000B0E0EBE2F0E08081482F8B81282F30E0B8
:1010200081E090E0022E02C0880F991F0A94E2F737
:10103000842B8C9316C0ABE2B0E0EBE2F0E0808151
:10104000482F8B81282F30E081E090E0022E02C0F3
:10105000880F991F0A94E2F7809584238C9301C02E
:10106000198289812C960FB6F894DEBF0FBECDBFD2
:10107000CF91DF910895DF93CF93CDB7DEB7289757
:101080000FB6F894DEBF0FBECDBF8B836C835E833B
:101090004D8381E08A838B81833008F076C08C8118
:1010A000883008F072C08D819E81009709F46DC070
:1010B0008B81282F30E038872F834F81588541302E
:1010C000510549F18F8198858230910509F440C01E
:1010D0002F8138852115310509F058C0E3E2F0E091
:1010E0008081282F30E08C81882F90E0A90102C0F8
:1010F000559547958A95E2F7CA0181708983898160
:10110000813029F4ED81FE8181E080833FC0ED8153
:10111000FE8110823BC0E6E2F0E08081282F30E0C3
:101120008C81882F90E0A90102C0559547958A953A
:10113000E2F7CA01817089838981813029F4ED81C8
:10114000FE8181E0808322C0ED81FE8110821EC07D
:10115000E9E2F0E08081282F30E08C81882F90E058
:10116000A90102C0559547958A95E2F7CA01817099
:1011700089838981813029F4ED81FE8181E080833A
:1011800005C0ED81FE81108201C01A828A812896F5
:101190000FB6F894DEBF0FBECDBFCF91DF9108959B
:1011A000DF93CF93CDB7DEB72B970FB6F894DEBFA2
:1011B0000FBECDBF8A836B8381E089838A818330B0
:1011C00008F060C08B81882321F08B81813009F089
:1011D00059C08A81282F30E03B872A878A859B85E2
:1011E0008130910509F12A853B852230310599F13D
:1011F0008A859B85009709F046C08B81282F30E0B7
:101200003987288788859985009751F02885398501
:1012100021303105C1F5E4E2F0E08FEF808333C087
:10122000E4E2F0E010822FC08B81282F30E03F8372
:101230002E838E819F81009751F02E813F81213036
:10124000310509F5E7E2F0E08FEF80831CC0E7E2AB
:10125000F0E0108218C08B81282F30E03D832C8372
:101260008C819D81009751F02C813D812130310589
:1012700051F4EAE2F0E08FEF808305C0EAE2F0E0AB
:10128000108201C0198289812B960FB6F894DEBFB7
:101290000FBECDBFCF91DF910895DF93CF9300D0E4
:1012A00000D00F92CDB7DEB78A836B8381E089834C
:1012B0008A81282F30E03D832C838C819D81813071
:1012C000910571F02C813D812230310571F08C81C6
:1012D0009D81009779F4E5E2F0E08B8180830BC07B
:1012E000E8E2F0E08B81808306C0EBE2F0E08B81E6
:1012F000808301C0198289810F900F900F900F9009
:101300000F90CF91DF910895DF93CF9300D000D05D
:1013100000D0CDB7DEB78A837C836B8381E089837D
:101320008A81823060F18B819C81009741F18A81B2
:10133000282F30E03E832D838D819E818130910561
:1013400081F02D813E812230310591F08D819E8189
:101350000097B1F4E3E2F0E08081EB81FC818083CF
:101360000FC0E6E2F0E08081EB81FC81808308C061
:10137000E9E2F0E08081EB81FC81808301C0198289
:10138000898126960FB6F894DEBF0FBECDBFCF91F0
:10139000DF910895DF93CF93CDB7DEB765970FB692
:1013A000F894DEBF0FBECDBF9D8B8C8B81E08A8B06
:1013B000198A188A81E08B8B1F868C899D890097FA
:1013C00009F4E1C0EC89FD898AE08083198AD6C0DE
:1013D0008989882F90E0FC01E55FFE4F908181E0D4
:1013E000692F40E00E945507188AB2C08889882F6B
:1013F00090E0FC01E15FFE4F90819E012D5E3F4F2A
:1014000080E0692FA9010E943B088B89882309F09D
:101410009CC080E090E0A0EAB1E48B879C87AD8718
:10142000BE876B857C858D859E8520E030E04AE710
:1014300055E40E942102DC01CB018F839887A987A4
:10144000BA876F81788589859A8520E030E040E809
:101450005FE30E94270488232CF481E090E09E83C0
:101460008D833FC06F81788589859A8520E03FEF25
:101470004FE757E40E94C70318164CF56B857C852F
:101480008D859E8520E030E040E251E40E942102FB
:10149000DC01CB01BC01CD010E944B00DC01CB0182
:1014A0009E838D830FC080E991E09C838B838B8129
:1014B0009C810197F1F79C838B838D819E8101979D
:1014C0009E838D838D819E81009769F724C06F81F3
:1014D000788589859A850E944B00DC01CB019E832B
:1014E0008D838D819E819A83898389819A810197D9
:1014F000F1F79A8389830FC08889882F90E0FC01D7
:10150000E15FFE4F90819E012D5E3F4F80E0692F8D
:10151000A9010E943B088B89882371F38989482F90
:1015200050E08889282F30E0CA01880F991F880F62
:10153000991F820F931FFC01ED5EFE4F8081EC89A5
:10154000FD89808381E08F8707C088898F5F888BC2
:101550008889843008F44ACF8989882F90E0FC017B
:10156000E55FFE4F908181E0692F41E00E945507C1
:101570008F85882349F489898F5F898B8989843095
:1015800008F426CF01C01A8A8A8965960FB6F894A6
:10159000DEBF0FBECDBFCF91DF910895DF93CF9314
:1015A000CDB7DEB768970FB6F894DEBF0FBECDBFDC
:1015B00080E061E041E00E94550780E090E0A0E813
:1015C000BFE38D8B9E8BAF8BB88F6D897E898F89A2
:1015D000988D2BEA3AEA4AEA50E40E942102DC01A3
:1015E000CB01898B9A8BAB8BBC8B69897A898B8970
:1015F0009C8920E030E040E85FE30E9427048823D4
:101600001CF481E0888B91C069897A898B899C89D7
:1016100020E030E04FE753E40E94C70318160CF0B7
:101620007BC06D897E898F89988D20E030E04AE704
:1016300054E40E941B03DC01CB018C879D87AE879D
:10164000BF876C857D858E859F8520E030E04AE7E9
:1016500055E40E942102DC01CB0188879987AA8783
:10166000BB87688579858A859B8520E030E040E8E6
:101670005FE30E94270488232CF481E090E09F839D
:101680008E833FC0688579858A859B8520E03FEF02
:101690004FE757E40E94C70318164CF56C857D850B
:1016A0008E859F8520E030E040E251E40E942102D7
:1016B000DC01CB01BC01CD010E944B00DC01CB0160
:1016C0009F838E830FC080E991E09D838C838C8102
:1016D0009D810197F1F79D838C838E819F81019776
:1016E0009F838E838E819F81009769F724C06885D0
:1016F00079858A859B850E944B00DC01CB019F8305
:101700008E838E819F819B838A838A819B810197AF
:10171000F1F79B838A830FC069897A898B899C89B9
:101720000E944B00DC01CB01888B888989838981E9
:101730008A95F1F7898380E061E040E00E945507D7
:1017400068960FB6F894DEBF0FBECDBFCF91DF9184
:101750000895DF93CF930F92CDB7DEB7898380E0F2
:1017600060E040E00E94550782E069810E944D09D7
:101770000E94CE0A0F90CF91DF910895DF93CF930F
:101780000F92CDB7DEB7898380E060E041E00E9430
:10179000550782E069810E944D090E94CE0A0F9090
:1017A000CF91DF9108950F931F93DF93CF93CDB720
:1017B000DEB7CC54D0400FB6F894DEBF0FBECDBF1D
:1017C000FE01E75BFF4F80E090E0A0E2B2E480839F
:1017D0009183A283B3838E010B5B1F4FFE01E75BF6
:1017E000FF4F608171818281938120E030E04AE780
:1017F00055E40E942102DC01CB01F8018083918332
:10180000A283B383FE01EB5BFF4F60817181828114
:10181000938120E030E040E85FE30E9427048823C2
:1018200044F4FE01ED5BFF4F81E090E09183808303
:1018300064C0FE01EB5BFF4F608171818281938107
:1018400020E03FEF4FE757E40E94C70318160CF063
:1018500043C0FE01E75BFF4F60817181828193810C
:1018600020E030E040E251E40E942102DC01CB01A3
:101870008E010D5B1F4FBC01CD010E944B00DC01AE
:10188000CB01F801918380831FC0FE01EF5BFF4F06
:1018900080E991E091838083FE01EF5BFF4F8081BF
:1018A00091810197F1F7FE01EF5BFF4F91838083F8
:1018B000DE01AD5BBF4FFE01ED5BFF4F808191818B
:1018C000019711969C938E93FE01ED5BFF4F8081F3
:1018D00091810097D1F624C08E010D5B1F4FFE0150
:1018E000EB5BFF4F60817181828193810E944B008D
:1018F000DC01CB01F80191838083FE01ED5BFF4F9A
:1019000080819181FE01FF9691838083FE01FF9685
:10191000808191810197F1F7FE01FF969183808389
:1019200088E30E94A90B80E090E0A0E2B2E48BAFD4
:101930009CAFADAFBEAF6BAD7CAD8DAD9EAD2BEAB8
:101940003AEA4AEA50E40E942102DC01CB018FAB63
:1019500098AFA9AFBAAF6FA978AD89AD9AAD20E0C5
:1019600030E040E85FE30E94270488231CF481E014
:101970008EAB91C06FA978AD89AD9AAD20E030E013
:101980004FE753E40E94C70318160CF07BC06BAD01
:101990007CAD8DAD9EAD20E030E04AE754E40E947E
:1019A0001B03DC01CB018AAB9BABACABBDAB6AA923
:1019B0007BA98CA99DA920E030E04AE755E40E946C
:1019C0002102DC01CB018EA79FA7A8ABB9AB6EA506
:1019D0007FA588A999A920E030E040E85FE30E9454
:1019E000270488232CF481E090E09DA78CA73FC0BA
:1019F0006EA57FA588A999A920E03FEF4FE757E49E
:101A00000E94C70318164CF56AA97BA98CA99DA949
:101A100020E030E040E251E40E942102DC01CB01F1
:101A2000BC01CD010E944B00DC01CB019DA78CA71E
:101A30000FC080E991E09BA78AA78AA59BA5019783
:101A4000F1F79BA78AA78CA59DA501979DA78CA7B9
:101A50008CA59DA5009769F724C06EA57FA588A9D0
:101A600099A90E944B00DC01CB019DA78CA78CA5F6
:101A70009DA599A788A788A599A50197F1F799A78A
:101A800088A70FC06FA978AD89AD9AAD0E944B00B1
:101A9000DC01CB018EAB8EA98FA38FA18A95F1F7C4
:101AA0008FA38EE00E94A90B80E090E0A0E2B2E458
:101AB0008BA39CA3ADA3BEA36BA17CA18DA19EA172
:101AC0002BEA3AEA4AEA50E40E942102DC01CB0107
:101AD0008F8F98A3A9A3BAA36F8D78A189A19AA18A
:101AE00020E030E040E85FE30E94270488231CF4F4
:101AF00081E08E8F91C06F8D78A189A19AA120E09D
:101B000030E04FE753E40E94C70318160CF07BC087
:101B10006BA17CA18DA19EA120E030E04AE754E4B6
:101B20000E941B03DC01CB018A8F9B8FAC8FBD8F82
:101B30006A8D7B8D8C8D9D8D20E030E04AE755E4E9
:101B40000E942102DC01CB018E8B9F8BA88FB98F65
:101B50006E897F89888D998D20E030E040E85FE3D1
:101B60000E94270488232CF481E090E09D8B8C8BCD
:101B70003FC06E897F89888D998D20E03FEF4FE7C8
:101B800057E40E94C70318164CF56A8D7B8D8C8D27
:101B90009D8D20E030E040E251E40E942102DC0112
:101BA000CB01BC01CD010E944B00DC01CB019D8B20
:101BB0008C8B0FC080E991E09B8B8A8B8A899B89F3
:101BC0000197F1F79B8B8A8B8C899D8901979D8B5F
:101BD0008C8B8C899D89009769F724C06E897F89D9
:101BE000888D998D0E944B00DC01CB019D8B8C8BE5
:101BF0008C899D89998B888B888999890197F1F7C0
:101C0000998B888B0FC06F8D78A189A19AA10E94B2
:101C10004B00DC01CB018E8F8E8D8F878F858A954F
:101C2000F1F78F8781E00E94A90B80E090E0A0E0AF
:101C3000B0E48B879C87AD87BE876B857C858D855F
:101C40009E8520E030E04AE755E40E942102DC0155
:101C5000CB018F839887A987BA876F81788589851B
:101C60009A8520E030E040E85FE30E942704882363
:101C70002CF481E090E09E838D833FC06F81788556
:101C800089859A8520E03FEF4FE757E40E94C7031C
:101C900018164CF56B857C858D859E8520E030E09F
:101CA00040E251E40E942102DC01CB01BC01CD01E4
:101CB0000E944B00DC01CB019E838D830FC080E925
:101CC00091E09C838B838B819C810197F1F79C83AE
:101CD0008B838D819E8101979E838D838D819E81D3
:101CE000009769F714C06F81788589859A850E946D
:101CF0004B00DC01CB019E838D838D819E819A8375
:101D0000898389819A810197F1F79A83898386E093
:101D10000E94A90BC45BDF4F0FB6F894DEBF0FBE65
:101D2000CDBFCF91DF911F910F910895DF93CF9396
:101D300000D00F92CDB7DEB79B838A8319820EC085
:101D40008981282F30E08A819B81FC01E20FF31FFB
:101D500080810E94BE0B89818F5F89838981282FB2
:101D600030E08A819B81FC01E20FF31F8081882390
:101D700039F70F900F900F90CF91DF910895DF9377
:101D8000CF9300D000D00F92CDB7DEB78A836B839C
:101D900081E089838B818832E0F48A81282F30E0CA
:101DA0003D832C838C819D818130910531F02C8184
:101DB0003D812230310531F00AC08B8180580E946C
:101DC000A90B08C08B8180540E94A90B03C0198203
:101DD00001C0198289810F900F900F900F900F9082
:101DE000CF91DF910895DF93CF9300D000D00F9271
:101DF000CDB7DEB78A836B831982198219C08A81B5
:101E0000282F30E03D832C838C819D81009731F019
:101E10002C813D812130310529F007C08CE10E94E1
:101E2000A90B03C088E10E94A90B8B818F5F8B8374
:101E300099818B81981718F30F900F900F900F9046
:101E40000F90CF91DF910895DF93CF9300D000D012
:101E5000CDB7DEB789836A835C834B8389816A81CE
:101E60000E94BF0E8B819C810E94960E0F900F9056
:101E70000F900F90CF91DF910895DF93CF93CDB75F
:101E8000DEB727970FB6F894DEBF0FBECDBF8B83AA
:101E90007D836C8381E08A8319828B81282F30E0D7
:101EA0003F832E838E819F8183309105A9F12E81FE
:101EB0003F81243031057CF48E819F8181309105F2
:101EC00019F12E813F812230310514F58E819F81D9
:101ED0000097B1F035C02E813F812530310521F1C9
:101EE0008E819F8185309105DCF02E813F812630E7
:101EF0003105F1F08E819F8187309105E9F020C096
:101F000080E40E94A90B1DC088E40E94A90B19C09F
:101F100080E50E94A90B15C088E50E94A90B11C09D
:101F200080E60E94A90B0DC088E60E94A90B09C09B
:101F300080E70E94A90B05C088E70E94A90B01C099
:101F40001A8219820EC08981282F30E08C819D81F0
:101F5000FC01E20FF31F80810E94BE0B89818F5F1D
:101F600089838981883078F38A8127960FB6F8941F
:101F7000DEBF0FBECDBFCF91DF910895DF93CF932A
:101F800000D000D0CDB7DEB79A8389837C836B8382
:101F900000D000D000D0EDB7FEB731968B819C8188
:101FA0009183808380E091E09383828389819A8109
:101FB000958384830E9460108DB79EB706960FB6F6
:101FC000F8949EBF0FBE8DBF0F900F900F900F9093
:101FD000CF91DF910895DF93CF93CDB7DEB72C97E4
:101FE0000FB6F894DEBF0FBECDBF9C878B878B8565
:101FF0009C859E012F5F3F4FB9010E94BE0FCE010D
:1020000001960E94960E2C960FB6F894DEBF0FBE76
:10201000CDBFCF91DF910895DF93CF930F92CDB7CE
:10202000DEB70E9451060E94D30B8AE08983CE015D
:1020300001960E94CA0989818A3029F4CE0101964D
:102040000E94CA09F8CF89810E94BE0B8AE0898369
:10205000F2CF2F923F924F925F926F927F928F9228
:102060009F92AF92BF92CF92DF92EF92FF920F9327
:102070001F93CF93DF93CDB7DEB7CA1BDB0B0FB631
:10208000F894DEBF0FBECDBF09942A8839884888EE
:102090005F846E847D848C849B84AA84B984C88484
:1020A000DF80EE80FD800C811B81AA81B981CE0F7B
:1020B000D11D0FB6F894DEBF0FBECDBFED01089560
:1020C000AEE0B0E0E6E6F0E10C9437100D891E8931
:1020D00086E08C831A8309838FEF9FE79E838D832D
:1020E0009E01275E3F4FCE0101966F89788DA90131
:1020F0000E9484102F813885020F131FF80110826F
:102100002E96E4E00C945310ABE0B0E0EAE8F0E186
:102110000C9429103C012B015A01FC0117821682F4
:10212000838181FD03C06FEF7FEFC6C19AE0892EE6
:102130001E010894211C311CF3012381F20123FDAF
:10214000859123FF81912F01882309F4B2C1853243
:1021500039F423FD859123FF81912F01853229F4E4
:1021600090E0B3010E947712E7CF982FFF24EE246E
:102170009924FFE1FF15D0F09B3269F09C3228F4DE
:10218000903259F0933291F40EC09D3249F0903361
:1021900069F441E024C052E0F52A84E0F82A28C01E
:1021A00098E0F92A25C0E0E1FE2A22C0F7FC29C008
:1021B000892F80538A3070F4F6FE05C0989C902CCD
:1021C0001124980E15C0E89CE02C1124E80EF0E2D2
:1021D000FF2A0EC09E3229F4F6FC6BC140E4F42ABB
:1021E00007C09C3619F450E8F52A02C0983649F425
:1021F000F20123FD959123FF91912F01992309F07D
:10220000B8CF892F8554833018F08052833038F44A
:1022100044E050E0A40EB51E5FE359830FC093362F
:1022200031F0933779F0933509F056C020C0F501AD
:102230008081898342E050E0A40EB51E610101E077
:1022400010E012C0F501C080D180F6FC03C06FEF32
:102250007FEF02C0692D70E042E050E0A40EB51E91
:10226000C6010E946C128C015FE7F52214C0F501D3
:10227000C080D180F6FC03C06FEF7FEF02C0692DF4
:1022800070E042E050E0A40EB51EC6010E9461124B
:102290008C0150E8F52AF3FE07C01AC080E290E0F6
:1022A000B3010E947712EA948E2D90E00817190767
:1022B000A8F30EC0F601F7FC8591F7FE81916F013E
:1022C00090E0B3010E947712E110EA9401501040AF
:1022D0000115110579F7EAC0943611F0993669F5C0
:1022E000F7FE08C0F501208131814281538184E0ED
:1022F00090E00AC0F501808191819C01442737FD5F
:102300004095542F82E090E0A80EB91E9FE6F92276
:1023100057FF09C050954095309521953F4F4F4F3D
:102320005F4FE0E8FE2ACA01B901A1012AE030E0CE
:102330000E94A312D82ED21840C0953729F41F2D21
:102340001F7E2AE030E01DC01F2D197F9F3661F0EF
:10235000903720F4983509F0ACC00FC0903739F0B1
:10236000983709F0A6C004C028E030E00AC0106128
:1023700014FD146020E130E004C014FD166020E17B
:1023800032E017FF08C0F50160817181828193817D
:1023900044E050E008C0F50180819181BC0180E0FB
:1023A00090E042E050E0A40EB51EA1010E94A312ED
:1023B000D82ED2188FE7F82EF122F6FE0BC05EEF72
:1023C000F522D91438F4F4FE07C0F2FC05C08FEEF4
:1023D000F82202C01D2D01C0192DF4FE0DC0FE0112
:1023E000ED0DF11D8081803319F499EEF92208C0BA
:1023F0001F5FF2FE05C003C08F2D867809F01F5FB6
:102400000F2DF3FC14C0F0FE0FC01E1510F09D2C14
:102410000BC09D2C9E0C911A1E2D06C080E290E0F0
:10242000B3010E9477121F5F1E15C0F304C01E1572
:1024300010F4E11A01C0EE2404FF0FC080E390E025
:10244000B3010E94771202FF1DC001FD03C088E79F
:1024500090E00EC088E590E00BC0802F867891F068
:1024600001FF02C08BE201C080E2F7FC8DE290E048
:10247000B3010E94771206C080E390E0B3010E948E
:1024800077129A94D914C0F3DA94F101ED0DF11D8D
:10249000808190E0B3010E947712DD20A9F706C089
:1024A00080E290E0B3010E947712EA94EE20C1F737
:1024B00043CEF30166817781CB012B96E2E10C9448
:1024C0004510FC010590615070400110D8F78095CF
:1024D00090958E0F9F1F0895FC01615070400190F0
:1024E0000110D8F7809590958E0F9F1F08950F9338
:1024F0001F93CF93DF938C01EB018B8181FF1BC076
:1025000082FF0DC02E813F818C819D812817390764
:1025100064F4E881F9810193F983E88306C0E885D2
:10252000F985802F0995892B31F48E819F81019641
:102530009F838E8302C00FEF1FEFC801DF91CF9101
:102540001F910F910895FA01AA27283051F12031E7
:1025500081F1E8946F936E7F6E5F7F4F8F4F9F4F37
:10256000AF4FB1E03ED0B4E03CD0670F781F891F79
:102570009A1FA11D680F791F8A1F911DA11D6A0F47
:10258000711D811D911DA11D20D009F468943F91FA
:102590002AE0269F11243019305D3193DEF6CF01F9
:1025A0000895462F4770405D4193B3E00FD0C9F7BF
:1025B000F6CF462F4F70405D4A3318F0495D31FD2C
:1025C0004052419302D0A9F7EACFB4E0A69597957F
:1025D000879577956795BA95C9F700976105710555
:1025E00008959B01AC010A2E06945795479537959F
:1025F0002795BA95C9F7620F731F841F951FA01DF9
:062600000895F894FFCFDD
:102606002564000000000000000000000102030233
:102616000304053738392F3435362A3132332D2520
:04262600303D2B0018
:00000001FF
