:100000000C9434000C9451000C9451000C94510049
:100010000C9451000C9451000C9451000C9451001C
:100020000C9451000C9451000C9451000C9451000C
:100030000C9451000C9451000C9451000C945100FC
:100040000C9451000C9451000C9451000C945100EC
:100050000C9451000C9444010C9451000C945100E8
:100060000C9451000C94510011241FBECFEFD8E026
:10007000DEBFCDBF11E0A0E0B1E0E6EAFCE002C0E7
:1000800005900D92A230B107D9F711E0A2E0B1E0DE
:1000900001C01D92A430B107E1F70E9472050C94D3
:1000A00051060C940000DF93CF93CDB7DEB7ACE7D9
:1000B000B0E0ECE7F0E0808180648C93ACE7B0E0E6
:1000C000ECE7F0E080818F778C93ACE7B0E0ECE771
:1000D000F0E080818F7D8C93AAE7B0E0EAE7F0E062
:1000E000808181608C93AAE7B0E0EAE7F0E080814C
:1000F00082608C93AAE7B0E0EAE7F0E08081846058
:100100008C93AAE7B0E0EAE7F0E080818F7D8C93E2
:10011000AAE7B0E0EAE7F0E0808180688C93CF91B5
:10012000DF910895DF93CF93CDB7DEB727970FB652
:10013000F894DEBF0FBECDBF8D837F836E8381E0D9
:100140008C831B821A8219828D81883008F047C007
:100150008E819F81009709F442C0ACE7B0E0ECE7E4
:10016000F0E08081807F8C93ACE7B0E0ECE7F0E0DA
:1001700090818D81892B8C93AAE7B0E0EAE7F0E0CB
:10018000808180648C9307C08A819B8101969B83C8
:100190008A8381E08983EAE7F0E0808182958F702D
:1001A000882F90E081709070009731F48A819B8154
:1001B00023EC8035920740F38981813089F4E8E7A8
:1001C000F0E080819181EE81FF8191838083AAE7B5
:1001D000B0E0EAE7F0E0808180618C9301C01C828E
:1001E0008C8127960FB6F894DEBF0FBECDBFCF919E
:1001F000DF910895DF93CF9300D000D0CDB7DEB765
:100200008A837C836B8381E089838A81883098F537
:100210008B819C81009779F1EAE7F0E080818295FB
:100220008F70882F90E081709070009729F58B81F6
:100230009C819093030180930201ACE7B0E0ECE76E
:10024000F0E08081807F8C93ACE7B0E0ECE7F0E0F9
:1002500090818A81892B8C93AAE7B0E0EAE7F0E0ED
:10026000808180648C93AAE7B0E0EAE7F0E08081C7
:1002700088608C9301C0198289810F900F900F9034
:100280000F90CF91DF9108951F920F920FB60F92AA
:1002900011242F933F934F935F936F937F938F938B
:1002A0009F93AF93BF93EF93FF93DF93CF93CDB71C
:1002B000DEB7E0910201F0910301A8E7B0E08D9173
:1002C0009C910995CF91DF91FF91EF91BF91AF91F3
:1002D0009F918F917F916F915F914F913F912F915E
:1002E0000F900FBE0F901F901895DF93CF93CDB74F
:1002F000DEB7E4E2F0E087E08083E7E2F0E010823E
:10030000EAE2F0E01082E5E2F0E01082E8E2F0E0FC
:100310001082EBE2F0E01082CF91DF910895DF933D
:10032000CF93CDB7DEB72C970FB6F894DEBF0FBED4
:10033000CDBF8A836B834C8381E089838A8183303C
:1003400008F0C8C08B81883008F0C4C08C81882335
:1003500021F08C81813009F0BDC08A81282F30E0E6
:100360003C872B878B859C858130910509F443C0A0
:100370002B853C852230310509F475C08B859C8521
:10038000009709F0A8C08C81282F30E03A87298790
:1003900089859A850097D1F029853A8521303105E4
:1003A00009F099C0A4E2B0E0E4E2F0E08081482FD7
:1003B0008B81282F30E081E090E0022E02C0880F70
:1003C000991F0A94E2F7842B8C9385C0A4E2B0E0D5
:1003D000E4E2F0E08081482F8B81282F30E081E03B
:1003E00090E0022E02C0880F991F0A94E2F78095D0
:1003F00084238C9370C08C81282F30E038872F8322
:100400008F8198850097D1F02F8138852130310573
:1004100009F061C0A7E2B0E0E7E2F0E08081482F98
:100420008B81282F30E081E090E0022E02C0880FFF
:10043000991F0A94E2F7842B8C934DC0A7E2B0E099
:10044000E7E2F0E08081482F8B81282F30E081E0C7
:1004500090E0022E02C0880F991F0A94E2F780955F
:1004600084238C9338C08C81282F30E03E832D83E9
:100470008D819E810097C9F02D813E81213031050B
:1004800051F5AAE2B0E0EAE2F0E08081482F8B81EA
:10049000282F30E081E090E0022E02C0880F991FE3
:1004A0000A94E2F7842B8C9316C0AAE2B0E0EAE249
:1004B000F0E08081482F8B81282F30E081E090E0B0
:1004C000022E02C0880F991F0A94E2F780958423B8
:1004D0008C9301C0198289812C960FB6F894DEBFE7
:1004E0000FBECDBFCF91DF910895DF93CF93CDB7EE
:1004F000DEB72C970FB6F894DEBF0FBECDBF8A8350
:100500006B834C8381E089838A81833008F0C8C083
:100510008B81883008F0C4C08C81813021F08C81BF
:10052000882309F0BDC08A81282F30E03C872B87C3
:100530008B859C858130910509F443C02B853C85D2
:100540002230310509F475C08B859C85009709F030
:10055000A8C08C81282F30E03A87298789859A8521
:100560000097D1F029853A852130310509F099C0ED
:10057000A5E2B0E0E5E2F0E08081482F8B81282FF2
:1005800030E081E090E0022E02C0880F991F0A94AB
:10059000E2F7842B8C9385C0A5E2B0E0E5E2F0E0C1
:1005A0008081482F8B81282F30E081E090E0022E5F
:1005B00002C0880F991F0A94E2F7809584238C93D8
:1005C00070C08C81282F30E038872F838F819885E9
:1005D0000097D1F02F8138852130310509F061C0B5
:1005E000A8E2B0E0E8E2F0E08081482F8B81282F7C
:1005F00030E081E090E0022E02C0880F991F0A943B
:10060000E2F7842B8C934DC0A8E2B0E0E8E2F0E082
:100610008081482F8B81282F30E081E090E0022EEE
:1006200002C0880F991F0A94E2F7809584238C9367
:1006300038C08C81282F30E03E832D838D819E81B0
:100640000097C9F02D813E812130310551F5ABE293
:10065000B0E0EBE2F0E08081482F8B81282F30E082
:1006600081E090E0022E02C0880F991F0A94E2F701
:10067000842B8C9316C0ABE2B0E0EBE2F0E080811B
:10068000482F8B81282F30E081E090E0022E02C0BD
:10069000880F991F0A94E2F7809584238C9301C0F8
:1006A000198289812C960FB6F894DEBF0FBECDBF9C
:1006B000CF91DF910895DF93CF9300D000D00F92B8
:1006C000CDB7DEB78A836B8381E089838A818330EB
:1006D00008F053C08B81883008F04FC08A81282FE2
:1006E00030E03D832C838C819D8181309105E9F040
:1006F0002C813D812230310561F18C819D810097F3
:10070000E9F5A5E2B0E0E5E2F0E08081482F8B81D9
:10071000282F30E081E090E0022E02C0880F991F60
:100720000A94E2F784278C9329C0A8E2B0E0E8E2BB
:10073000F0E08081482F8B81282F30E081E090E02D
:10074000022E02C0880F991F0A94E2F784278C9327
:1007500015C0ABE2B0E0EBE2F0E08081482F8B8186
:10076000282F30E081E090E0022E02C0880F991F10
:100770000A94E2F784278C9301C0198289810F9033
:100780000F900F900F900F90CF91DF910895DF930E
:10079000CF93CDB7DEB728970FB6F894DEBF0FBE64
:1007A000CDBF8B836C835E834D8381E08A838B8195
:1007B000833008F076C08C81883008F072C08D815B
:1007C0009E81009709F46DC08B81282F30E0388717
:1007D0002F834F8158854130510549F18F8198858C
:1007E0008230910509F440C02F81388521153105EB
:1007F00009F058C0E3E2F0E08081282F30E08C81DE
:10080000882F90E0A90102C0559547958A95E2F797
:10081000CA01817089838981813029F4ED81FE814B
:1008200081E080833FC0ED81FE8110823BC0E6E223
:10083000F0E08081282F30E08C81882F90E0A901A2
:1008400002C0559547958A95E2F7CA018170898360
:100850008981813029F4ED81FE8181E0808322C08D
:10086000ED81FE8110821EC0E9E2F0E08081282F38
:1008700030E08C81882F90E0A90102C05595479502
:100880008A95E2F7CA01817089838981813029F4D0
:10089000ED81FE8181E0808305C0ED81FE811082C3
:1008A00001C01A828A8128960FB6F894DEBF0FBE67
:1008B000CDBFCF91DF910895DF93CF93CDB7DEB752
:1008C0002B970FB6F894DEBF0FBECDBF8A836B8324
:1008D00081E089838A81833008F060C08B8188231E
:1008E00021F08B81813009F059C08A81282F30E0B6
:1008F0003B872A878A859B858130910509F12A8566
:100900003B852230310599F18A859B85009709F056
:1009100046C08B81282F30E03987288788859985C4
:10092000009751F02885398521303105C1F5E4E281
:10093000F0E08FEF808333C0E4E2F0E010822FC05C
:100940008B81282F30E03F832E838E819F810097FB
:1009500051F02E813F812130310509F5E7E2F0E0C9
:100960008FEF80831CC0E7E2F0E0108218C08B811B
:10097000282F30E03D832C838C819D81009751F09E
:100980002C813D812130310551F4EAE2F0E08FEF16
:10099000808305C0EAE2F0E0108201C019828981FB
:1009A0002B960FB6F894DEBF0FBECDBFCF91DF916F
:1009B0000895DF93CF9300D000D00F92CDB7DEB76C
:1009C0008A836B8381E089838A81282F30E03D838D
:1009D0002C838C819D818130910571F02C813D812A
:1009E0002230310571F08C819D81009779F4E5E228
:1009F000F0E08B8180830BC0E8E2F0E08B818083A4
:100A000006C0EBE2F0E08B81808301C0198289810E
:100A10000F900F900F900F900F90CF91DF9108954E
:100A2000DF93CF9300D000D000D0CDB7DEB78A835C
:100A30007C836B8381E089838A81823060F18B8142
:100A40009C81009741F18A81282F30E03E832D83DD
:100A50008D819E818130910581F02D813E812230F2
:100A6000310591F08D819E810097B1F4E3E2F0E0D1
:100A70008081EB81FC8180830FC0E6E2F0E0808121
:100A8000EB81FC81808308C0E9E2F0E08081EB81AA
:100A9000FC81808301C01982898126960FB6F89463
:100AA000DEBF0FBECDBFCF91DF910895DF93CF930F
:100AB000CDB7DEB7AFE5B0E0EFE5F0E0808180686C
:100AC0008C93CF91DF910895DF93CF93CDB7DEB7AD
:100AD000AFE5B0E0EFE5F0E080818F778C93CF91C8
:100AE000DF910895DF93CF9300D000D0CDB7DEB76C
:100AF00019821A821B821C820E9475010E94530077
:100B00000E94560520E236E080E0B9010E94FA001A
:100B100080910001909101012FEF8F3F920791F397
:100B20008091000190910101CC01A0E0B0E028E8A3
:100B300033E140E050E0BC01CD010E943206DC010F
:100B4000CB01072E7AE0B695A795979587957A956C
:100B5000D1F7702D89839A83AB83BC8389819A8175
:100B6000AB81BC818C3D25E0920720E0A20720E00C
:100B7000B20780F480E060E041E00E94750280E00E
:100B800061E040E00E94750280E062E040E00E9487
:100B900075024FC089819A81AB81BC818C3D25E073
:100BA000920720E0A20720E0B207E0F089819A8155
:100BB000AB81BC81893B2BE0920720E0A20720E0BB
:100BC000B20780F480E060E040E00E94750280E0BF
:100BD00061E041E00E94750280E062E040E00E9436
:100BE000750227C089819A81AB81BC81893B2BE04A
:100BF000920720E0A20720E0B207D8F089819A810D
:100C0000AB81BC81893823E1920720E0A20720E074
:100C1000B20778F480E060E040E00E94750280E076
:100C200061E040E00E94750280E062E041E00E94E5
:100C300075028FEF9FEF909301018093000162CFC7
:100C4000DF93CF9300D0CDB7DEB79A8389838981B4
:100C50009A8190930101809300010F900F90CF91A2
:100C6000DF910895629FD001739FF001829FE00D94
:100C7000F11D649FE00DF11D929FF00D839FF00D1B
:100C8000749FF00D659FF00D9927729FB00DE11DC7
:100C9000F91F639FB00DE11DF91FBD01CF011124A4
:060CA0000895F894FFCF57
:020CA600FFFF4E
:00000001FF
