:100000000C942A000C943F000C943F000C943F0089
:100010000C943F000C943F000C943F000C943F0064
:100020000C943F000C943F000C943F000C943F0054
:100030000C943F000C943F000C943F000C943F0044
:100040000C943F000C943F000C943F000C943F0034
:100050000C943F0011241FBECFE5D8E0DEBFCDBF1A
:1000600011E0A0E6B0E0E4E0FEE102C005900D92F0
:10007000A836B107D9F70E94650B0C94000F0C94B9
:100080000000EF92FF920F931F937B018C0120E001
:1000900030E040E05FE40E94410388238CF0C80117
:1000A000B70120E030E040E05FE40E94B9010E9427
:1000B000A1039B01AC01205030404040504806C095
:1000C000C801B7010E94A1039B01AC01B901CA019B
:1000D0001F910F91FF90EF900895A0E0B0E0E3E74B
:1000E000F0E00C94C90EDC012B01FA019C919230D6
:1000F00008F439C1EB018881823008F433C19430AF
:1001000069F4843009F02FC111969C91119789816F
:10011000981709F428C1A0E6B0E025C1843009F49D
:1001200021C18230A9F4923009F01DC19A01AD01BC
:1001300088E0EA010990AE01E90109929E0181502F
:10014000C1F7E201898111969C918923818308C1BD
:10015000923009F407C112962D903C901397EB0151
:100160008A819B811496AD90BD90CD90DC901797BD
:10017000EC80FD800E811F819101281B390BB90194
:1001800037FF04C066277727621B730B6032710547
:100190000CF061C0121613066CF537014801062EEB
:1001A00004C096948794779467940A94D2F721E0D8
:1001B00030E040E050E004C0220F331F441F551FC1
:1001C0006A95D2F721503040404050402E213F21C7
:1001D00040235123211531054105510521F021E02E
:1001E00030E040E050E079018A01E628F72808294C
:1001F00019293CC0232BD1F1260E371E35014601AB
:10020000062E04C096948794779467940A94D2F744
:1002100021E030E040E050E004C0220F331F441FD3
:10022000551F6A95D2F721503040404050402A2156
:100230003B214C215D21211531054105510521F05E
:1002400021E030E040E050E059016A01A628B728DB
:10025000C828D9280BC0821593052CF01C01AA24AC
:10026000BB24650103C0EE24FF24870111969C91F5
:10027000D20111968C91981709F445C0992339F051
:10028000A80197012A193B094C095D0906C0A6017E
:1002900095012E193F09400B510B57FD08C01182E3
:1002A0003382228224833583468357831DC081E0B5
:1002B00081833382228288279927DC01821B930B5A
:1002C000A40BB50B84839583A683B7830DC0220F3F
:1002D000331F441F551F24833583468357838281F0
:1002E000938101979383828324813581468157814D
:1002F000DA01C9010197A109B1098F5F9F4FAF4F83
:10030000BF4328F30BC0918333822282EA0CFB1C8B
:100310000C1D1D1DE482F5820683178383E0808314
:10032000248135814681578157FF1AC0C901AA2708
:1003300097FDA095BA2F81709070A070B0705695FF
:10034000479537952795822B932BA42BB52B848328
:100350009583A683B7838281938101969383828359
:10036000DF0101C0D201CD01CDB7DEB7E2E10C94CF
:10037000E50EA0E2B0E0EFEBF1E00C94D50E69835E
:100380007A838B839C832D833E834F835887E9E058
:10039000EE2EF12CEC0EFD1ECE010196B7010E944F
:1003A00092058E010F5E1F4FCE010596B8010E9487
:1003B00092058A8991E089278A8BC701B801AE012D
:1003C000475E5F4F0E946D000E94BD04A096E6E06C
:1003D0000C94F10EA0E2B0E0E0EFF1E00C94D50E49
:1003E00069837A838B839C832D833E834F835887D5
:1003F000F9E0EF2EF12CEC0EFD1ECE010196B701B7
:100400000E9492058E010F5E1F4FCE010596B80126
:100410000E949205C701B801AE01475E5F4F0E947E
:100420006D000E94BD04A096E6E00C94F10EA0E2DF
:10043000B0E0EDE1F2E00C94C90E69837A838B831E
:100440009C832D833E834F835887CE010196BE0146
:10045000675F7F4F0E949205CE010596BE016F5ED9
:100460007F4F0E9492059985923088F08989823069
:10047000C8F0943019F4823051F404C0843029F467
:10048000923081F480E690E0C6C0923049F420E0DA
:100490009A858A89981321E02A87CE010996BBC0E4
:1004A000823049F420E09A858A89981321E02A8BCA
:1004B000CE014196B0C02D843E844F8458886D880B
:1004C0007E888F88988CEE24FF248701AA24BB2481
:1004D000650140E050E060E070E0E0E0F0E0C10184
:1004E00081709070892BE9F0E60CF71C081D191D2E
:1004F0009A01AB012A0D3B1D4C1D5D1D80E090E073
:10050000A0E0B0E0E614F7040805190520F481E046
:1005100090E0A0E0B0E0BA01A901480F591F6A1F9E
:100520007B1FAA0CBB1CCC1CDD1C97FE08C081E005
:1005300090E0A0E0B0E0A82AB92ACA2ADB2A3196C6
:10054000E032F10549F0660C771C881C991C569422
:10055000479437942794C3CFFA85EA892B893C893D
:100560008B859C85280F391F2E5F3F4F17C0CA010E
:1005700081709070892B61F016950795F794E79438
:1005800080E090E0A0E0B0E8E82AF92A0A2B1B2BD3
:1005900076956795579547952F5F3F4F77FDE7CF46
:1005A0000CC0440F551F661F771F17FD4160EE0CEE
:1005B000FF1C001F111F21503040403090E05907B0
:1005C00090E0690790E4790760F32B8F3C8FDB01A3
:1005D000CA018F779070A070B07080349105A1052A
:1005E000B10561F447FD0AC0E114F10401051105EC
:1005F00029F0405C5F4F6F4F7F4F40781A8EFE1797
:1006000011F081E08A8F4D8F5E8F6F8F78A383E02A
:10061000898FCE0149960E94BD04A096E2E10C9418
:10062000E50EA8E1B0E0E7E1F3E00C94D50E6983B4
:100630007A838B839C832D833E834F83588789E005
:10064000E82EF12CEC0EFD1ECE010196B7010E94A2
:1006500092058E010F5E1F4FCE010596B8010E94D4
:1006600092058985823040F08989823028F0C7015F
:10067000B8010E940A0601C08FEF6896E6E00C946C
:10068000F10EA8E1B0E0E7E4F3E00C94D50E698345
:100690007A838B839C832D833E834F83588789E0A5
:1006A000E82EF12CEC0EFD1ECE010196B7010E9442
:1006B00092058E010F5E1F4FCE010596B8010E9474
:1006C00092058985823040F08989823028F0C701FF
:1006D000B8010E940A0601C08FEF6896E6E00C940C
:1006E000F10EA8E1B0E0E7E7F3E00C94D50E6983E2
:1006F0007A838B839C832D833E834F83588789E045
:10070000E82EF12CEC0EFD1ECE010196B7010E94E1
:1007100092058E010F5E1F4FCE010596B8010E9413
:1007200092058985823040F08989823028F0C7019E
:10073000B8010E940A0601C081E06896E6E00C94C8
:10074000F10EACE0B0E0E7EAF3E00C94D90E698377
:100750007A838B839C83CE010196BE016B5F7F4FB2
:100760000E9492058D81823061F1823050F1843097
:1007700021F48E81882351F12EC02F81388537FDD9
:1007800020C06E812F3131051CF06623F9F023C0A3
:100790008EE190E0821B930B29853A854B855C8521
:1007A00004C056954795379527958A95D2F76623C5
:1007B000B1F050954095309521953F4F4F4F5F4F89
:1007C0000EC020E030E040E050E009C02FEF3FEFE6
:1007D0004FEF5FE704C020E030E040E050E8B901AF
:1007E000CA012C96E2E00C94F50EA8E0B0E0EBEF25
:1007F000F3E00C94D10E7B018C016115710581052C
:10080000910519F482E0898360C083E089838EE1D9
:10081000C82ED12CDC82CB82ED82FE820F8318871A
:10082000C801B7010E946E04FC013197F7FF3BC07D
:10083000222733272E1B3F0B57016801022E04C0CD
:10084000D694C794B794A7940A94D2F740E050E0A6
:1008500060E070E081E090E0A0E0B0E004C0880FCC
:10086000991FAA1FBB1F2A95D2F70197A109B109A9
:100870008E219F21A023B1230097A105B10521F06E
:1008800041E050E060E070E04A295B296C297D2955
:100890004D835E836F8378878EE190E08E1B9F0B84
:1008A0009C838B8312C0309781F00E2E04C0EE0C17
:1008B000FF1C001F111F0A94D2F7ED82FE820F83E6
:1008C0001887CE1ADF0ADC82CB821A82CE0101960B
:1008D0000E94BD042896EAE00C94ED0EEF92FF9280
:1008E0000F931F937B018C0180E0E81680E0F806EF
:1008F00081E0080780E0180788F48FEFE816F1041C
:100900000105110531F028F088E090E0A0E0B0E0AA
:1009100017C080E090E0A0E0B0E012C080E0E816F0
:1009200080E0F80680E0080781E0180728F088E1F9
:1009300090E0A0E0B0E004C080E190E0A0E0B0E092
:1009400020E230E040E050E0281B390B4A0B5B0B03
:1009500004C016950795F794E7948A95D2F7F701A6
:10096000E859FF4F8081281B310941095109C9010C
:100970001F910F91FF90EF900895DF92EF92FF92F9
:100980000F931F93FC01E480F58006811781D180CD
:100990008081823048F480E090E0A0E1B0E0E82A75
:1009A000F92A0A2B1B2BA5C0843009F49FC0823082
:1009B00021F4EE24FF24870105C0E114F1040105B0
:1009C000110519F4E0E0F0E096C0628173819FEFB9
:1009D000623879070CF05BC022E83FEF261B370B2B
:1009E0002A3131052CF020E030E040E050E02AC010
:1009F000B801A701022E04C07695679557954795D3
:100A00000A94D2F781E090E0A0E0B0E004C0880F43
:100A1000991FAA1FBB1F2A95D2F70197A109B109F7
:100A20008E219F21A023B1230097A105B10521F0BC
:100A300081E090E0A0E0B0E09A01AB01282B392BD7
:100A40004A2B5B2BDA01C9018F779070A070B070D0
:100A500080349105A105B10539F427FF09C0205C58
:100A60003F4F4F4F5F4F04C0215C3F4F4F4F5F4F91
:100A7000E0E0F0E02030A0E03A07A0E04A07A0E480
:100A80005A0710F0E1E0F0E079018A0127C06038F0
:100A9000710564F5FB01E158FF4FD801C7018F775D
:100AA0009070A070B07080349105A105B10539F443
:100AB000E7FE0DC080E490E0A0E0B0E004C08FE36A
:100AC00090E0A0E0B0E0E80EF91E0A1F1B1F17FF20
:100AD00005C016950795F794E794319687E016952B
:100AE0000795F794E7948A95D1F705C0EE24FF2483
:100AF0008701EFEFF0E06E2F679566276795902FDF
:100B00009F77D794DD24D7948E2F8695492F462B37
:100B1000582F5D29B701CA011F910F91FF90EF90E7
:100B2000DF900895FC01DB01408151812281622F19
:100B30006F7770E0221F2227221F9381892F880F51
:100B4000822B282F30E0991F9927991F11969C938B
:100B5000119721153105A9F541155105610571055B
:100B600011F482E037C082E89FEF13969C938E9336
:100B700012979A01AB0167E0220F331F441F551FE4
:100B80006A95D1F783E08C930DC0220F331F441F69
:100B9000551F12968D919C911397019713969C93D4
:100BA0008E931297203080E0380780E0480780E479
:100BB000580758F314962D933D934D935C931797D4
:100BC00008952F3F310579F44115510561057105EF
:100BD00019F484E08C93089564FF03C081E08C9342
:100BE00012C01C9210C02F57304013963C932E9386
:100BF000129783E08C9387E0440F551F661F771F81
:100C00008A95D1F7706414964D935D936D937C93A0
:100C1000179708951F93DC01FB019C91923008F413
:100C200047C08081823008F443C0943051F411965B
:100C30001C91843099F58181682F70E0611B7109E6
:100C40003FC0843021F0923031F48230B9F181819B
:100C5000882389F12DC011961C9111978230F1F0F3
:100C600081811817D9F412962D913C9113978281A6
:100C700093818217930794F028173907BCF01496D4
:100C80008D919D910D90BC91A02D2481358146813F
:100C90005781281739074A075B0718F4112341F0D9
:100CA0000AC082179307A407B50740F4112319F06F
:100CB00061E070E005C06FEF7FEF02C060E070E0C0
:100CC000CB011F910895DF93CF93CDB7DEB7EAE351
:100CD000F0E08CE78083E7E3F0E087E78083E4E3FC
:100CE000F0E01082E1E3F0E01082EBE3F0E010824C
:100CF000E8E3F0E01082E5E3F0E01082E2E3F0E008
:100D00001082CF91DF910895DF93CF93CDB7DEB7F7
:100D10002E970FB6F894DEBF0FBECDBF8A836B83CC
:100D20004C8381E089838A81843008F00CC18B81F7
:100D3000883008F008C18C81882321F08C818130B3
:100D400009F001C18A81282F30E03E872D878D85EB
:100D50009E858130910509F44FC02D853E85223056
:100D600031052CF48D859E85009771F0EDC02D85A1
:100D70003E852230310509F477C08D859E8583300C
:100D8000910509F4A9C0E0C08C81282F30E03C8790
:100D90002B878B859C850097D1F02B853C85213056
:100DA000310509F0D1C0A4E3B0E0E4E3F0E08081D4
:100DB000482F8B81282F30E081E090E0022E02C086
:100DC000880F991F0A94E2F7842B8C93BDC0A4E38B
:100DD000B0E0E4E3F0E08081482F8B81282F30E001
:100DE00081E090E0022E02C0880F991F0A94E2F77A
:100DF000809584238C93A8C08C81282F30E03A877B
:100E0000298789859A850097D1F029853A852130EF
:100E1000310509F099C0A7E3B0E0E7E3F0E0808195
:100E2000482F8B81282F30E081E090E0022E02C015
:100E3000880F991F0A94E2F7842B8C9385C0A7E34F
:100E4000B0E0E7E3F0E08081482F8B81282F30E08D
:100E500081E090E0022E02C0880F991F0A94E2F709
:100E6000809584238C9370C08C81282F30E0388744
:100E70002F838F8198850097D1F02F81388521307D
:100E8000310509F061C0A4E3B0E0E4E3F0E0808163
:100E9000482F8B81282F30E081E090E0022E02C0A5
:100EA000880F991F0A94E2F7842B8C934DC0A4E31A
:100EB000B0E0E4E3F0E08081482F8B81282F30E020
:100EC00081E090E0022E02C0880F991F0A94E2F799
:100ED000809584238C9338C08C81282F30E03E830A
:100EE0002D838D819E810097C9F02D813E81213017
:100EF000310551F5A1E3B0E0E1E3F0E08081482F56
:100F00008B81282F30E081E090E0022E02C0880F14
:100F1000991F0A94E2F7842B8C9316C0A1E3B0E0EA
:100F2000E1E3F0E08081482F8B81282F30E081E0E1
:100F300090E0022E02C0880F991F0A94E2F7809574
:100F400084238C9301C0198289812E960FB6F89460
:100F5000DEBF0FBECDBFCF91DF910895DF93CF935A
:100F6000CDB7DEB72E970FB6F894DEBF0FBECDBF5C
:100F70008A836B834C8381E089838A81843008F083
:100F80000CC18B81883008F008C18C81813021F040
:100F90008C81882309F001C18A81282F30E03E87A7
:100FA0002D878D859E858130910509F44FC02D8553
:100FB0003E85223031052CF48D859E85009771F099
:100FC000EDC02D853E852230310509F477C08D8531
:100FD0009E858330910509F4A9C0E0C08C81282F3B
:100FE00030E03C872B878B859C850097D1F02B8543
:100FF0003C852130310509F0D1C0ABE3B0E0EBE333
:10100000F0E08081482F8B81282F30E081E090E054
:10101000022E02C0880F991F0A94E2F7842B8C934A
:10102000BDC0ABE3B0E0EBE3F0E08081482F8B8103
:10103000282F30E081E090E0022E02C0880F991F37
:101040000A94E2F7809584238C93A8C08C81282F82
:1010500030E03A87298789859A850097D1F02985DC
:101060003A852130310509F099C0A8E3B0E0E8E302
:10107000F0E08081482F8B81282F30E081E090E0E4
:10108000022E02C0880F991F0A94E2F7842B8C93DA
:1010900085C0A8E3B0E0E8E3F0E08081482F8B81D1
:1010A000282F30E081E090E0022E02C0880F991FC7
:1010B0000A94E2F7809584238C9370C08C81282F4A
:1010C00030E038872F838F8198850097D1F02F816A
:1010D00038852130310509F061C0A5E3B0E0E5E3D2
:1010E000F0E08081482F8B81282F30E081E090E074
:1010F000022E02C0880F991F0A94E2F7842B8C936A
:101100004DC0A5E3B0E0E5E3F0E08081482F8B819E
:10111000282F30E081E090E0022E02C0880F991F56
:101120000A94E2F7809584238C9338C08C81282F11
:1011300030E03E832D838D819E810097C9F02D8103
:101140003E812130310551F5A2E3B0E0E2E3F0E069
:101150008081482F8B81282F30E081E090E0022EA3
:1011600002C0880F991F0A94E2F7842B8C9316C053
:10117000A2E3B0E0E2E3F0E08081482F8B81282FEA
:1011800030E081E090E0022E02C0880F991F0A949F
:10119000E2F7809584238C9301C0198289812E9671
:1011A0000FB6F894DEBF0FBECDBFCF91DF9108958B
:1011B000DF93CF9300D000D00F92CDB7DEB78A83F4
:1011C0006B8381E089838A81843008F073C08B81CE
:1011D000883008F06FC08A81282F30E03D832C834F
:1011E0008C819D818130910549F12C813D81223096
:1011F00031052CF48C819D81009761F05CC02C81BD
:101200003D812230310571F18C819D8183309105C2
:10121000E9F151C0ABE3B0E0EBE3F0E08081482FAF
:101220008B81282F30E081E090E0022E02C0880FF1
:10123000991F0A94E2F784278C933DC0A8E3B0E09D
:10124000E8E3F0E08081482F8B81282F30E081E0B7
:1012500090E0022E02C0880F991F0A94E2F78427BB
:101260008C9329C0A5E3B0E0E5E3F0E08081482F4E
:101270008B81282F30E081E090E0022E02C0880FA1
:10128000991F0A94E2F784278C9315C0A2E3B0E07B
:10129000E2E3F0E08081482F8B81282F30E081E06D
:1012A00090E0022E02C0880F991F0A94E2F784276B
:1012B0008C9301C0198289810F900F900F900F902D
:1012C0000F90CF91DF910895DF93CF93CDB7DEB725
:1012D00028970FB6F894DEBF0FBECDBF8B836C830B
:1012E0005E834D8381E08A838B81843008F09FC0C8
:1012F0008C81883008F09BC08D819E81009709F415
:1013000096C08B81282F30E038872F834F815885F6
:1013100041305105A9F18F8198858230910534F4CF
:101320002F8138852115310571F082C04F81588594
:101330004230510509F441C08F8198858330910571
:1013400009F458C075C0E9E3F0E08081282F30E04F
:101350008C81882F90E0A90102C0559547958A9508
:10136000E2F7CA01817089838981813029F4ED8196
:10137000FE8181E080835CC0ED81FE81108258C0D7
:10138000E6E3F0E08081282F30E08C81882F90E028
:10139000A90102C0559547958A95E2F7CA01817067
:1013A00089838981813029F4ED81FE8181E0808308
:1013B0003FC0ED81FE8110823BC0E3E3F0E080811D
:1013C000282F30E08C81882F90E0A90102C055952C
:1013D00047958A95E2F7CA018170898389818130B6
:1013E00029F4ED81FE8181E0808322C0ED81FE81C0
:1013F00010821EC0E0E3F0E08081282F30E08C8175
:10140000882F90E0A90102C0559547958A95E2F78B
:10141000CA01817089838981813029F4ED81FE813F
:1014200081E0808305C0ED81FE81108201C01A82B7
:101430008A8128960FB6F894DEBF0FBECDBFCF913C
:10144000DF910895DF93CF93CDB7DEB72D970FB619
:10145000F894DEBF0FBECDBF8A836B8381E08983A2
:101460008A81843008F084C08B81882321F08B81AD
:10147000813009F07DC08A81282F30E03D872C879C
:101480008C859D858130910571F12C853D852230BB
:1014900031052CF48C859D85009769F06AC02C85F8
:1014A0003D8522303105B1F18C859D8583309105D4
:1014B00009F447C05EC08B81282F30E03B872A8724
:1014C0008A859B85009759F02A853B852130310517
:1014D00009F04FC0EAE3F0E08FEF80834AC0EAE30F
:1014E000F0E0108246C08B81282F30E039872887B2
:1014F00088859985009751F02885398521303105F7
:10150000C1F5E7E3F0E08FEF808333C0E7E3F0E07D
:1015100010822FC08B81282F30E03F832E838E8155
:101520009F81009751F02E813F812130310509F5CF
:10153000E4E3F0E08FEF80831CC0E4E3F0E010828E
:1015400018C08B81282F30E03D832C838C819D81B6
:10155000009751F02C813D812130310551F4E1E3B8
:10156000F0E08FEF808305C0E1E3F0E0108201C07E
:10157000198289812D960FB6F894DEBF0FBECDBFBC
:10158000CF91DF910895DF93CF9300D000D00F92D9
:10159000CDB7DEB78A836B8381E089838A81282F68
:1015A00030E03D832C838C819D8181309105D1F089
:1015B0002C813D81223031052CF48C819D81009756
:1015C00061F01FC02C813D812230310581F08C817A
:1015D0009D818330910581F014C0EBE3F0E08B81B5
:1015E000808310C0E8E3F0E08B8180830BC0E5E3EB
:1015F000F0E08B81808306C0E2E3F0E08B818083A2
:1016000001C0198289810F900F900F900F900F9059
:10161000CF91DF910895DF93CF9300D000D000D019
:10162000CDB7DEB78A837C836B8381E089838A812F
:10163000833008F43FC08B819C810097D9F18A8167
:10164000282F30E03E832D838D819E81813091054E
:10165000E1F02D813E81223031052CF48D819E8177
:10166000009761F028C02D813E8122303105A1F024
:101670008D819E8183309105B1F01DC0E9E3F0E0DA
:101680008081EB81FC81808316C0E6E3F0E08081FD
:10169000EB81FC8180830FC0E3E3F0E08081EB818C
:1016A000FC81808308C0E0E3F0E08081EB81FC8175
:1016B000808301C01982898126960FB6F894DEBF17
:1016C0000FBECDBFCF91DF910895DF93CF93CDB7FC
:1016D000DEB70E9463060E94780B81E068E040ED6F
:1016E00057E00E94E20B88EE97E00E945C0EFBCF71
:1016F000DF93CF93CDB7DEB781E060E041E00E9499
:10170000840681E061E041E00E94840681E062E0BD
:1017100041E00E94840681E064E041E00E9484068A
:1017200080E063E041E00E94840680E062E041E006
:101730000E94840681E065E041E00E94840681E029
:1017400065E041E00E9484060E94410ECF91DF9146
:101750000895DF93CF9300D0CDB7DEB78A8381E0C1
:1017600089838A818A3038F58A81982F917081E047
:1017700060E0492F0E94AE078A818695982F91706C
:1017800081E061E0492F0E94AE078A8186958695A7
:10179000982F917081E062E0492F0E94AE078A8104
:1017A000869586958695982F917081E064E0492F03
:1017B0000E94AE0701C0198289810F900F90CF91CE
:1017C000DF910895DF93CF93CDB7DEB7EF970FB6D4
:1017D000F894DEBF0FBECDBF8AAF6BAF5DAF4CAF2D
:1017E00081E089AF8AAD843008F040C20E94410E8A
:1017F0008AAD282F30E03FAF2EAF8EAD9FAD813048
:10180000910509F49EC02EAD3FAD223031052CF478
:101810008EAD9FAD009771F02AC22EAD3FAD223044
:10182000310509F415C18EAD9FAD8330910509F4E2
:1018300096C11DC28BAD0E94A90B80E063E040E021
:101840000E94AE078CAD9DADCC01A0E0B0E0BC0124
:10185000CD010E94F503DC01CB018DAB9EABAFAB9C
:10186000B8AF6DA97EA98FA998AD20E030E04AE716
:1018700055E40E941702DC01CB0189AB9AABABABFC
:10188000BCAB69A97AA98BA99CA920E030E040E80B
:101890005FE30E94710388232CF481E090E098AB11
:1018A0008FA73FC069A97AA98BA99CA920E03FEF27
:1018B0004FE757E40E94110318164CF56DA97EA955
:1018C0008FA998AD20E030E040E251E40E94170279
:1018D000DC01CB01BC01CD010E944100DC01CB0148
:1018E00098AB8FA70FC080E991E09EA78DA78DA52B
:1018F0009EA50197F1F79EA78DA78FA598A901979F
:1019000098AB8FA78FA598A9009769F714C069A90C
:101910007AA98BA99CA90E944100DC01CB0198AB5C
:101920008FA78FA598A99CA78BA78BA59CA501978E
:10193000F1F79CA78BA780E063E041E00E94AE072F
:1019400096C18BAD0E94A90B80E062E040E00E944E
:10195000AE078CAD9DADCC01A0E0B0E0BC01CD01E7
:101960000E94F503DC01CB018FA398A7A9A7BAA712
:101970006FA178A589A59AA520E030E04AE755E453
:101980000E941702DC01CB018BA39CA3ADA3BEA3D5
:101990006BA17CA18DA19EA120E030E040E85FE337
:1019A0000E94710388232CF481E090E09AA389A31C
:1019B0003FC06BA17CA18DA19EA120E03FEF4FE72E
:1019C00057E40E94110318164CF56FA178A589A55C
:1019D0009AA520E030E040E251E40E941702DC01C9
:1019E000CB01BC01CD010E944100DC01CB019AA3D7
:1019F00089A30FC080E991E098A38F8F8F8D98A164
:101A00000197F1F798A38F8F89A19AA101979AA3C3
:101A100089A389A19AA1009769F714C06BA17CA141
:101A20008DA19EA10E944100DC01CB019AA389A354
:101A300089A19AA19E8F8D8F8D8D9E8D0197F1F733
:101A40009E8F8D8F80E062E041E00E94AE070FC163
:101A50008BAD0E94A90B81E065E040E00E94AE07DB
:101A60008CAD9DADCC01A0E0B0E0BC01CD010E94E9
:101A7000F503DC01CB01898F9A8FAB8FBC8F698D09
:101A80007A8D8B8D9C8D20E030E04AE755E40E94F2
:101A90001702DC01CB018D8B9E8BAF8BB88F6D89CC
:101AA0007E898F89988D20E030E040E85FE30E94D6
:101AB000710388232CF481E090E09C8B8B8B3FC0DA
:101AC0006D897E898F89988D20E03FEF4FE757E43D
:101AD0000E94110318164CF5698D7A8D8B8D9C8DA3
:101AE00020E030E040E251E40E941702DC01CB012B
:101AF000BC01CD010E944100DC01CB019C8B8B8B92
:101B00000FC080E991E09A8B898B89899A89019726
:101B1000F1F79A8B898B8B899C8901979C8B8B8B96
:101B20008B899C89009769F714C06D897E898F899C
:101B3000988D0E944100DC01CB019C8B8B8B8B89A3
:101B40009C89988B8F878F8598890197F1F7988B5F
:101B50008F8781E065E041E00E94AE0788C08BADD1
:101B60000E94A90B81E066E040E00E94AE078CADC8
:101B70009DADCC01A0E0B0E0BC01CD010E94F50319
:101B8000DC01CB018B879C87AD87BE876B857C850D
:101B90008D859E8520E030E04AE755E40E941702DB
:101BA000DC01CB018F839887A987BA876F817885FD
:101BB00089859A8520E030E040E85FE30E94710368
:101BC00088232CF481E090E09E838D833FC06F8159
:101BD000788589859A8520E03FEF4FE757E40E949A
:101BE000110318164CF56B857C858D859E8520E04C
:101BF00030E040E251E40E941702DC01CB01BC015D
:101C0000CD010E944100DC01CB019E838D830FC07A
:101C100080E991E09C838B838B819C810197F1F714
:101C20009C838B838D819E8101979E838D838D8183
:101C30009E81009769F714C06F81788589859A85A0
:101C40000E944100DC01CB019E838D838D819E81AA
:101C50009A83898389819A810197F1F79A8389838D
:101C600081E066E041E00E94AE0701C019AE89AD97
:101C7000EF960FB6F894DEBF0FBECDBFCF91DF91C8
:101C80000895DF93CF93CDB7DEB780E063E041E006
:101C90000E94AE0780E062E041E00E94AE0781E072
:101CA00065E041E00E94AE0781E066E041E00E940D
:101CB000AE07CF91DF910895DF93CF9300D00F92BD
:101CC000CDB7DEB79B838A8319828A819B8128EEF8
:101CD00033E0B9010E94B50ECB012AE030E0B90132
:101CE0000E94B50E898383E0698145E050E00E943F
:101CF000E20B8A819B8124E630E0B9010E94B50E97
:101D0000CB012AE030E0B9010E94B50E898382E060
:101D1000698145E050E00E94E20B8A819B812AE0C4
:101D200030E0B9010E94B50ECB012AE030E0B901E4
:101D30000E94B50E898381E0698145E050E00E94F0
:101D4000E20B8A819B812AE030E0B9010E94B50E46
:101D5000898380E0698145E050E00E94E20B0F90AA
:101D60000F900F90CF91DF910895AA1BBB1B51E1FB
:101D700007C0AA1FBB1FA617B70710F0A61BB70BFB
:101D8000881F991F5A95A9F780959095BC01CD01A0
:101D900008952F923F924F925F926F927F928F920F
:101DA0009F92AF92BF92CF92DF92EF92FF920F93EA
:101DB0001F93CF93DF93CDB7DEB7CA1BDB0B0FB6F4
:101DC000F894DEBF0FBECDBF09942A8839884888B1
:101DD0005F846E847D848C849B84AA84B984C88447
:101DE000DF80EE80FD800C811B81AA81B981CE0F3E
:101DF000D11D0FB6F894DEBF0FBECDBFED01089523
:041E0000F894FFCF84
:101E040000000000000000000001020203030303BD
:101E14000404040404040404050505050505050576
:101E24000505050505050505060606060606060656
:101E3400060606060606060606060606060606063E
:101E44000606060606060606070707070707070726
:101E5400070707070707070707070707070707070E
:101E640007070707070707070707070707070707FE
:101E740007070707070707070707070707070707EE
:101E840007070707070707070808080808080808D6
:101E940008080808080808080808080808080808BE
:101EA40008080808080808080808080808080808AE
:101EB400080808080808080808080808080808089E
:101EC400080808080808080808080808080808088E
:101ED400080808080808080808080808080808087E
:101EE400080808080808080808080808080808086E
:101EF400080808080808080808080808080808085E
:081F0400080808080808080895
:00000001FF
