:100000000C942A000C946B050C949E050C943C00F7
:100010000C943C000C943C000C943C000C943C0070
:100020000C943C000C943C000C943C000C943C0060
:100030000C943C000C943C000C943C000C943C0050
:100040000C943C000C943C000C943C000C943C0040
:100050000C943C0011241FBECFE5D4E0DEBFCDBF21
:1000600010E0A0E6B0E001C01D92A436B107E1F7B0
:100070000E94CE070C94E2070C940000DF93CF930C
:10008000CDB7DEB7EAE3F0E08FEF8083E7E3F0E09F
:100090008FEF8083E4E3F0E08DEB8083E1E3F0E039
:1000A0001082EBE3F0E01082E8E3F0E01082E5E399
:1000B000F0E08CE38083E2E3F0E088EE8083CF9190
:1000C000DF910895DF93CF93CDB7DEB72E970FB6AC
:1000D000F894DEBF0FBECDBF8A836B834C8381E073
:1000E00089838A81843008F00CC18B81883008F0C4
:1000F00008C18C81882321F08C81813009F001C1F5
:100100008A81282F30E03E872D878D859E8581301E
:10011000910509F44FC02D853E85223031052CF420
:100120008D859E85009771F0EDC02D853E8522302E
:10013000310509F477C08D859E858330910509F4DA
:10014000A9C0E0C08C81282F30E03C872B878B85AD
:100150009C850097D1F02B853C852130310509F035
:10016000D1C0A4E3B0E0E4E3F0E08081482F8B81CC
:10017000282F30E081E090E0022E02C0880F991F06
:100180000A94E2F7842B8C93BDC0A4E3B0E0E4E3CF
:10019000F0E08081482F8B81282F30E081E090E0D3
:1001A000022E02C0880F991F0A94E2F780958423DB
:1001B0008C93A8C08C81282F30E03A8729878985C5
:1001C0009A850097D1F029853A852130310509F0CB
:1001D00099C0A7E3B0E0E7E3F0E08081482F8B818E
:1001E000282F30E081E090E0022E02C0880F991F96
:1001F0000A94E2F7842B8C9385C0A7E3B0E0E7E391
:10020000F0E08081482F8B81282F30E081E090E062
:10021000022E02C0880F991F0A94E2F7809584236A
:100220008C9370C08C81282F30E038872F838F818A
:1002300098850097D1F02F8138852130310509F05C
:1002400061C0A4E3B0E0E4E3F0E08081482F8B815B
:10025000282F30E081E090E0022E02C0880F991F25
:100260000A94E2F7842B8C934DC0A4E3B0E0E4E35E
:10027000F0E08081482F8B81282F30E081E090E0F2
:10028000022E02C0880F991F0A94E2F780958423FA
:100290008C9338C08C81282F30E03E832D838D8154
:1002A0009E810097C9F02D813E812130310551F5A5
:1002B000A1E3B0E0E1E3F0E08081482F8B81282FBB
:1002C00030E081E090E0022E02C0880F991F0A946E
:1002D000E2F7842B8C9316C0A1E3B0E0E1E3F0E0F9
:1002E0008081482F8B81282F30E081E090E0022E22
:1002F00002C0880F991F0A94E2F7809584238C939B
:1003000001C0198289812E960FB6F894DEBF0FBE08
:10031000CDBFCF91DF910895DF93CF93CDB7DEB7F7
:100320002E970FB6F894DEBF0FBECDBF8A836B83C6
:100330004C8381E089838A81843008F00CC18B81F1
:10034000883008F008C18C81813021F08C818823AD
:1003500009F001C18A81282F30E03E872D878D85E5
:100360009E858130910509F44FC02D853E85223050
:1003700031052CF48D859E85009771F0EDC02D859B
:100380003E852230310509F477C08D859E85833006
:10039000910509F4A9C0E0C08C81282F30E03C878A
:1003A0002B878B859C850097D1F02B853C85213050
:1003B000310509F0D1C0ABE3B0E0EBE3F0E08081C0
:1003C000482F8B81282F30E081E090E0022E02C080
:1003D000880F991F0A94E2F7842B8C93BDC0ABE37E
:1003E000B0E0EBE3F0E08081482F8B81282F30E0F4
:1003F00081E090E0022E02C0880F991F0A94E2F774
:10040000809584238C93A8C08C81282F30E03A8774
:10041000298789859A850097D1F029853A852130E9
:10042000310509F099C0A8E3B0E0E8E3F0E080818D
:10043000482F8B81282F30E081E090E0022E02C00F
:10044000880F991F0A94E2F7842B8C9385C0A8E348
:10045000B0E0E8E3F0E08081482F8B81282F30E086
:1004600081E090E0022E02C0880F991F0A94E2F703
:10047000809584238C9370C08C81282F30E038873E
:100480002F838F8198850097D1F02F813885213077
:10049000310509F061C0A5E3B0E0E5E3F0E080815B
:1004A000482F8B81282F30E081E090E0022E02C09F
:1004B000880F991F0A94E2F7842B8C934DC0A5E313
:1004C000B0E0E5E3F0E08081482F8B81282F30E019
:1004D00081E090E0022E02C0880F991F0A94E2F793
:1004E000809584238C9338C08C81282F30E03E8304
:1004F0002D838D819E810097C9F02D813E81213011
:10050000310551F5A2E3B0E0E2E3F0E08081482F4D
:100510008B81282F30E081E090E0022E02C0880F0E
:10052000991F0A94E2F7842B8C9316C0A2E3B0E0E3
:10053000E2E3F0E08081482F8B81282F30E081E0DA
:1005400090E0022E02C0880F991F0A94E2F780956E
:1005500084238C9301C0198289812E960FB6F8945A
:10056000DEBF0FBECDBFCF91DF910895DF93CF9354
:1005700000D000D00F92CDB7DEB78A836B8381E0C5
:1005800089838A81843008F073C08B81883008F0B9
:100590006FC08A81282F30E03D832C838C819D8120
:1005A0008130910549F12C813D81223031052CF4B7
:1005B0008C819D81009761F05CC02C813D8122304F
:1005C000310571F18C819D8183309105E9F151C034
:1005D000ABE3B0E0EBE3F0E08081482F8B81282F84
:1005E00030E081E090E0022E02C0880F991F0A944B
:1005F000E2F784278C933DC0A8E3B0E0E8E3F0E0A5
:100600008081482F8B81282F30E081E090E0022EFE
:1006100002C0880F991F0A94E2F784278C9329C09F
:10062000A5E3B0E0E5E3F0E08081482F8B81282F3F
:1006300030E081E090E0022E02C0880F991F0A94FA
:10064000E2F784278C9315C0A2E3B0E0E2E3F0E088
:100650008081482F8B81282F30E081E090E0022EAE
:1006600002C0880F991F0A94E2F784278C9301C077
:10067000198289810F900F900F900F900F90CF915A
:10068000DF910895DF93CF93CDB7DEB728970FB6EC
:10069000F894DEBF0FBECDBF8B836C835E834D832A
:1006A00081E08A838B81843008F09FC08C81883000
:1006B00008F09BC08D819E81009709F496C08B81C4
:1006C000282F30E038872F834F81588541305105DE
:1006D000A9F18F8198858230910534F42F81388576
:1006E0002115310571F082C04F8158854230510586
:1006F00009F441C08F8198858330910509F458C071
:1007000075C0E9E3F0E08081282F30E08C81882FEC
:1007100090E0A90102C0559547958A95E2F7CA0174
:10072000817089838981813029F4ED81FE8181E0A6
:1007300080835CC0ED81FE81108258C0E6E3F0E06A
:100740008081282F30E08C81882F90E0A90102C0A1
:10075000559547958A95E2F7CA0181708983898109
:10076000813029F4ED81FE8181E080833FC0ED81FD
:10077000FE8110823BC0E3E3F0E08081282F30E06F
:100780008C81882F90E0A90102C0559547958A95E4
:10079000E2F7CA01817089838981813029F4ED8172
:1007A000FE8181E0808322C0ED81FE8110821EC027
:1007B000E0E3F0E08081282F30E08C81882F90E00A
:1007C000A90102C0559547958A95E2F7CA01817043
:1007D00089838981813029F4ED81FE8181E08083E4
:1007E00005C0ED81FE81108201C01A828A8128969F
:1007F0000FB6F894DEBF0FBECDBFCF91DF91089545
:10080000DF93CF93CDB7DEB72D970FB6F894DEBF49
:100810000FBECDBF8A836B8381E089838A81843058
:1008200008F084C08B81882321F08B81813009F00E
:100830007DC08A81282F30E03D872C878C859D855F
:100840008130910571F12C853D85223031052CF4E4
:100850008C859D85009769F06AC02C853D85223086
:100860003105B1F18C859D858330910509F447C030
:100870005EC08B81282F30E03B872A878A859B8545
:10088000009759F02A853B852130310509F04FC08A
:10089000EAE3F0E08FEF80834AC0EAE3F0E0108201
:1008A00046C08B81282F30E0398728878885998535
:1008B000009751F02885398521303105C1F5E7E3EE
:1008C000F0E08FEF808333C0E7E3F0E010822FC0C9
:1008D0008B81282F30E03F832E838E819F8100976C
:1008E00051F02E813F812130310509F5E4E3F0E03C
:1008F0008FEF80831CC0E4E3F0E0108218C08B818E
:10090000282F30E03D832C838C819D81009751F00E
:100910002C813D812130310551F4E1E3F0E08FEF8E
:10092000808305C0E1E3F0E0108201C01982898173
:100930002D960FB6F894DEBF0FBECDBFCF91DF91DD
:100940000895DF93CF9300D000D00F92CDB7DEB7DC
:100950008A836B8381E089838A81282F30E03D83FD
:100960002C838C819D8181309105D1F02C813D813A
:10097000223031052CF48C819D81009761F01FC0DD
:100980002C813D812230310581F08C819D81833025
:10099000910581F014C0EBE3F0E08B81808310C0FF
:1009A000E8E3F0E08B8180830BC0E5E3F0E08B812E
:1009B000808306C0E2E3F0E08B81808301C019826E
:1009C00089810F900F900F900F900F90CF91DF9132
:1009D0000895DF93CF9300D000D000D0CDB7DEB71D
:1009E0008A837C836B8381E089838A81833008F4E6
:1009F0003FC08B819C810097D9F18A81282F30E0FC
:100A00003E832D838D819E8181309105E1F02D8182
:100A10003E81223031052CF48D819E81009761F05A
:100A200028C02D813E8122303105A1F08D819E812B
:100A300083309105B1F01DC0E9E3F0E08081EB81E6
:100A4000FC81808316C0E6E3F0E08081EB81FC81CD
:100A500080830FC0E3E3F0E08081EB81FC81808341
:100A600008C0E0E3F0E08081EB81FC81808301C07D
:100A70001982898126960FB6F894DEBF0FBECDBFCE
:100A8000CF91DF910895DF93CF9300D000D0CDB701
:100A9000DEB79B838A836C8381E089838A819B8113
:100AA000009781F08C81823068F48C81882F90E0EF
:100AB000880F991FFC01E05AFF4F8A819B81918327
:100AC000808301C0198289810F900F900F900F9041
:100AD000CF91DF9108951F920F920FB60F921124BC
:100AE0002F933F934F935F936F937F938F939F9336
:100AF000AF93BF93EF93FF93DF93CF93CDB7DEB761
:100B00008091600090916100009729F0E091600071
:100B1000F09161000995CF91DF91FF91EF91BF9125
:100B2000AF919F918F917F916F915F914F913F9185
:100B30002F910F900FBE0F901F9018951F920F923C
:100B40000FB60F9211242F933F934F935F936F93A0
:100B50007F938F939F93AF93BF93EF93FF93DF9315
:100B6000CF93CDB7DEB7809162009091630000977C
:100B700029F0E0916200F09163000995CF91DF9137
:100B8000FF91EF91BF91AF919F918F917F916F9165
:100B90005F914F913F912F910F900FBE0F901F903B
:100BA0001895DF93CF93CDB7DEB729970FB6F8949A
:100BB000DEBF0FBECDBF8A836B8381E089838A81CC
:100BC000823008F0D8C08B81843008F0D4C08A818C
:100BD000282F30E03987288788859985009739F054
:100BE000288539852130310509F463C0C5C08B8162
:100BF000282F30E03F832E838E819F8181309105A5
:100C000021F12E813F81223031052CF48E819F818C
:100C1000009761F046C02E813F812230310521F1DD
:100C20008E819F818330910571F13BC0A9E6B0E0D0
:100C3000E9E6F0E0808181608C93A9E6B0E0E9E626
:100C4000F0E0808182608C932CC0A9E6B0E0E9E6F8
:100C5000F0E080818E7F8C93A9E6B0E0E9E6F0E0D9
:100C6000808182608C931DC0A9E6B0E0E9E6F0E0E7
:100C700080818E7F8C93A9E6B0E0E9E6F0E0808188
:100C80008D7F8C930EC0A9E6B0E0E9E6F0E08081AC
:100C900081608C93A9E6B0E0E9E6F0E080818D7F89
:100CA0008C93ADE3B0E0EDE3F0E0808181608C9364
:100CB00063C08B81282F30E03D832C838C819D8104
:100CC0008130910521F12C813D81223031052CF4B8
:100CD0008C819D81009761F046C02C813D8122303E
:100CE000310521F18C819D818330910571F13BC0EB
:100CF000A9E6B0E0E9E6F0E0808184608C93A9E6A3
:100D0000B0E0E9E6F0E0808188608C932CC0A9E631
:100D1000B0E0E9E6F0E080818B7F8C93A9E6B0E05B
:100D2000E9E6F0E0808188608C931DC0A9E6B0E020
:100D3000E9E6F0E080818B7F8C93A9E6B0E0E9E6FC
:100D4000F0E08081877F8C930EC0A9E6B0E0E9E6F1
:100D5000F0E0808184608C93A9E6B0E0E9E6F0E001
:100D60008081877F8C93ADE3B0E0EDE3F0E080819C
:100D700082608C9301C01982898129960FB6F894FC
:100D8000DEBF0FBECDBFCF91DF910895DF93CF932C
:100D900000D000D0CDB7DEB78A8381E089838A8115
:100DA000282F30E03C832B838B819C81009731F08E
:100DB0002B813C812130310549F010C0ADE3B0E01A
:100DC000EDE3F0E080818E7F8C9309C0ADE3B0E06D
:100DD000EDE3F0E080818D7F8C9301C019828981E1
:100DE0000F900F900F900F90CF91DF910895DF93A8
:100DF000CF93CDB7DEB7AFE5B0E0EFE5F0E08081AF
:100E000080688C93CF91DF910895DF93CF93CDB716
:100E1000DEB7AFE5B0E0EFE5F0E080818F778C934F
:100E2000CF91DF910895DF93CF93CDB7DEB781E007
:100E300067E041E00E94620080E064E041E00E94DF
:100E4000620080E065E041E00E94620080E066E0D0
:100E500041E00E94620081E067E040E00E948C0176
:100E600080E066E040E00E948C0180E065E040E0C8
:100E70000E948C0180E064E040E00E948C01CF91F0
:100E8000DF910895DF93CF93CDB7DEB781E067E0C0
:100E900041E00E948C01CF91DF910895DF93CF93C1
:100EA000CDB7DEB780E066E041E00E948C01CF91D3
:100EB000DF910895DF93CF93CDB7DEB780E065E093
:100EC00041E00E948C01CF91DF910895DF93CF9391
:100ED000CDB7DEB780E064E041E00E948C01CF91A5
:100EE000DF910895DF93CF93CDB7DEB781E067E060
:100EF00040E00E948C01CF91DF910895DF93CF9362
:100F0000CDB7DEB780E066E040E00E948C01CF9173
:100F1000DF910895DF93CF93CDB7DEB780E065E032
:100F200040E00E948C01CF91DF910895DF93CF9331
:100F3000CDB7DEB780E064E040E00E948C01CF9145
:100F4000DF910895DF93CF93CDB7DEB781E067E0FF
:100F50000E94B602CF91DF910895DF93CF93CDB772
:100F6000DEB780E066E00E94B602CF91DF9108957F
:100F7000DF93CF93CDB7DEB780E065E00E94B60285
:100F8000CF91DF910895DF93CF93CDB7DEB780E0A7
:100F900064E00E94B602CF91DF910895DF93CF9372
:100FA000CDB7DEB70E943E000E94F7060E941307ED
:100FB00088EB97E060E00E94430580E060E00E94DB
:080FC000D105FFCFF894FFCF2B
:00000001FF
